{
  "_format": "hh-sol-artifact-1",
  "contractName": "OracleMarkets",
  "sourceName": "contracts/OracleMarkets.sol",
  "abi": [
    {
      "inputs": [],
      "stateMutability": "nonpayable",
      "type": "constructor"
    },
    {
      "inputs": [],
      "name": "EnforcedPause",
      "type": "error"
    },
    {
      "inputs": [],
      "name": "ExpectedPause",
      "type": "error"
    },
    {
      "inputs": [
        {
          "internalType": "address",
          "name": "owner",
          "type": "address"
        }
      ],
      "name": "OwnableInvalidOwner",
      "type": "error"
    },
    {
      "inputs": [
        {
          "internalType": "address",
          "name": "account",
          "type": "address"
        }
      ],
      "name": "OwnableUnauthorizedAccount",
      "type": "error"
    },
    {
      "inputs": [],
      "name": "ReentrancyGuardReentrantCall",
      "type": "error"
    },
    {
      "anonymous": false,
      "inputs": [
        {
          "indexed": true,
          "internalType": "uint256",
          "name": "betId",
          "type": "uint256"
        },
        {
          "indexed": true,
          "internalType": "uint256",
          "name": "marketId",
          "type": "uint256"
        },
        {
          "indexed": true,
          "internalType": "address",
          "name": "bettor",
          "type": "address"
        },
        {
          "indexed": false,
          "internalType": "enum OracleMarkets.BetOutcome",
          "name": "outcome",
          "type": "uint8"
        },
        {
          "indexed": false,
          "internalType": "uint256",
          "name": "amount",
          "type": "uint256"
        },
        {
          "indexed": false,
          "internalType": "string",
          "name": "originChain",
          "type": "string"
        }
      ],
      "name": "BetPlaced",
      "type": "event"
    },
    {
      "anonymous": false,
      "inputs": [
        {
          "indexed": true,
          "internalType": "uint256",
          "name": "marketId",
          "type": "uint256"
        },
        {
          "indexed": false,
          "internalType": "uint256",
          "name": "timestamp",
          "type": "uint256"
        }
      ],
      "name": "MarketCancelled",
      "type": "event"
    },
    {
      "anonymous": false,
      "inputs": [
        {
          "indexed": true,
          "internalType": "uint256",
          "name": "marketId",
          "type": "uint256"
        },
        {
          "indexed": true,
          "internalType": "address",
          "name": "creator",
          "type": "address"
        },
        {
          "indexed": false,
          "internalType": "string",
          "name": "title",
          "type": "string"
        },
        {
          "indexed": false,
          "internalType": "uint256",
          "name": "endTime",
          "type": "uint256"
        },
        {
          "indexed": false,
          "internalType": "uint256",
          "name": "oddsYes",
          "type": "uint256"
        },
        {
          "indexed": false,
          "internalType": "uint256",
          "name": "oddsNo",
          "type": "uint256"
        }
      ],
      "name": "MarketCreated",
      "type": "event"
    },
    {
      "anonymous": false,
      "inputs": [
        {
          "indexed": true,
          "internalType": "uint256",
          "name": "marketId",
          "type": "uint256"
        },
        {
          "indexed": false,
          "internalType": "uint256",
          "name": "timestamp",
          "type": "uint256"
        }
      ],
      "name": "MarketEnded",
      "type": "event"
    },
    {
      "anonymous": false,
      "inputs": [
        {
          "indexed": true,
          "internalType": "uint256",
          "name": "marketId",
          "type": "uint256"
        },
        {
          "indexed": false,
          "internalType": "enum OracleMarkets.Resolution",
          "name": "resolution",
          "type": "uint8"
        },
        {
          "indexed": false,
          "internalType": "bytes32",
          "name": "evidenceHash",
          "type": "bytes32"
        },
        {
          "indexed": false,
          "internalType": "uint256",
          "name": "timestamp",
          "type": "uint256"
        }
      ],
      "name": "MarketResolved",
      "type": "event"
    },
    {
      "anonymous": false,
      "inputs": [
        {
          "indexed": true,
          "internalType": "address",
          "name": "previousOwner",
          "type": "address"
        },
        {
          "indexed": true,
          "internalType": "address",
          "name": "newOwner",
          "type": "address"
        }
      ],
      "name": "OwnershipTransferred",
      "type": "event"
    },
    {
      "anonymous": false,
      "inputs": [
        {
          "indexed": false,
          "internalType": "address",
          "name": "account",
          "type": "address"
        }
      ],
      "name": "Paused",
      "type": "event"
    },
    {
      "anonymous": false,
      "inputs": [
        {
          "indexed": true,
          "internalType": "uint256",
          "name": "betId",
          "type": "uint256"
        },
        {
          "indexed": true,
          "internalType": "address",
          "name": "bettor",
          "type": "address"
        },
        {
          "indexed": false,
          "internalType": "uint256",
          "name": "amount",
          "type": "uint256"
        }
      ],
      "name": "PayoutClaimed",
      "type": "event"
    },
    {
      "anonymous": false,
      "inputs": [
        {
          "indexed": true,
          "internalType": "uint256",
          "name": "marketId",
          "type": "uint256"
        },
        {
          "indexed": true,
          "internalType": "address",
          "name": "bettor",
          "type": "address"
        },
        {
          "indexed": false,
          "internalType": "uint256",
          "name": "amount",
          "type": "uint256"
        }
      ],
      "name": "RefundIssued",
      "type": "event"
    },
    {
      "anonymous": false,
      "inputs": [
        {
          "indexed": false,
          "internalType": "address",
          "name": "account",
          "type": "address"
        }
      ],
      "name": "Unpaused",
      "type": "event"
    },
    {
      "inputs": [],
      "name": "BASIS_POINTS",
      "outputs": [
        {
          "internalType": "uint256",
          "name": "",
          "type": "uint256"
        }
      ],
      "stateMutability": "view",
      "type": "function"
    },
    {
      "inputs": [],
      "name": "MAX_ODDS",
      "outputs": [
        {
          "internalType": "uint256",
          "name": "",
          "type": "uint256"
        }
      ],
      "stateMutability": "view",
      "type": "function"
    },
    {
      "inputs": [],
      "name": "MIN_ODDS",
      "outputs": [
        {
          "internalType": "uint256",
          "name": "",
          "type": "uint256"
        }
      ],
      "stateMutability": "view",
      "type": "function"
    },
    {
      "inputs": [
        {
          "internalType": "uint256",
          "name": "",
          "type": "uint256"
        }
      ],
      "name": "bets",
      "outputs": [
        {
          "internalType": "uint256",
          "name": "marketId",
          "type": "uint256"
        },
        {
          "internalType": "address",
          "name": "bettor",
          "type": "address"
        },
        {
          "internalType": "enum OracleMarkets.BetOutcome",
          "name": "outcome",
          "type": "uint8"
        },
        {
          "internalType": "uint256",
          "name": "amount",
          "type": "uint256"
        },
        {
          "internalType": "uint256",
          "name": "timestamp",
          "type": "uint256"
        },
        {
          "internalType": "string",
          "name": "originChain",
          "type": "string"
        },
        {
          "internalType": "bool",
          "name": "claimed",
          "type": "bool"
        }
      ],
      "stateMutability": "view",
      "type": "function"
    },
    {
      "inputs": [
        {
          "internalType": "uint256",
          "name": "marketId",
          "type": "uint256"
        }
      ],
      "name": "cancelMarket",
      "outputs": [],
      "stateMutability": "nonpayable",
      "type": "function"
    },
    {
      "inputs": [
        {
          "internalType": "uint256",
          "name": "betId",
          "type": "uint256"
        }
      ],
      "name": "claimPayout",
      "outputs": [],
      "stateMutability": "nonpayable",
      "type": "function"
    },
    {
      "inputs": [
        {
          "internalType": "string",
          "name": "title",
          "type": "string"
        },
        {
          "internalType": "string",
          "name": "description",
          "type": "string"
        },
        {
          "internalType": "string",
          "name": "category",
          "type": "string"
        },
        {
          "internalType": "uint256",
          "name": "endTime",
          "type": "uint256"
        },
        {
          "internalType": "uint256",
          "name": "oddsYes",
          "type": "uint256"
        },
        {
          "internalType": "uint256",
          "name": "oddsNo",
          "type": "uint256"
        }
      ],
      "name": "createMarket",
      "outputs": [
        {
          "internalType": "uint256",
          "name": "",
          "type": "uint256"
        }
      ],
      "stateMutability": "nonpayable",
      "type": "function"
    },
    {
      "inputs": [],
      "name": "defaultCreatorFee",
      "outputs": [
        {
          "internalType": "uint256",
          "name": "",
          "type": "uint256"
        }
      ],
      "stateMutability": "view",
      "type": "function"
    },
    {
      "inputs": [],
      "name": "defaultPlatformFee",
      "outputs": [
        {
          "internalType": "uint256",
          "name": "",
          "type": "uint256"
        }
      ],
      "stateMutability": "view",
      "type": "function"
    },
    {
      "inputs": [
        {
          "internalType": "uint256",
          "name": "marketId",
          "type": "uint256"
        }
      ],
      "name": "emergencyRefund",
      "outputs": [],
      "stateMutability": "nonpayable",
      "type": "function"
    },
    {
      "inputs": [
        {
          "internalType": "uint256",
          "name": "marketId",
          "type": "uint256"
        }
      ],
      "name": "endMarket",
      "outputs": [],
      "stateMutability": "nonpayable",
      "type": "function"
    },
    {
      "inputs": [
        {
          "internalType": "uint256",
          "name": "betId",
          "type": "uint256"
        }
      ],
      "name": "getBet",
      "outputs": [
        {
          "internalType": "uint256",
          "name": "marketId",
          "type": "uint256"
        },
        {
          "internalType": "address",
          "name": "bettor",
          "type": "address"
        },
        {
          "internalType": "enum OracleMarkets.BetOutcome",
          "name": "outcome",
          "type": "uint8"
        },
        {
          "internalType": "uint256",
          "name": "amount",
          "type": "uint256"
        },
        {
          "internalType": "uint256",
          "name": "timestamp",
          "type": "uint256"
        },
        {
          "internalType": "string",
          "name": "originChain",
          "type": "string"
        },
        {
          "internalType": "bool",
          "name": "claimed",
          "type": "bool"
        }
      ],
      "stateMutability": "view",
      "type": "function"
    },
    {
      "inputs": [
        {
          "internalType": "uint256",
          "name": "marketId",
          "type": "uint256"
        }
      ],
      "name": "getMarket",
      "outputs": [
        {
          "internalType": "uint256",
          "name": "id",
          "type": "uint256"
        },
        {
          "internalType": "address",
          "name": "creator",
          "type": "address"
        },
        {
          "internalType": "string",
          "name": "title",
          "type": "string"
        },
        {
          "internalType": "string",
          "name": "description",
          "type": "string"
        },
        {
          "internalType": "string",
          "name": "category",
          "type": "string"
        },
        {
          "internalType": "uint256",
          "name": "endTime",
          "type": "uint256"
        },
        {
          "internalType": "uint256",
          "name": "createdAt",
          "type": "uint256"
        },
        {
          "internalType": "enum OracleMarkets.MarketState",
          "name": "state",
          "type": "uint8"
        },
        {
          "internalType": "enum OracleMarkets.Resolution",
          "name": "resolution",
          "type": "uint8"
        },
        {
          "internalType": "uint256",
          "name": "oddsYes",
          "type": "uint256"
        },
        {
          "internalType": "uint256",
          "name": "oddsNo",
          "type": "uint256"
        },
        {
          "internalType": "uint256",
          "name": "totalYesPool",
          "type": "uint256"
        },
        {
          "internalType": "uint256",
          "name": "totalNoPool",
          "type": "uint256"
        }
      ],
      "stateMutability": "view",
      "type": "function"
    },
    {
      "inputs": [
        {
          "internalType": "uint256",
          "name": "marketId",
          "type": "uint256"
        }
      ],
      "name": "getMarketBets",
      "outputs": [
        {
          "internalType": "uint256[]",
          "name": "",
          "type": "uint256[]"
        }
      ],
      "stateMutability": "view",
      "type": "function"
    },
    {
      "inputs": [
        {
          "internalType": "address",
          "name": "user",
          "type": "address"
        }
      ],
      "name": "getUserBets",
      "outputs": [
        {
          "internalType": "uint256[]",
          "name": "",
          "type": "uint256[]"
        }
      ],
      "stateMutability": "view",
      "type": "function"
    },
    {
      "inputs": [
        {
          "internalType": "uint256",
          "name": "",
          "type": "uint256"
        },
        {
          "internalType": "uint256",
          "name": "",
          "type": "uint256"
        }
      ],
      "name": "marketBets",
      "outputs": [
        {
          "internalType": "uint256",
          "name": "",
          "type": "uint256"
        }
      ],
      "stateMutability": "view",
      "type": "function"
    },
    {
      "inputs": [
        {
          "internalType": "uint256",
          "name": "",
          "type": "uint256"
        }
      ],
      "name": "markets",
      "outputs": [
        {
          "internalType": "uint256",
          "name": "id",
          "type": "uint256"
        },
        {
          "internalType": "address",
          "name": "creator",
          "type": "address"
        },
        {
          "internalType": "string",
          "name": "title",
          "type": "string"
        },
        {
          "internalType": "string",
          "name": "description",
          "type": "string"
        },
        {
          "internalType": "string",
          "name": "category",
          "type": "string"
        },
        {
          "internalType": "uint256",
          "name": "endTime",
          "type": "uint256"
        },
        {
          "internalType": "uint256",
          "name": "createdAt",
          "type": "uint256"
        },
        {
          "internalType": "enum OracleMarkets.MarketState",
          "name": "state",
          "type": "uint8"
        },
        {
          "internalType": "enum OracleMarkets.Resolution",
          "name": "resolution",
          "type": "uint8"
        },
        {
          "internalType": "uint256",
          "name": "oddsYes",
          "type": "uint256"
        },
        {
          "internalType": "uint256",
          "name": "oddsNo",
          "type": "uint256"
        },
        {
          "internalType": "uint256",
          "name": "totalYesPool",
          "type": "uint256"
        },
        {
          "internalType": "uint256",
          "name": "totalNoPool",
          "type": "uint256"
        },
        {
          "internalType": "uint256",
          "name": "creatorFee",
          "type": "uint256"
        },
        {
          "internalType": "uint256",
          "name": "platformFee",
          "type": "uint256"
        },
        {
          "internalType": "bytes32",
          "name": "evidenceHash",
          "type": "bytes32"
        },
        {
          "internalType": "uint256",
          "name": "resolvedAt",
          "type": "uint256"
        },
        {
          "internalType": "uint256",
          "name": "totalClaimed",
          "type": "uint256"
        }
      ],
      "stateMutability": "view",
      "type": "function"
    },
    {
      "inputs": [],
      "name": "nextBetId",
      "outputs": [
        {
          "internalType": "uint256",
          "name": "",
          "type": "uint256"
        }
      ],
      "stateMutability": "view",
      "type": "function"
    },
    {
      "inputs": [],
      "name": "nextMarketId",
      "outputs": [
        {
          "internalType": "uint256",
          "name": "",
          "type": "uint256"
        }
      ],
      "stateMutability": "view",
      "type": "function"
    },
    {
      "inputs": [],
      "name": "oracleResolver",
      "outputs": [
        {
          "internalType": "address",
          "name": "",
          "type": "address"
        }
      ],
      "stateMutability": "view",
      "type": "function"
    },
    {
      "inputs": [],
      "name": "owner",
      "outputs": [
        {
          "internalType": "address",
          "name": "",
          "type": "address"
        }
      ],
      "stateMutability": "view",
      "type": "function"
    },
    {
      "inputs": [],
      "name": "pause",
      "outputs": [],
      "stateMutability": "nonpayable",
      "type": "function"
    },
    {
      "inputs": [],
      "name": "paused",
      "outputs": [
        {
          "internalType": "bool",
          "name": "",
          "type": "bool"
        }
      ],
      "stateMutability": "view",
      "type": "function"
    },
    {
      "inputs": [
        {
          "internalType": "uint256",
          "name": "marketId",
          "type": "uint256"
        },
        {
          "internalType": "enum OracleMarkets.BetOutcome",
          "name": "outcome",
          "type": "uint8"
        },
        {
          "internalType": "string",
          "name": "originChain",
          "type": "string"
        }
      ],
      "name": "placeBet",
      "outputs": [],
      "stateMutability": "payable",
      "type": "function"
    },
    {
      "inputs": [
        {
          "internalType": "uint256",
          "name": "betId",
          "type": "uint256"
        }
      ],
      "name": "refundBet",
      "outputs": [],
      "stateMutability": "nonpayable",
      "type": "function"
    },
    {
      "inputs": [],
      "name": "renounceOwnership",
      "outputs": [],
      "stateMutability": "nonpayable",
      "type": "function"
    },
    {
      "inputs": [
        {
          "internalType": "uint256",
          "name": "marketId",
          "type": "uint256"
        },
        {
          "internalType": "enum OracleMarkets.Resolution",
          "name": "resolution",
          "type": "uint8"
        },
        {
          "internalType": "bytes32",
          "name": "evidenceHash",
          "type": "bytes32"
        }
      ],
      "name": "resolveMarket",
      "outputs": [],
      "stateMutability": "nonpayable",
      "type": "function"
    },
    {
      "inputs": [
        {
          "internalType": "uint256",
          "name": "newCreatorFee",
          "type": "uint256"
        },
        {
          "internalType": "uint256",
          "name": "newPlatformFee",
          "type": "uint256"
        }
      ],
      "name": "setDefaultFees",
      "outputs": [],
      "stateMutability": "nonpayable",
      "type": "function"
    },
    {
      "inputs": [
        {
          "internalType": "address",
          "name": "newOracle",
          "type": "address"
        }
      ],
      "name": "setOracleResolver",
      "outputs": [],
      "stateMutability": "nonpayable",
      "type": "function"
    },
    {
      "inputs": [
        {
          "internalType": "address",
          "name": "newOwner",
          "type": "address"
        }
      ],
      "name": "transferOwnership",
      "outputs": [],
      "stateMutability": "nonpayable",
      "type": "function"
    },
    {
      "inputs": [],
      "name": "unpause",
      "outputs": [],
      "stateMutability": "nonpayable",
      "type": "function"
    },
    {
      "inputs": [
        {
          "internalType": "address",
          "name": "",
          "type": "address"
        },
        {
          "internalType": "uint256",
          "name": "",
          "type": "uint256"
        }
      ],
      "name": "userBets",
      "outputs": [
        {
          "internalType": "uint256",
          "name": "",
          "type": "uint256"
        }
      ],
      "stateMutability": "view",
      "type": "function"
    },
    {
      "stateMutability": "payable",
      "type": "receive"
    }
  ],
  "bytecode": "0x608080604052346100b957600160005533156100a35760018054610100600160a81b0319811633600881811b610100600160a81b0316929092179093556040519291901c6001600160a01b03167f8be0079c531659141344cd1fd0a4f28419497f9722a3daafe3b4186f6b6457e0600080a36001600281905560035560c86008556064600955600a80546001600160a01b031916331790556120e790816100bf8239f35b631e4fbdf760e01b815260006004820152602490fd5b600080fdfe610120604052600436101561001c575b361561001a57600080fd5b005b60003560e01c8063061e494f14611ba8578063157bdcce14611acc5780631c34212c14611aae57806322af00fa14611a455780632d56657d146119ca5780633adadc0a146119305780633f4ba83a146118c6578063406ef2ef146118a85780635c975abb1461188557806370e5deb91461182e578063715018a6146117cd5780637c16cd9e146116865780638068aa681461163c5780638456cb59146115e35780638a69614e146112e45780638da5cb5b146112b757806394479bbb1461127457806399eb49b914610c945780639aca279214610c76578063ae07d05114610c59578063b1283e7714610ac0578063b5acbd4314610a97578063b9bdb4ef14610a30578063c62d359c146106c5578063d5220b6214610527578063e1f1c4a71461050a578063e1fdb4b4146103cc578063eb44fdd314610299578063f014a1081461027c578063f0b2cf131461025e578063f2e550211461021f5763f2fde38b0361000f573461021a57602036600319011261021a5761019a611db0565b6101a2612041565b6001600160a01b038181169182156102015760018054610100600160a81b03198116600893841b610100600160a81b031617909155901c167f8be0079c531659141344cd1fd0a4f28419497f9722a3daafe3b4186f6b6457e0600080a3005b604051631e4fbdf760e01b815260006004820152602490fd5b600080fd5b3461021a5761022d36611ea1565b9060005260066020526040600020805482101561021a5760209161025091611e02565b90546040519160031b1c8152f35b3461021a57600036600319011261021a576020600954604051908152f35b3461021a57600036600319011261021a57602060405161251c8152f35b3461021a57602036600319011261021a57600435801515806103c1575b6102bf90611eb7565b60005260046020526040600020805490600160a01b6001900360018201541690600581015490600681015460078201546008830154600984015491600a85015493600b860154956002810161031390611d0b565b9061032060038201611d0b565b9060040161032d90611d0b565b916040519b8c9b6101a0918d5260208d01528060408d01528b0161035091611c21565b8a810360608c015261036191611c21565b89810360808b015261037291611c21565b9660a089015260c088015260e0870160ff82169061038f91611e87565b61010087019060081c60ff16906103a591611e94565b6101208601526101408501526101608401526101808301520390f35b5060025481106102b6565b3461021a57602036600319011261021a576103e5612070565b6004356000526005602052604060002080546000526004602052604060002061041b60018060a01b036001840154163314611f3b565b600582019060ff600783549261043383851615611f77565b01541660068110156104f4576004036104b85760019060ff19161790556002810190600080808085548181156104af575b3390f1156104a357549054906040519182527f7a482fdeb6bc9a1376f597068a214a7a39472bb2eff1b8cad21ba04f49ddca1b60203393a36001600055005b6040513d6000823e3d90fd5b506108fc610464565b60405162461bcd60e51b815260206004820152601460248201527313585c9ad95d081b9bdd0818d85b98d95b1b195960621b6044820152606490fd5b634e487b7160e01b600052602160045260246000fd5b3461021a57600036600319011261021a5760206040516127108152f35b3461021a57606036600319011261021a57600435602435600381101561021a57600a5460443591906001600160a01b03163303610689578215158061067e575b61057090611eb7565b826000526004602052604060002090600782019283549260ff841660068110156104f457600203610646578215610601577f3e38063ee64f3323e6a7efa457a12be81aff9029674c237a651cf0033105cdbc94600360609561ff008660081b169061ffff19161717905581600e820155600f429101556105f36040518093611e94565b6020820152426040820152a2005b60405162461bcd60e51b815260206004820152601760248201527f4d7573742070726f76696465207265736f6c7574696f6e0000000000000000006044820152606490fd5b60405162461bcd60e51b815260206004820152601060248201526f13585c9ad95d081b9bdd08195b99195960821b6044820152606490fd5b506002548310610567565b60405162461bcd60e51b815260206004820152601460248201527313db9b1e481bdc9858db194818d85b8818d85b1b60621b6044820152606490fd5b606036600319011261021a57600435602435600281101561021a5767ffffffffffffffff9160443583811161021a57610702903690600401611e30565b9080151580610a25575b61071590611eb7565b61071d612070565b610725612093565b806000526020926004845260406000209060ff6007830154169460068610156104f4576107556001809714611efb565b60058301544210156109f25734156109b5576003549261077484611ff8565b60039081556000858152600584526040902086815588810180546001600160a81b0319163360ff60a01b19161760a087901b60ff60a01b16179055346002820155429181019190915586516004820199811161099f576107d48a54611caf565b601f8111610956575b5083601f82116001146108cd579981600593927fab5c9a72c480e253e81f6b334b1a69656bea5a9f9c54a340831d3c186b42d69298999a9b9c6000916108c2575b50600019600383901b1c1916908c1b1790555b01805460ff19169055826108ad57600a0161084d348254611fb5565b90555b8460005260068152610866846040600020612007565b336000526007815261087c846040600020612007565b6108896040518093611c14565b349082015260606040820152806108a533966060830190611c21565b0390a4600055005b600b016108bb348254611fb5565b9055610850565b90508b01518d61081e565b601f198216908b600052856000209160005b8181106109415750928b9c927fab5c9a72c480e253e81f6b334b1a69656bea5a9f9c54a340831d3c186b42d692999a9b9c92826005979610610928575b5050811b019055610831565b8d015160001960f88460031b161c191690558d8061091c565b8b8301518455928c01929187019187016108df565b8a60005284600020601f830160051c810191868410610995575b601f0160051c01908a905b8281106109895750506107dd565b60008155018a9061097b565b9091508190610970565b634e487b7160e01b600052604160045260246000fd5b6064906040519062461bcd60e51b825260048201526016602482015275042657420616d6f756e74206d757374206265203e20360541b6044820152fd5b6064906040519062461bcd60e51b82526004820152600c60248201526b13585c9ad95d08195b99195960a21b6044820152fd5b50600254811061070c565b3461021a57610a3e36611ea1565b90610a47612041565b6103e8610a548383611fb5565b1015610a6257600955600855005b60405162461bcd60e51b815260206004820152600d60248201526c08ccacae640e8dede40d0d2ced609b1b6044820152606490fd5b3461021a57600036600319011261021a57600a546040516001600160a01b039091168152602090f35b3461021a57602036600319011261021a5760048035600090815260209190915260409020805460a05260018101546001600160a01b031690610b0460028201611d0b565b60c052610b1360038201611d0b565b61010052610b2360048201611d0b565b916005820154926006830154600784015460088501546009860154600a87015491600b88015493600c89015495600d8a015497600e8b015499600f8c01549b6011015460805260405160e0526102409060a05160e0515260e051602001528060e0516040015260e0510160c05190610b9a91611c21565b60e051810360e051606001526101005190610bb491611c21565b60e051810360e05160800152610bc991611c21565b9a60e05160a0015260e05160c0015260e05160e00160ff821690610bec91611e87565b60e051610100019060081c60ff1690610c0491611e94565b60e051610120015260e051610140015260e051610160015260e051610180015260e0516101a0015260e0516101c0015260e0516101e0015260e051610200015260805160e051610220015260e051900360e051f35b3461021a57600036600319011261021a5760206040516123288152f35b3461021a57600036600319011261021a576020600354604051908152f35b3461021a5760c036600319011261021a5760043567ffffffffffffffff811161021a57610cc5903690600401611e30565b60243567ffffffffffffffff811161021a57610ce5903690600401611e30565b60443567ffffffffffffffff811161021a57610d05903690600401611e30565b91610d0e612093565b42606435111561122f578051156111f957612328806084351015806111eb575b156111af5760a4351015806111a1575b156111665760025491610d5083611ff8565b60025582600052600460205260406000209083825560018201336bffffffffffffffffffffffff60a01b825416179055825167ffffffffffffffff811161099f57610d9e6002840154611caf565b601f811161111f575b50806020601f82116001146110b2576000916110a7575b508160011b916000199060031b1c19161760028301555b80519067ffffffffffffffff821161099f578190610df66003850154611caf565b601f8111611054575b50602090601f8311600114610fe257600092610fd7575b50508160011b916000199060031b1c19161760038201555b60048101845167ffffffffffffffff811161099f57610e4d8254611caf565b601f8111610f8f575b50806020968790601f8311600114610f2b57600092610f20575b50508160011b916000199060031b1c19161790555b606435600582015542600682015560078101600161ffff19825416179055608435600882015560a4356009820155600954600c820155600d600854910155817f4a7d407b15f60472268a43a4f0fc258be19105b8967dd8123b49b25ade8d0128610efa60405193608085526080850190611c21565b9260643586820152608435604082015260a43560608201528033940390a3604051908152f35b015190508780610e70565b60008581528981209350601f198516905b818110610f785750908460019594939210610f5f575b505050811b019055610e85565b015160001960f88460031b161c19169055878080610f52565b92938a600181928786015181550195019301610f3c565b826000526020600020601f830160051c81019160208410610fcd575b601f0160051c01905b818110610fc15750610e56565b60008155600101610fb4565b9091508190610fab565b015190508680610e16565b9250600384016000526020600020906000935b601f1984168510611039576001945083601f19811610611020575b505050811b016003820155610e2e565b015160001960f88460031b161c19169055868080611010565b81810151835560209485019460019093019290910190610ff5565b909150600384016000526020600020601f840160051c8101602085106110a0575b90849392915b601f830160051c82018110611091575050610dff565b6000815585945060010161107b565b5080611075565b905084015187610dbe565b91506002840160005260206000206000925b601f1983168410611107576001935082601f198116106110ee575b5050811b016002830155610dd5565b86015160001960f88460031b161c1916905587806110df565b868101518255602093840193600190920191016110c4565b600284016000526020600020601f830160051c81016020841061115f575b601f830160051c82018110611153575050610da7565b6000815560010161113d565b508061113d565b60405162461bcd60e51b81526020600482015260136024820152724f6464734e6f206f7574206f662072616e676560681b6044820152606490fd5b5061251c60a4351115610d3e565b60405162461bcd60e51b81526020600482015260146024820152734f646473596573206f7574206f662072616e676560601b6044820152606490fd5b5061251c6084351115610d2e565b60405162461bcd60e51b815260206004820152600e60248201526d151a5d1b19481c995c5d5a5c995960921b6044820152606490fd5b60405162461bcd60e51b815260206004820152601a60248201527f456e642074696d65206d75737420626520696e206675747572650000000000006044820152606490fd5b3461021a57602036600319011261021a5761128d611db0565b611295612041565b600a80546001600160a01b0319166001600160a01b0392909216919091179055005b3461021a57600036600319011261021a5760015460405160089190911c6001600160a01b03168152602090f35b3461021a5760208060031936011261021a57600435611301612070565b6000818152600583526040808220805483526004855291206001808301549094929392916001600160a01b039161133b8382163314611f3b565b600586019586549161135060ff841615611f77565b600784015460ff811660068110156104f4576003036115a85760081c60ff1690600382101590816104f457828b149283918261158f575b821561155d575b50501561152657600a85015491600b860154926113ab8482611fb5565b926104f4576113c6936002921561151e5750935b0154611fd8565b8115611508576114079385928a92049361140c61271095866113ec600c86015483611fd8565b049788976113fe600d87015484611fd8565b04988992611feb565b611feb565b998360ff1980931617905533600052601082018852826040600020918254161790556011810161143d8a8254611fb5565b905583159384156114db575b5050505050801580156114ac575b50505082600081156114a3575b600080809381933390f1156104a3577fe97cee5a4c0549d3fdc81e322b718ddf0aeb3418ec87dce4f9a7fb28d117c312906040519384523393a3600055005b506108fc611464565b600080939281939282938a5460081c169083906114d2575bf1156104a357848080611457565b506108fc6114c4565b6000948594859485940154169083906114ff575bf1156104a3578682878280611449565b506108fc6114ef565b634e487b7160e01b600052601260045260246000fd5b9050936113bf565b60405162461bcd60e51b815260048101889052600f60248201526e2132ba103234b2103737ba103bb4b760891b6044820152606490fd5b915091506002600092149081611576575b508b8061138e565b60ff915060a01c1660028110156104f4578a148b61156e565b915060ff8260a01c1660028110156104f4571591611387565b60405162461bcd60e51b815260048101889052601360248201527213585c9ad95d081b9bdd081c995cdbdb1d9959606a1b6044820152606490fd5b3461021a57600036600319011261021a576115fc612041565b611604612093565b600160ff19815416176001557f62e78cea01bee320cd4e420270b5ea74000d11b0c9f74754ebdbfc544b05a2586020604051338152a1005b3461021a57604036600319011261021a57611655611db0565b6001600160a01b031660009081526007602052604090208054602435919082101561021a5760209161025091611e02565b3461021a57602036600319011261021a57600435801515806117c2575b6116ac90611eb7565b60008181526004602052604090206001810154336001600160a01b03918216149081156117b1575b501561177457600701805460ff811660068110156104f45760018114908115611769575b50156117345760049060ff19161790557fe3285420e15d5e840b024eca291c363bac53e810fc7f58b4c655c95ce40acd3b6020604051428152a2005b60405162461bcd60e51b815260206004820152600d60248201526c10d85b9b9bdd0818d85b98d95b609a1b6044820152606490fd5b6002915014846116f8565b60405162461bcd60e51b815260206004820152601560248201527427b7363c9031b932b0ba37b91037b91037bbb732b960591b6044820152606490fd5b905060015460081c163314836116d4565b5060025481106116a3565b3461021a57600036600319011261021a576117e6612041565b60018054610100600160a81b0319811690915560009060081c6001600160a01b03167f8be0079c531659141344cd1fd0a4f28419497f9722a3daafe3b4186f6b6457e08280a3005b3461021a57602036600319011261021a5760043561184a612041565b8015158061187a575b61185c90611eb7565b6000908152600460205260409020600701805460ff19166005179055005b506002548110611853565b3461021a57600036600319011261021a57602060ff600154166040519015158152f35b3461021a57600036600319011261021a576020600254604051908152f35b3461021a57600036600319011261021a576118df612041565b60015460ff81161561191e5760ff19166001557f5db9ee0a495bf2e6ff9c91a7834c1ba4fdd244a5e8aa4e537bd38aeae4b073aa6020604051338152a1005b604051638dfc202b60e01b8152600490fd5b3461021a5760208060031936011261021a57600435801515806119bf575b61195790611eb7565b60005260066020526040600020906040519081602084549182815201936000526020600020916000905b8282106119a8576119a48561199881890382611ce9565b60405191829182611dc6565b0390f35b835486529485019460019384019390910190611981565b50600254811061194e565b3461021a5760208060031936011261021a576001600160a01b036119ec611db0565b1660005260076020526040600020906040519081602084549182815201936000526020600020916000905b828210611a2e576119a48561199881890382611ce9565b835486529485019460019384019390910190611a17565b3461021a57602036600319011261021a576004356000526005602052604060002080546119a4600183015492600281015490600381015460ff6005611a8c60048501611d0b565b930154169260405196879660ff8260a01c169160018060a01b03169088611c61565b3461021a57600036600319011261021a576020600854604051908152f35b3461021a57602036600319011261021a5760043580151580611b9d575b611af290611eb7565b8060005260046020526040600020600781019081549060ff82169060068210156104f457611b24600160059314611efb565b01544210611b615760029060ff19161790557e0b6feae4bec70344a7d0e99f4c0237adaaeee2fbb258266be400bd8612a3326020604051428152a2005b60405162461bcd60e51b815260206004820152601460248201527313585c9ad95d081b9bdd081e595d08195b99195960621b6044820152606490fd5b506002548110611ae9565b3461021a57602036600319011261021a576004356000526005602052604060002080546119a460018301549260028101546003820154611bf2600460ff6005860154169401611d0b565b60405196879691939160a082901c60ff16916001600160a01b03169088611c61565b9060028210156104f45752565b919082519283825260005b848110611c4d575050826000602080949584010152601f8019910116010190565b602081830181015184830182015201611c2c565b9592611c8c9060c09693611ca796939a999a895260018060a01b031660208901526040880190611c14565b6060860152608085015260e060a085015260e0840190611c21565b931515910152565b90600182811c92168015611cdf575b6020831014611cc957565b634e487b7160e01b600052602260045260246000fd5b91607f1691611cbe565b90601f8019910116810190811067ffffffffffffffff82111761099f57604052565b90604051918260008254611d1e81611caf565b90818452602094600191600181169081600014611d8e5750600114611d4f575b505050611d4d92500383611ce9565b565b600090815285812095935091905b818310611d76575050611d4d9350820101388080611d3e565b85548884018501529485019487945091830191611d5d565b92505050611d4d94925060ff191682840152151560051b820101388080611d3e565b600435906001600160a01b038216820361021a57565b602090602060408183019282815285518094520193019160005b828110611dee575050505090565b835185529381019392810192600101611de0565b8054821015611e1a5760005260206000200190600090565b634e487b7160e01b600052603260045260246000fd5b81601f8201121561021a5780359067ffffffffffffffff821161099f5760405192611e65601f8401601f191660200185611ce9565b8284526020838301011161021a57816000926020809301838601378301015290565b9060068210156104f45752565b9060038210156104f45752565b604090600319011261021a576004359060243590565b15611ebe57565b60405162461bcd60e51b815260206004820152601560248201527413585c9ad95d08191bd95cc81b9bdd08195e1a5cdd605a1b6044820152606490fd5b15611f0257565b60405162461bcd60e51b81526020600482015260116024820152704d61726b6574206e6f742061637469766560781b6044820152606490fd5b15611f4257565b60405162461bcd60e51b815260206004820152600d60248201526c2737ba103132ba1037bbb732b960991b6044820152606490fd5b15611f7e57565b60405162461bcd60e51b815260206004820152600f60248201526e105b1c9958591e4818db185a5b5959608a1b6044820152606490fd5b91908201809211611fc257565b634e487b7160e01b600052601160045260246000fd5b81810292918115918404141715611fc257565b91908203918211611fc257565b6000198114611fc25760010190565b80546801000000000000000081101561099f5761202991600182018155611e02565b819291549060031b91821b91600019901b1916179055565b60015460081c6001600160a01b0316330361205857565b60405163118cdaa760e01b8152336004820152602490fd5b600260005414612081576002600055565b604051633ee5aeb560e01b8152600490fd5b60ff6001541661209f57565b60405163d93c066560e01b8152600490fdfea26469706673582212208f44eb81d8caf87176176e52c866fae7b28485bc7598abc86c49d87aa53c98b964736f6c63430008180033",
  "linkReferences": {},
  "deployedLinkReferences": {}
}