{
  "_format": "hh-sol-artifact-1",
  "contractName": "MarketFactory",
  "sourceName": "contracts/MarketFactory.sol",
  "abi": [
    {
      "inputs": [
        {
          "internalType": "address payable",
          "name": "_oracleMarkets",
          "type": "address"
        }
      ],
      "stateMutability": "nonpayable",
      "type": "constructor"
    },
    {
      "inputs": [
        {
          "internalType": "address",
          "name": "owner",
          "type": "address"
        }
      ],
      "name": "OwnableInvalidOwner",
      "type": "error"
    },
    {
      "inputs": [
        {
          "internalType": "address",
          "name": "account",
          "type": "address"
        }
      ],
      "name": "OwnableUnauthorizedAccount",
      "type": "error"
    },
    {
      "anonymous": false,
      "inputs": [
        {
          "indexed": true,
          "internalType": "address",
          "name": "oracleMarketsAddress",
          "type": "address"
        }
      ],
      "name": "MarketFactoryCreated",
      "type": "event"
    },
    {
      "anonymous": false,
      "inputs": [
        {
          "indexed": true,
          "internalType": "uint256",
          "name": "marketId",
          "type": "uint256"
        },
        {
          "indexed": true,
          "internalType": "address",
          "name": "creator",
          "type": "address"
        },
        {
          "indexed": false,
          "internalType": "string",
          "name": "category",
          "type": "string"
        }
      ],
      "name": "MarketRecorded",
      "type": "event"
    },
    {
      "anonymous": false,
      "inputs": [
        {
          "indexed": true,
          "internalType": "address",
          "name": "previousOwner",
          "type": "address"
        },
        {
          "indexed": true,
          "internalType": "address",
          "name": "newOwner",
          "type": "address"
        }
      ],
      "name": "OwnershipTransferred",
      "type": "event"
    },
    {
      "inputs": [
        {
          "internalType": "uint256",
          "name": "",
          "type": "uint256"
        }
      ],
      "name": "allMarkets",
      "outputs": [
        {
          "internalType": "uint256",
          "name": "id",
          "type": "uint256"
        },
        {
          "internalType": "address",
          "name": "creator",
          "type": "address"
        },
        {
          "internalType": "uint256",
          "name": "createdAt",
          "type": "uint256"
        },
        {
          "internalType": "string",
          "name": "category",
          "type": "string"
        }
      ],
      "stateMutability": "view",
      "type": "function"
    },
    {
      "inputs": [
        {
          "internalType": "string",
          "name": "",
          "type": "string"
        },
        {
          "internalType": "uint256",
          "name": "",
          "type": "uint256"
        }
      ],
      "name": "categoryMarkets",
      "outputs": [
        {
          "internalType": "uint256",
          "name": "",
          "type": "uint256"
        }
      ],
      "stateMutability": "view",
      "type": "function"
    },
    {
      "inputs": [
        {
          "internalType": "string",
          "name": "title",
          "type": "string"
        },
        {
          "internalType": "string",
          "name": "description",
          "type": "string"
        },
        {
          "internalType": "string",
          "name": "category",
          "type": "string"
        },
        {
          "internalType": "uint256",
          "name": "endTime",
          "type": "uint256"
        },
        {
          "internalType": "uint256",
          "name": "oddsYes",
          "type": "uint256"
        },
        {
          "internalType": "uint256",
          "name": "oddsNo",
          "type": "uint256"
        }
      ],
      "name": "createMarket",
      "outputs": [
        {
          "internalType": "uint256",
          "name": "",
          "type": "uint256"
        }
      ],
      "stateMutability": "nonpayable",
      "type": "function"
    },
    {
      "inputs": [
        {
          "internalType": "address",
          "name": "",
          "type": "address"
        },
        {
          "internalType": "uint256",
          "name": "",
          "type": "uint256"
        }
      ],
      "name": "creatorMarkets",
      "outputs": [
        {
          "internalType": "uint256",
          "name": "",
          "type": "uint256"
        }
      ],
      "stateMutability": "view",
      "type": "function"
    },
    {
      "inputs": [],
      "name": "getAllMarkets",
      "outputs": [
        {
          "components": [
            {
              "internalType": "uint256",
              "name": "id",
              "type": "uint256"
            },
            {
              "internalType": "address",
              "name": "creator",
              "type": "address"
            },
            {
              "internalType": "uint256",
              "name": "createdAt",
              "type": "uint256"
            },
            {
              "internalType": "string",
              "name": "category",
              "type": "string"
            }
          ],
          "internalType": "struct MarketFactory.MarketRecord[]",
          "name": "",
          "type": "tuple[]"
        }
      ],
      "stateMutability": "view",
      "type": "function"
    },
    {
      "inputs": [
        {
          "internalType": "string",
          "name": "category",
          "type": "string"
        }
      ],
      "name": "getMarketsByCategory",
      "outputs": [
        {
          "internalType": "uint256[]",
          "name": "",
          "type": "uint256[]"
        }
      ],
      "stateMutability": "view",
      "type": "function"
    },
    {
      "inputs": [
        {
          "internalType": "address",
          "name": "creator",
          "type": "address"
        }
      ],
      "name": "getMarketsByCreator",
      "outputs": [
        {
          "internalType": "uint256[]",
          "name": "",
          "type": "uint256[]"
        }
      ],
      "stateMutability": "view",
      "type": "function"
    },
    {
      "inputs": [],
      "name": "getTotalMarkets",
      "outputs": [
        {
          "internalType": "uint256",
          "name": "",
          "type": "uint256"
        }
      ],
      "stateMutability": "view",
      "type": "function"
    },
    {
      "inputs": [],
      "name": "oracleMarkets",
      "outputs": [
        {
          "internalType": "contract OracleMarkets",
          "name": "",
          "type": "address"
        }
      ],
      "stateMutability": "view",
      "type": "function"
    },
    {
      "inputs": [],
      "name": "owner",
      "outputs": [
        {
          "internalType": "address",
          "name": "",
          "type": "address"
        }
      ],
      "stateMutability": "view",
      "type": "function"
    },
    {
      "inputs": [],
      "name": "renounceOwnership",
      "outputs": [],
      "stateMutability": "nonpayable",
      "type": "function"
    },
    {
      "inputs": [
        {
          "internalType": "address",
          "name": "newOwner",
          "type": "address"
        }
      ],
      "name": "transferOwnership",
      "outputs": [],
      "stateMutability": "nonpayable",
      "type": "function"
    }
  ],
  "bytecode": "0x6080346100ec57601f610d7f38819003918201601f19168301916001600160401b038311848410176100f1578084926020946040528339810103126100ec57516001600160a01b0390818116908190036100ec5733156100d35760008054336001600160a01b031980831682178455604051957f2645dcffcce4e8ad5369b80fc5106d11d790c1a76f1937c0f7b746099076eb559493869391167f8be0079c531659141344cd1fd0a4f28419497f9722a3daafe3b4186f6b6457e08580a3600154161760015580a2610c7790816101088239f35b604051631e4fbdf760e01b815260006004820152602490fd5b600080fd5b634e487b7160e01b600052604160045260246000fdfe6080604081815260048036101561001557600080fd5b600092833560e01c908163153989401461092a575080633caa7e9e146108b157806352d84d1e1461083f578063715018a6146107e557806376e6caff1461074857806381ebf209146107295780638da5cb5b1461070157806399eb49b91461037b578063b0772d0b14610213578063ba1f5195146101ba578063e99c80bd146101305763f2fde38b146100a757600080fd5b3461012c57602036600319011261012c576100c0610bca565b906100c9610c15565b6001600160a01b0391821692831561011657505082546001600160a01b0319811683178455167f8be0079c531659141344cd1fd0a4f28419497f9722a3daafe3b4186f6b6457e08380a380f35b51631e4fbdf760e01b8152908101849052602490fd5b8280fd5b5050346101b657602090602060031936011261012c576001600160a01b03610156610bca565b168352600360205280832092815180936020865492838152019583526020832092905b82821061019f5761019b8686610191828b0383610981565b5191829182610b8e565b0390f35b835487529586019560019384019390910190610179565b5080fd5b5050346101b657806003193601126101b6576101d4610bca565b6001600160a01b03168252600360205280822080546024359390841015610210575060209261020291610a22565b90549060031b1c9051908152f35b80fd5b508290346101b657816003193601126101b65760029060025467ffffffffffffffff8111610368579290602093855191610252868360051b0184610981565b8183528583018095600286527f405787fa12a823e0f2b7631cc41b3ba8828b3321ca811111fa75cd3aa3bb5ace9086925b858410610314575050505050508451938085019181865251809252858501868360051b8701019493965b8388106102ba5786860387f35b90919293948380610303600193603f198b820301875289519060809082518152868060a01b03858401511685820152878301518882015281606080940151938201520190610b69565b9701930197019690939291936102ad565b848a6001928d809d9a9b9d519061032a8261094f565b87548252858060a01b03868901541684830152868801549082015261035160038801610ac4565b606082015281520193019301929198969598610283565b634e487b7160e01b845260418252602484fd5b509190346101b6576003199160c0368401126102105767ffffffffffffffff93803585811161012c576103b190369083016109a3565b916024358681116101b6576103c990369084016109a3565b946044359680881161012c576103e661041e9798369086016109a3565b9460018060a01b039260019161043e858454169261042e8b519d8e9d8e956399eb49b960e01b875260c08d88015260c4870190610b69565b9083868303016024870152610b69565b9083820301604484015289610b69565b916064356064830152608435608483015260a43560a4830152818760209d8e9503925af19788156106f75784986106c4575b50865161047c8161094f565b888152898101338152888201904282526060830195898752600254600160401b8110156106b15780866104b29201600255610a50565b94909461069f57906003949392915184558584019151166bffffffffffffffffffffffff60a01b825416179055516002820155019251805192831161068c579183918995936105028a9654610a8a565b601f8111610632575b508b90601f84116001146105bc5792808087948a97946105729c9a976105509a946105b1575b50501b916000199060031b1c19161790555b33815260038b5220610be0565b868551809286516105648184868b016109ff565b820190815203019020610be0565b827f91f781423d40f6014df2d41f37c750040d1282b52f77416de75c8ade0b88ff538351868152806105a8339589830190610b69565b0390a351908152f35b015192503880610531565b8486528c862098969594939190601f198316868f5b828210610617575050998996949284926105509997956105729d106105fe575b505050811b019055610543565b015160001960f88460031b161c191690553880806105f1565b848401518d559b86019b8f9b508e995093840193018f6105d1565b91939550919395508486528a8620601f850160051c8101918c8610610682575b918b97959391601f8c9896940160051c01905b818110610672575061050b565b8681558c98508b97508301610665565b9091508190610652565b634e487b7160e01b855260418652602485fd5b634e487b7160e01b8952888a52602489fd5b634e487b7160e01b895260418a52602489fd5b9097508881813d83116106f0575b6106dc8183610981565b810103126106ec57519638610470565b8380fd5b503d6106d2565b87513d86823e3d90fd5b5050346101b657816003193601126101b657905490516001600160a01b039091168152602090f35b5050346101b657816003193601126101b6576020906002549051908152f35b50903461012c57602091826003193601126106ec57803567ffffffffffffffff81116107e157610793916107808592369083016109a3565b90828551948386809551938492016109ff565b8201908152030190209281518093808654928381520195835280832092905b8282106107ca5761019b8686610191828b0383610981565b8354875295860195600193840193909101906107b2565b8480fd5b83346102105780600319360112610210576107fe610c15565b80546001600160a01b03198116825581906001600160a01b03167f8be0079c531659141344cd1fd0a4f28419497f9722a3daafe3b4186f6b6457e08280a380f35b508290346101b65760203660031901126101b6573590600254821015610210575061086990610a50565b509061019b82549160018060a01b0360018501541693610890600360028301549201610ac4565b91805195869586526020860152840152608060608401526080830190610b69565b509134610210578160031936011261021057823567ffffffffffffffff81116101b65760206108e66108fc92369087016109a3565b60243595828651948386809551938492016109ff565b820190815203019020908154841015610210575060209261091c91610a22565b91905490519160031b1c8152f35b8490346101b657816003193601126101b6576001546001600160a01b03168152602090f35b6080810190811067ffffffffffffffff82111761096b57604052565b634e487b7160e01b600052604160045260246000fd5b90601f8019910116810190811067ffffffffffffffff82111761096b57604052565b81601f820112156109fa5780359067ffffffffffffffff821161096b57604051926109d8601f8401601f191660200185610981565b828452602083830101116109fa57816000926020809301838601378301015290565b600080fd5b60005b838110610a125750506000910152565b8181015183820152602001610a02565b8054821015610a3a5760005260206000200190600090565b634e487b7160e01b600052603260045260246000fd5b600254811015610a3a57600260005260021b7f405787fa12a823e0f2b7631cc41b3ba8828b3321ca811111fa75cd3aa3bb5ace0190600090565b90600182811c92168015610aba575b6020831014610aa457565b634e487b7160e01b600052602260045260246000fd5b91607f1691610a99565b90604051918260008254610ad781610a8a565b90818452602094600191600181169081600014610b475750600114610b08575b505050610b0692500383610981565b565b600090815285812095935091905b818310610b2f575050610b069350820101388080610af7565b85548884018501529485019487945091830191610b16565b92505050610b0694925060ff191682840152151560051b820101388080610af7565b90602091610b82815180928185528580860191016109ff565b601f01601f1916010190565b602090602060408183019282815285518094520193019160005b828110610bb6575050505090565b835185529381019392810192600101610ba8565b600435906001600160a01b03821682036109fa57565b8054600160401b81101561096b57610bfd91600182018155610a22565b819291549060031b91821b91600019901b1916179055565b6000546001600160a01b03163303610c2957565b60405163118cdaa760e01b8152336004820152602490fdfea264697066735822122084edb2f69c86a32e9b9db05e01c21fc6793ede1f54831ece0dc9e851330869ba64736f6c63430008180033",
  "linkReferences": {},
  "deployedLinkReferences": {}
}