{
  "_format": "hh-sol-artifact-1",
  "contractName": "MarketTokenVault",
  "sourceName": "contracts/MarketTokenVault.sol",
  "abi": [
    {
      "inputs": [
        {
          "internalType": "address",
          "name": "_universalToken",
          "type": "address"
        }
      ],
      "stateMutability": "nonpayable",
      "type": "constructor"
    },
    {
      "inputs": [
        {
          "internalType": "address",
          "name": "owner",
          "type": "address"
        }
      ],
      "name": "OwnableInvalidOwner",
      "type": "error"
    },
    {
      "inputs": [
        {
          "internalType": "address",
          "name": "account",
          "type": "address"
        }
      ],
      "name": "OwnableUnauthorizedAccount",
      "type": "error"
    },
    {
      "inputs": [],
      "name": "ReentrancyGuardReentrantCall",
      "type": "error"
    },
    {
      "anonymous": false,
      "inputs": [
        {
          "indexed": true,
          "internalType": "address",
          "name": "user",
          "type": "address"
        },
        {
          "indexed": true,
          "internalType": "address",
          "name": "token",
          "type": "address"
        },
        {
          "indexed": false,
          "internalType": "uint256",
          "name": "amount",
          "type": "uint256"
        },
        {
          "indexed": false,
          "internalType": "string",
          "name": "destinationChain",
          "type": "string"
        }
      ],
      "name": "CrossChainBridgeInitiated",
      "type": "event"
    },
    {
      "anonymous": false,
      "inputs": [
        {
          "indexed": true,
          "internalType": "address",
          "name": "previousOwner",
          "type": "address"
        },
        {
          "indexed": true,
          "internalType": "address",
          "name": "newOwner",
          "type": "address"
        }
      ],
      "name": "OwnershipTransferred",
      "type": "event"
    },
    {
      "anonymous": false,
      "inputs": [
        {
          "indexed": true,
          "internalType": "address",
          "name": "token",
          "type": "address"
        },
        {
          "indexed": false,
          "internalType": "string",
          "name": "symbol",
          "type": "string"
        },
        {
          "indexed": false,
          "internalType": "string",
          "name": "originChain",
          "type": "string"
        }
      ],
      "name": "TokenAdded",
      "type": "event"
    },
    {
      "anonymous": false,
      "inputs": [
        {
          "indexed": true,
          "internalType": "address",
          "name": "user",
          "type": "address"
        },
        {
          "indexed": true,
          "internalType": "address",
          "name": "token",
          "type": "address"
        },
        {
          "indexed": false,
          "internalType": "uint256",
          "name": "amount",
          "type": "uint256"
        },
        {
          "indexed": false,
          "internalType": "string",
          "name": "originChain",
          "type": "string"
        }
      ],
      "name": "TokenDeposited",
      "type": "event"
    },
    {
      "anonymous": false,
      "inputs": [
        {
          "indexed": true,
          "internalType": "address",
          "name": "user",
          "type": "address"
        },
        {
          "indexed": true,
          "internalType": "address",
          "name": "token",
          "type": "address"
        },
        {
          "indexed": false,
          "internalType": "uint256",
          "name": "amount",
          "type": "uint256"
        },
        {
          "indexed": false,
          "internalType": "string",
          "name": "destinationChain",
          "type": "string"
        }
      ],
      "name": "TokenWithdrawn",
      "type": "event"
    },
    {
      "inputs": [
        {
          "internalType": "address",
          "name": "token",
          "type": "address"
        },
        {
          "internalType": "string",
          "name": "symbol",
          "type": "string"
        },
        {
          "internalType": "uint8",
          "name": "decimals",
          "type": "uint8"
        },
        {
          "internalType": "string",
          "name": "originChain",
          "type": "string"
        }
      ],
      "name": "addSupportedToken",
      "outputs": [],
      "stateMutability": "nonpayable",
      "type": "function"
    },
    {
      "inputs": [
        {
          "internalType": "string",
          "name": "originChain",
          "type": "string"
        }
      ],
      "name": "depositNative",
      "outputs": [],
      "stateMutability": "payable",
      "type": "function"
    },
    {
      "inputs": [
        {
          "internalType": "address",
          "name": "token",
          "type": "address"
        },
        {
          "internalType": "uint256",
          "name": "amount",
          "type": "uint256"
        },
        {
          "internalType": "string",
          "name": "originChain",
          "type": "string"
        }
      ],
      "name": "depositToken",
      "outputs": [],
      "stateMutability": "nonpayable",
      "type": "function"
    },
    {
      "inputs": [
        {
          "internalType": "address",
          "name": "user",
          "type": "address"
        },
        {
          "internalType": "address",
          "name": "token",
          "type": "address"
        }
      ],
      "name": "getBalance",
      "outputs": [
        {
          "internalType": "uint256",
          "name": "",
          "type": "uint256"
        }
      ],
      "stateMutability": "view",
      "type": "function"
    },
    {
      "inputs": [],
      "name": "getSupportedTokens",
      "outputs": [
        {
          "internalType": "address[]",
          "name": "",
          "type": "address[]"
        }
      ],
      "stateMutability": "view",
      "type": "function"
    },
    {
      "inputs": [
        {
          "internalType": "address",
          "name": "token",
          "type": "address"
        }
      ],
      "name": "getTokenInfo",
      "outputs": [
        {
          "components": [
            {
              "internalType": "address",
              "name": "tokenAddress",
              "type": "address"
            },
            {
              "internalType": "string",
              "name": "symbol",
              "type": "string"
            },
            {
              "internalType": "uint8",
              "name": "decimals",
              "type": "uint8"
            },
            {
              "internalType": "string",
              "name": "originChain",
              "type": "string"
            },
            {
              "internalType": "bool",
              "name": "isSupported",
              "type": "bool"
            }
          ],
          "internalType": "struct MarketTokenVault.TokenInfo",
          "name": "",
          "type": "tuple"
        }
      ],
      "stateMutability": "view",
      "type": "function"
    },
    {
      "inputs": [],
      "name": "owner",
      "outputs": [
        {
          "internalType": "address",
          "name": "",
          "type": "address"
        }
      ],
      "stateMutability": "view",
      "type": "function"
    },
    {
      "inputs": [],
      "name": "renounceOwnership",
      "outputs": [],
      "stateMutability": "nonpayable",
      "type": "function"
    },
    {
      "inputs": [
        {
          "internalType": "address",
          "name": "",
          "type": "address"
        }
      ],
      "name": "supportedTokens",
      "outputs": [
        {
          "internalType": "address",
          "name": "tokenAddress",
          "type": "address"
        },
        {
          "internalType": "string",
          "name": "symbol",
          "type": "string"
        },
        {
          "internalType": "uint8",
          "name": "decimals",
          "type": "uint8"
        },
        {
          "internalType": "string",
          "name": "originChain",
          "type": "string"
        },
        {
          "internalType": "bool",
          "name": "isSupported",
          "type": "bool"
        }
      ],
      "stateMutability": "view",
      "type": "function"
    },
    {
      "inputs": [
        {
          "internalType": "uint256",
          "name": "",
          "type": "uint256"
        }
      ],
      "name": "tokenList",
      "outputs": [
        {
          "internalType": "address",
          "name": "",
          "type": "address"
        }
      ],
      "stateMutability": "view",
      "type": "function"
    },
    {
      "inputs": [
        {
          "internalType": "address",
          "name": "newOwner",
          "type": "address"
        }
      ],
      "name": "transferOwnership",
      "outputs": [],
      "stateMutability": "nonpayable",
      "type": "function"
    },
    {
      "inputs": [],
      "name": "universalToken",
      "outputs": [
        {
          "internalType": "address",
          "name": "",
          "type": "address"
        }
      ],
      "stateMutability": "view",
      "type": "function"
    },
    {
      "inputs": [
        {
          "internalType": "address",
          "name": "",
          "type": "address"
        },
        {
          "internalType": "address",
          "name": "",
          "type": "address"
        }
      ],
      "name": "userBalances",
      "outputs": [
        {
          "internalType": "uint256",
          "name": "",
          "type": "uint256"
        }
      ],
      "stateMutability": "view",
      "type": "function"
    },
    {
      "inputs": [
        {
          "internalType": "uint256",
          "name": "amount",
          "type": "uint256"
        },
        {
          "internalType": "string",
          "name": "destinationChain",
          "type": "string"
        }
      ],
      "name": "withdrawNative",
      "outputs": [],
      "stateMutability": "nonpayable",
      "type": "function"
    },
    {
      "inputs": [
        {
          "internalType": "address",
          "name": "token",
          "type": "address"
        },
        {
          "internalType": "uint256",
          "name": "amount",
          "type": "uint256"
        },
        {
          "internalType": "string",
          "name": "destinationChain",
          "type": "string"
        }
      ],
      "name": "withdrawToken",
      "outputs": [],
      "stateMutability": "nonpayable",
      "type": "function"
    },
    {
      "stateMutability": "payable",
      "type": "receive"
    }
  ],
  "bytecode": "0x60a0346100cc57601f61136338819003918201601f19168301916001600160401b038311848410176100d1578084926020946040528339810103126100cc57516001600160a01b039081811681036100cc57600160005533156100b35760018054336001600160a01b03198216811790925560405193167f8be0079c531659141344cd1fd0a4f28419497f9722a3daafe3b4186f6b6457e0600080a360805261127b90816100e88239608051816105ef0152f35b604051631e4fbdf760e01b815260006004820152602490fd5b600080fd5b634e487b7160e01b600052604160045260246000fdfe60806040526004361015610042575b361561001957600080fd5b336000526002602052604060002060008052602052604060002061003e3482546111e9565b9055005b60003560e01c806314eaa43b14610c945780631f69565f14610b9257806368c4ac2614610af6578063715018a614610a9957806379da58fc146109a25780638da5cb5b146109795780639ead722214610937578063a10d0960146107e3578063adb51980146106ca578063d3c7c2c71461071b578063d4fac45d146106ca578063d51ba8f61461061e578063e99d2db4146105d9578063ef662a131461017f5763f2fde38b0361000e573461017a57602036600319011261017a57610105610eb7565b61010d611219565b6001600160a01b0390811690811561016157600154826bffffffffffffffffffffffff60a01b821617600155167f8be0079c531659141344cd1fd0a4f28419497f9722a3daafe3b4186f6b6457e0600080a3005b604051631e4fbdf760e01b815260006004820152602490fd5b600080fd5b3461017a57608036600319011261017a57610198610eb7565b60243567ffffffffffffffff811161017a576101b8903690600401610f21565b6044359160ff831680930361017a5760643567ffffffffffffffff811161017a576101e7903690600401610f21565b926101f0611219565b6001600160a01b03821660009081526003602052604090206004015460ff166105a0576040519061022082610ee3565b6001600160a01b038381168084526020808501878152604080870195909552606086018990526001608087015260009283526003909152929020835181546001600160a01b0319169216919091178155905180519067ffffffffffffffff82116103f35781906102936001850154610ffe565b601f811161054d575b50602090601f83116001146104db576000926104d0575b50508160011b916000199060031b1c19161760018201555b6002810160ff60408401511660ff19825416179055606082015180519067ffffffffffffffff82116103f3576103046003840154610ffe565b601f8111610489575b50602090601f831160011461041457918060809492600494600092610409575b50508160011b916000199060031b1c19161760038201555b01910151151560ff8019835416911617905560045491680100000000000000008310156103f3576103ee6103d5926103a48560017f2fb34ce114a136590b874d8cf80e7652adda576578bacfa4f8023f720f56939497016004556110dd565b81546001600160a01b0384811660039390931b92831b921b1916179055604080518181529485949091850190610fbe565b83810360208501526001600160a01b0390911695610fbe565b0390a2005b634e487b7160e01b600052604160045260246000fd5b01519050898061032d565b906003840160005260206000209160005b601f19851681106104715750926080949260019260049583601f19811610610458575b505050811b016003820155610345565b015160001960f88460031b161c19169055898080610448565b91926020600181928685015181550194019201610425565b600384016000526020600020601f840160051c8101602085106104c9575b601f830160051c820181106104bd57505061030d565b600081556001016104a7565b50806104a7565b0151905087806102b3565b9250600184016000526020600020906000935b601f1984168510610532576001945083601f19811610610519575b505050811b0160018201556102cb565b015160001960f88460031b161c19169055878080610509565b818101518355602094850194600190930192909101906104ee565b909150600184016000526020600020601f840160051c810160208510610599575b90849392915b601f830160051c8201811061058a57505061029c565b60008155859450600101610574565b508061056e565b60405162461bcd60e51b8152602060048201526011602482015270105b1c9958591e481cdd5c1c1bdc9d1959607a1b6044820152606490fd5b3461017a57600036600319011261017a576040517f00000000000000000000000000000000000000000000000000000000000000006001600160a01b03168152602090f35b602036600319011261017a5760043567ffffffffffffffff811161017a5761064c6000913690600401610f21565b6106546111f6565b61065f34151561116d565b338252600260205260408220828052602052604082206106803482546111e9565b90557f54e38dccf250c391e6b21fb74cb64843aee893b45c168229434bdefd91bbce1160405134815260406020820152806106c033946040830190610fbe565b0390a36001600055005b3461017a57604036600319011261017a576106e3610eb7565b6106eb610ecd565b9060018060a01b038091166000526002602052604060002091166000526020526020604060002054604051908152f35b3461017a57600036600319011261017a57604051806004548083526020809301809160046000527f8a35acfbc15ff81a39ae7d344fd709f28e8600b4aa8c65c6b64bfe7fe36bd19b9060005b868282106107c657868661077d82880383610eff565b604051928392818401908285525180915260408401929160005b8281106107a657505050500390f35b83516001600160a01b031685528695509381019392810192600101610797565b83546001600160a01b031685529093019260019283019201610767565b3461017a576107f136610f78565b90916107fb6111f6565b60018060a01b031691826000526020906003825260ff60046040600020015416156108fc5761082b81151561116d565b6040516323b872dd60e01b8152336004820152306024820152604481018290529180836064816000895af19081156108f0577f54e38dccf250c391e6b21fb74cb64843aee893b45c168229434bdefd91bbce11936040926108c3575b50336000526002815281600020866000528152816000206108a98482546111e9565b90558151928352820152806106c033946040830190610fbe565b6108e290823d84116108e9575b6108da8183610eff565b8101906111d1565b5086610887565b503d6108d0565b6040513d6000823e3d90fd5b60405162461bcd60e51b8152600481018390526013602482015272151bdad95b881b9bdd081cdd5c1c1bdc9d1959606a1b6044820152606490fd5b3461017a57602036600319011261017a5760043560045481101561017a576109606020916110dd565b905460405160039290921b1c6001600160a01b03168152f35b3461017a57600036600319011261017a576001546040516001600160a01b039091168152602090f35b3461017a57604036600319011261017a5760043560243567ffffffffffffffff811161017a576109d6903690600401610f21565b6109de6111f6565b336000526002602052604060002060008052602052610a0482604060002054101561112a565b818015610a11811561116d565b3360005260026020526040600020600080526020526040600020610a368382546111ae565b9055600090610a90575b600080809381933390f1156108f0577f446d7ae6db48779b81c4aa6836df8c2fc79176bcffa512f2a237fd124874b38b60009260405190815260406020820152806106c033946040830190610fbe565b506108fc610a40565b3461017a57600036600319011261017a57610ab2611219565b600180546001600160a01b031981169091556000906001600160a01b03167f8be0079c531659141344cd1fd0a4f28419497f9722a3daafe3b4186f6b6457e08280a3005b3461017a57602036600319011261017a576001600160a01b0380610b18610eb7565b166000526003602052604060002090815416610b3660018301611038565b91610b8660ff60028301541660ff6004610b5260038601611038565b9401541692610b73604051968796875260a0602088015260a0870190610fbe565b9160408601528482036060860152610fbe565b90151560808301520390f35b3461017a5760208060031936011261017a57610bac610eb7565b9060006080604051610bbd81610ee3565b828152606084820152826040820152606080820152015260018060a01b0380921660005260038152604060002090610c8760405192610bfb84610ee3565b848154168452610c0d60018201611038565b9083850191825260ff610c6d816002840154169360408801948552826004610c3760038701611038565b9560608b0196875201541696608089019715158852604051998a99828b525116908901525160a0604089015260c0880190610fbe565b925116606086015251848203601f19016080860152610fbe565b9051151560a08301520390f35b3461017a57610ca236610f78565b90610cab6111f6565b336000526020906002825260406000209360018060a01b031693846000528252610cdc81604060002054101561112a565b610ce781151561116d565b336000526002825260406000208460005282526040600020610d0a8282546111ae565b905582518284012060405190604082019180831067ffffffffffffffff8411176103f357846b6569703135353a343231303160a01b917f3d6bc1f1d3fb03065860265a8e93840b586e57075d956cd41b4319d040be87f994604052600c8152015214600014610e005760405163a9059cbb60e01b8152336004820152602481018290529180836044816000895af19081156108f0577f446d7ae6db48779b81c4aa6836df8c2fc79176bcffa512f2a237fd124874b38b93604092610de3575b505b8151928352820152806106c033946040830190610fbe565b610df990823d84116108e9576108da8183610eff565b5086610dc9565b60405163a9059cbb60e01b8152336004820152602481018290529180836044816000895af19081156108f0577f446d7ae6db48779b81c4aa6836df8c2fc79176bcffa512f2a237fd124874b38b93604092610e9a575b5085825184815283838201527f4cb628cbcf365b54b7dc9a41973c7985d5edb519ba05f335c100407263f526a6339180610e928782018b610fbe565b0390a3610dcb565b610eb090823d84116108e9576108da8183610eff565b5086610e56565b600435906001600160a01b038216820361017a57565b602435906001600160a01b038216820361017a57565b60a0810190811067ffffffffffffffff8211176103f357604052565b90601f8019910116810190811067ffffffffffffffff8211176103f357604052565b81601f8201121561017a5780359067ffffffffffffffff82116103f35760405192610f56601f8401601f191660200185610eff565b8284526020838301011161017a57816000926020809301838601378301015290565b606060031982011261017a576004356001600160a01b038116810361017a5791602435916044359067ffffffffffffffff821161017a57610fbb91600401610f21565b90565b919082519283825260005b848110610fea575050826000602080949584010152601f8019910116010190565b602081830181015184830182015201610fc9565b90600182811c9216801561102e575b602083101461101857565b634e487b7160e01b600052602260045260246000fd5b91607f169161100d565b9060405191826000825461104b81610ffe565b908184526020946001916001811690816000146110bb575060011461107c575b50505061107a92500383610eff565b565b600090815285812095935091905b8183106110a357505061107a935082010138808061106b565b8554888401850152948501948794509183019161108a565b9250505061107a94925060ff191682840152151560051b82010138808061106b565b6004548110156111145760046000527f8a35acfbc15ff81a39ae7d344fd709f28e8600b4aa8c65c6b64bfe7fe36bd19b0190600090565b634e487b7160e01b600052603260045260246000fd5b1561113157565b60405162461bcd60e51b8152602060048201526014602482015273496e73756666696369656e742062616c616e636560601b6044820152606490fd5b1561117457565b60405162461bcd60e51b81526020600482015260126024820152710416d6f756e74206d757374206265203e20360741b6044820152606490fd5b919082039182116111bb57565b634e487b7160e01b600052601160045260246000fd5b9081602091031261017a5751801515810361017a5790565b919082018092116111bb57565b600260005414611207576002600055565b604051633ee5aeb560e01b8152600490fd5b6001546001600160a01b0316330361122d57565b60405163118cdaa760e01b8152336004820152602490fdfea2646970667358221220f08d05d578cd9922d26452bf1dfcc3334df48b123e6ce16114d4d0ddb87e460364736f6c63430008180033",
  "linkReferences": {},
  "deployedLinkReferences": {}
}