{"contracts/MarketTokenVault.sol":{"MarketTokenVault":{"abi":[{"inputs":[{"internalType":"address","name":"_universalToken","type":"address"}],"stateMutability":"nonpayable","type":"constructor"},{"inputs":[{"internalType":"address","name":"owner","type":"address"}],"name":"OwnableInvalidOwner","type":"error"},{"inputs":[{"internalType":"address","name":"account","type":"address"}],"name":"OwnableUnauthorizedAccount","type":"error"},{"inputs":[],"name":"ReentrancyGuardReentrantCall","type":"error"},{"anonymous":false,"inputs":[{"indexed":true,"internalType":"address","name":"user","type":"address"},{"indexed":true,"internalType":"address","name":"token","type":"address"},{"indexed":false,"internalType":"uint256","name":"amount","type":"uint256"},{"indexed":false,"internalType":"string","name":"destinationChain","type":"string"}],"name":"CrossChainBridgeInitiated","type":"event"},{"anonymous":false,"inputs":[{"indexed":true,"internalType":"address","name":"previousOwner","type":"address"},{"indexed":true,"internalType":"address","name":"newOwner","type":"address"}],"name":"OwnershipTransferred","type":"event"},{"anonymous":false,"inputs":[{"indexed":true,"internalType":"address","name":"token","type":"address"},{"indexed":false,"internalType":"string","name":"symbol","type":"string"},{"indexed":false,"internalType":"string","name":"originChain","type":"string"}],"name":"TokenAdded","type":"event"},{"anonymous":false,"inputs":[{"indexed":true,"internalType":"address","name":"user","type":"address"},{"indexed":true,"internalType":"address","name":"token","type":"address"},{"indexed":false,"internalType":"uint256","name":"amount","type":"uint256"},{"indexed":false,"internalType":"string","name":"originChain","type":"string"}],"name":"TokenDeposited","type":"event"},{"anonymous":false,"inputs":[{"indexed":true,"internalType":"address","name":"user","type":"address"},{"indexed":true,"internalType":"address","name":"token","type":"address"},{"indexed":false,"internalType":"uint256","name":"amount","type":"uint256"},{"indexed":false,"internalType":"string","name":"destinationChain","type":"string"}],"name":"TokenWithdrawn","type":"event"},{"inputs":[{"internalType":"address","name":"token","type":"address"},{"internalType":"string","name":"symbol","type":"string"},{"internalType":"uint8","name":"decimals","type":"uint8"},{"internalType":"string","name":"originChain","type":"string"}],"name":"addSupportedToken","outputs":[],"stateMutability":"nonpayable","type":"function"},{"inputs":[{"internalType":"string","name":"originChain","type":"string"}],"name":"depositNative","outputs":[],"stateMutability":"payable","type":"function"},{"inputs":[{"internalType":"address","name":"token","type":"address"},{"internalType":"uint256","name":"amount","type":"uint256"},{"internalType":"string","name":"originChain","type":"string"}],"name":"depositToken","outputs":[],"stateMutability":"nonpayable","type":"function"},{"inputs":[{"internalType":"address","name":"user","type":"address"},{"internalType":"address","name":"token","type":"address"}],"name":"getBalance","outputs":[{"internalType":"uint256","name":"","type":"uint256"}],"stateMutability":"view","type":"function"},{"inputs":[],"name":"getSupportedTokens","outputs":[{"internalType":"address[]","name":"","type":"address[]"}],"stateMutability":"view","type":"function"},{"inputs":[{"internalType":"address","name":"token","type":"address"}],"name":"getTokenInfo","outputs":[{"components":[{"internalType":"address","name":"tokenAddress","type":"address"},{"internalType":"string","name":"symbol","type":"string"},{"internalType":"uint8","name":"decimals","type":"uint8"},{"internalType":"string","name":"originChain","type":"string"},{"internalType":"bool","name":"isSupported","type":"bool"}],"internalType":"struct MarketTokenVault.TokenInfo","name":"","type":"tuple"}],"stateMutability":"view","type":"function"},{"inputs":[],"name":"owner","outputs":[{"internalType":"address","name":"","type":"address"}],"stateMutability":"view","type":"function"},{"inputs":[],"name":"renounceOwnership","outputs":[],"stateMutability":"nonpayable","type":"function"},{"inputs":[{"internalType":"address","name":"","type":"address"}],"name":"supportedTokens","outputs":[{"internalType":"address","name":"tokenAddress","type":"address"},{"internalType":"string","name":"symbol","type":"string"},{"internalType":"uint8","name":"decimals","type":"uint8"},{"internalType":"string","name":"originChain","type":"string"},{"internalType":"bool","name":"isSupported","type":"bool"}],"stateMutability":"view","type":"function"},{"inputs":[{"internalType":"uint256","name":"","type":"uint256"}],"name":"tokenList","outputs":[{"internalType":"address","name":"","type":"address"}],"stateMutability":"view","type":"function"},{"inputs":[{"internalType":"address","name":"newOwner","type":"address"}],"name":"transferOwnership","outputs":[],"stateMutability":"nonpayable","type":"function"},{"inputs":[],"name":"universalToken","outputs":[{"internalType":"address","name":"","type":"address"}],"stateMutability":"view","type":"function"},{"inputs":[{"internalType":"address","name":"","type":"address"},{"internalType":"address","name":"","type":"address"}],"name":"userBalances","outputs":[{"internalType":"uint256","name":"","type":"uint256"}],"stateMutability":"view","type":"function"},{"inputs":[{"internalType":"uint256","name":"amount","type":"uint256"},{"internalType":"string","name":"destinationChain","type":"string"}],"name":"withdrawNative","outputs":[],"stateMutability":"nonpayable","type":"function"},{"inputs":[{"internalType":"address","name":"token","type":"address"},{"internalType":"uint256","name":"amount","type":"uint256"},{"internalType":"string","name":"destinationChain","type":"string"}],"name":"withdrawToken","outputs":[],"stateMutability":"nonpayable","type":"function"},{"stateMutability":"payable","type":"receive"}],"evm":{"bytecode":{"linkReferences":{},"object":"60a0346100cc57601f61136338819003918201601f19168301916001600160401b038311848410176100d1578084926020946040528339810103126100cc57516001600160a01b039081811681036100cc57600160005533156100b35760018054336001600160a01b03198216811790925560405193167f8be0079c531659141344cd1fd0a4f28419497f9722a3daafe3b4186f6b6457e0600080a360805261127b90816100e88239608051816105ef0152f35b604051631e4fbdf760e01b815260006004820152602490fd5b600080fd5b634e487b7160e01b600052604160045260246000fdfe60806040526004361015610042575b361561001957600080fd5b336000526002602052604060002060008052602052604060002061003e3482546111e9565b9055005b60003560e01c806314eaa43b14610c945780631f69565f14610b9257806368c4ac2614610af6578063715018a614610a9957806379da58fc146109a25780638da5cb5b146109795780639ead722214610937578063a10d0960146107e3578063adb51980146106ca578063d3c7c2c71461071b578063d4fac45d146106ca578063d51ba8f61461061e578063e99d2db4146105d9578063ef662a131461017f5763f2fde38b0361000e573461017a57602036600319011261017a57610105610eb7565b61010d611219565b6001600160a01b0390811690811561016157600154826bffffffffffffffffffffffff60a01b821617600155167f8be0079c531659141344cd1fd0a4f28419497f9722a3daafe3b4186f6b6457e0600080a3005b604051631e4fbdf760e01b815260006004820152602490fd5b600080fd5b3461017a57608036600319011261017a57610198610eb7565b60243567ffffffffffffffff811161017a576101b8903690600401610f21565b6044359160ff831680930361017a5760643567ffffffffffffffff811161017a576101e7903690600401610f21565b926101f0611219565b6001600160a01b03821660009081526003602052604090206004015460ff166105a0576040519061022082610ee3565b6001600160a01b038381168084526020808501878152604080870195909552606086018990526001608087015260009283526003909152929020835181546001600160a01b0319169216919091178155905180519067ffffffffffffffff82116103f35781906102936001850154610ffe565b601f811161054d575b50602090601f83116001146104db576000926104d0575b50508160011b916000199060031b1c19161760018201555b6002810160ff60408401511660ff19825416179055606082015180519067ffffffffffffffff82116103f3576103046003840154610ffe565b601f8111610489575b50602090601f831160011461041457918060809492600494600092610409575b50508160011b916000199060031b1c19161760038201555b01910151151560ff8019835416911617905560045491680100000000000000008310156103f3576103ee6103d5926103a48560017f2fb34ce114a136590b874d8cf80e7652adda576578bacfa4f8023f720f56939497016004556110dd565b81546001600160a01b0384811660039390931b92831b921b1916179055604080518181529485949091850190610fbe565b83810360208501526001600160a01b0390911695610fbe565b0390a2005b634e487b7160e01b600052604160045260246000fd5b01519050898061032d565b906003840160005260206000209160005b601f19851681106104715750926080949260019260049583601f19811610610458575b505050811b016003820155610345565b015160001960f88460031b161c19169055898080610448565b91926020600181928685015181550194019201610425565b600384016000526020600020601f840160051c8101602085106104c9575b601f830160051c820181106104bd57505061030d565b600081556001016104a7565b50806104a7565b0151905087806102b3565b9250600184016000526020600020906000935b601f1984168510610532576001945083601f19811610610519575b505050811b0160018201556102cb565b015160001960f88460031b161c19169055878080610509565b818101518355602094850194600190930192909101906104ee565b909150600184016000526020600020601f840160051c810160208510610599575b90849392915b601f830160051c8201811061058a57505061029c565b60008155859450600101610574565b508061056e565b60405162461bcd60e51b8152602060048201526011602482015270105b1c9958591e481cdd5c1c1bdc9d1959607a1b6044820152606490fd5b3461017a57600036600319011261017a576040517f00000000000000000000000000000000000000000000000000000000000000006001600160a01b03168152602090f35b602036600319011261017a5760043567ffffffffffffffff811161017a5761064c6000913690600401610f21565b6106546111f6565b61065f34151561116d565b338252600260205260408220828052602052604082206106803482546111e9565b90557f54e38dccf250c391e6b21fb74cb64843aee893b45c168229434bdefd91bbce1160405134815260406020820152806106c033946040830190610fbe565b0390a36001600055005b3461017a57604036600319011261017a576106e3610eb7565b6106eb610ecd565b9060018060a01b038091166000526002602052604060002091166000526020526020604060002054604051908152f35b3461017a57600036600319011261017a57604051806004548083526020809301809160046000527f8a35acfbc15ff81a39ae7d344fd709f28e8600b4aa8c65c6b64bfe7fe36bd19b9060005b868282106107c657868661077d82880383610eff565b604051928392818401908285525180915260408401929160005b8281106107a657505050500390f35b83516001600160a01b031685528695509381019392810192600101610797565b83546001600160a01b031685529093019260019283019201610767565b3461017a576107f136610f78565b90916107fb6111f6565b60018060a01b031691826000526020906003825260ff60046040600020015416156108fc5761082b81151561116d565b6040516323b872dd60e01b8152336004820152306024820152604481018290529180836064816000895af19081156108f0577f54e38dccf250c391e6b21fb74cb64843aee893b45c168229434bdefd91bbce11936040926108c3575b50336000526002815281600020866000528152816000206108a98482546111e9565b90558151928352820152806106c033946040830190610fbe565b6108e290823d84116108e9575b6108da8183610eff565b8101906111d1565b5086610887565b503d6108d0565b6040513d6000823e3d90fd5b60405162461bcd60e51b8152600481018390526013602482015272151bdad95b881b9bdd081cdd5c1c1bdc9d1959606a1b6044820152606490fd5b3461017a57602036600319011261017a5760043560045481101561017a576109606020916110dd565b905460405160039290921b1c6001600160a01b03168152f35b3461017a57600036600319011261017a576001546040516001600160a01b039091168152602090f35b3461017a57604036600319011261017a5760043560243567ffffffffffffffff811161017a576109d6903690600401610f21565b6109de6111f6565b336000526002602052604060002060008052602052610a0482604060002054101561112a565b818015610a11811561116d565b3360005260026020526040600020600080526020526040600020610a368382546111ae565b9055600090610a90575b600080809381933390f1156108f0577f446d7ae6db48779b81c4aa6836df8c2fc79176bcffa512f2a237fd124874b38b60009260405190815260406020820152806106c033946040830190610fbe565b506108fc610a40565b3461017a57600036600319011261017a57610ab2611219565b600180546001600160a01b031981169091556000906001600160a01b03167f8be0079c531659141344cd1fd0a4f28419497f9722a3daafe3b4186f6b6457e08280a3005b3461017a57602036600319011261017a576001600160a01b0380610b18610eb7565b166000526003602052604060002090815416610b3660018301611038565b91610b8660ff60028301541660ff6004610b5260038601611038565b9401541692610b73604051968796875260a0602088015260a0870190610fbe565b9160408601528482036060860152610fbe565b90151560808301520390f35b3461017a5760208060031936011261017a57610bac610eb7565b9060006080604051610bbd81610ee3565b828152606084820152826040820152606080820152015260018060a01b0380921660005260038152604060002090610c8760405192610bfb84610ee3565b848154168452610c0d60018201611038565b9083850191825260ff610c6d816002840154169360408801948552826004610c3760038701611038565b9560608b0196875201541696608089019715158852604051998a99828b525116908901525160a0604089015260c0880190610fbe565b925116606086015251848203601f19016080860152610fbe565b9051151560a08301520390f35b3461017a57610ca236610f78565b90610cab6111f6565b336000526020906002825260406000209360018060a01b031693846000528252610cdc81604060002054101561112a565b610ce781151561116d565b336000526002825260406000208460005282526040600020610d0a8282546111ae565b905582518284012060405190604082019180831067ffffffffffffffff8411176103f357846b6569703135353a343231303160a01b917f3d6bc1f1d3fb03065860265a8e93840b586e57075d956cd41b4319d040be87f994604052600c8152015214600014610e005760405163a9059cbb60e01b8152336004820152602481018290529180836044816000895af19081156108f0577f446d7ae6db48779b81c4aa6836df8c2fc79176bcffa512f2a237fd124874b38b93604092610de3575b505b8151928352820152806106c033946040830190610fbe565b610df990823d84116108e9576108da8183610eff565b5086610dc9565b60405163a9059cbb60e01b8152336004820152602481018290529180836044816000895af19081156108f0577f446d7ae6db48779b81c4aa6836df8c2fc79176bcffa512f2a237fd124874b38b93604092610e9a575b5085825184815283838201527f4cb628cbcf365b54b7dc9a41973c7985d5edb519ba05f335c100407263f526a6339180610e928782018b610fbe565b0390a3610dcb565b610eb090823d84116108e9576108da8183610eff565b5086610e56565b600435906001600160a01b038216820361017a57565b602435906001600160a01b038216820361017a57565b60a0810190811067ffffffffffffffff8211176103f357604052565b90601f8019910116810190811067ffffffffffffffff8211176103f357604052565b81601f8201121561017a5780359067ffffffffffffffff82116103f35760405192610f56601f8401601f191660200185610eff565b8284526020838301011161017a57816000926020809301838601378301015290565b606060031982011261017a576004356001600160a01b038116810361017a5791602435916044359067ffffffffffffffff821161017a57610fbb91600401610f21565b90565b919082519283825260005b848110610fea575050826000602080949584010152601f8019910116010190565b602081830181015184830182015201610fc9565b90600182811c9216801561102e575b602083101461101857565b634e487b7160e01b600052602260045260246000fd5b91607f169161100d565b9060405191826000825461104b81610ffe565b908184526020946001916001811690816000146110bb575060011461107c575b50505061107a92500383610eff565b565b600090815285812095935091905b8183106110a357505061107a935082010138808061106b565b8554888401850152948501948794509183019161108a565b9250505061107a94925060ff191682840152151560051b82010138808061106b565b6004548110156111145760046000527f8a35acfbc15ff81a39ae7d344fd709f28e8600b4aa8c65c6b64bfe7fe36bd19b0190600090565b634e487b7160e01b600052603260045260246000fd5b1561113157565b60405162461bcd60e51b8152602060048201526014602482015273496e73756666696369656e742062616c616e636560601b6044820152606490fd5b1561117457565b60405162461bcd60e51b81526020600482015260126024820152710416d6f756e74206d757374206265203e20360741b6044820152606490fd5b919082039182116111bb57565b634e487b7160e01b600052601160045260246000fd5b9081602091031261017a5751801515810361017a5790565b919082018092116111bb57565b600260005414611207576002600055565b604051633ee5aeb560e01b8152600490fd5b6001546001600160a01b0316330361122d57565b60405163118cdaa760e01b8152336004820152602490fdfea2646970667358221220f08d05d578cd9922d26452bf1dfcc3334df48b123e6ce16114d4d0ddb87e460364736f6c63430008180033","opcodes":"PUSH1 0xA0 CALLVALUE PUSH2 0xCC JUMPI PUSH1 0x1F PUSH2 0x1363 CODESIZE DUP2 SWAP1 SUB SWAP2 DUP3 ADD PUSH1 0x1F NOT AND DUP4 ADD SWAP2 PUSH1 0x1 PUSH1 0x1 PUSH1 0x40 SHL SUB DUP4 GT DUP5 DUP5 LT OR PUSH2 0xD1 JUMPI DUP1 DUP5 SWAP3 PUSH1 0x20 SWAP5 PUSH1 0x40 MSTORE DUP4 CODECOPY DUP2 ADD SUB SLT PUSH2 0xCC JUMPI MLOAD PUSH1 0x1 PUSH1 0x1 PUSH1 0xA0 SHL SUB SWAP1 DUP2 DUP2 AND DUP2 SUB PUSH2 0xCC JUMPI PUSH1 0x1 PUSH1 0x0 SSTORE CALLER ISZERO PUSH2 0xB3 JUMPI PUSH1 0x1 DUP1 SLOAD CALLER PUSH1 0x1 PUSH1 0x1 PUSH1 0xA0 SHL SUB NOT DUP3 AND DUP2 OR SWAP1 SWAP3 SSTORE PUSH1 0x40 MLOAD SWAP4 AND PUSH32 0x8BE0079C531659141344CD1FD0A4F28419497F9722A3DAAFE3B4186F6B6457E0 PUSH1 0x0 DUP1 LOG3 PUSH1 0x80 MSTORE PUSH2 0x127B SWAP1 DUP2 PUSH2 0xE8 DUP3 CODECOPY PUSH1 0x80 MLOAD DUP2 PUSH2 0x5EF ADD MSTORE RETURN JUMPDEST PUSH1 0x40 MLOAD PUSH4 0x1E4FBDF7 PUSH1 0xE0 SHL DUP2 MSTORE PUSH1 0x0 PUSH1 0x4 DUP3 ADD MSTORE PUSH1 0x24 SWAP1 REVERT JUMPDEST PUSH1 0x0 DUP1 REVERT JUMPDEST PUSH4 0x4E487B71 PUSH1 0xE0 SHL PUSH1 0x0 MSTORE PUSH1 0x41 PUSH1 0x4 MSTORE PUSH1 0x24 PUSH1 0x0 REVERT INVALID PUSH1 0x80 PUSH1 0x40 MSTORE PUSH1 0x4 CALLDATASIZE LT ISZERO PUSH2 0x42 JUMPI JUMPDEST CALLDATASIZE ISZERO PUSH2 0x19 JUMPI PUSH1 0x0 DUP1 REVERT JUMPDEST CALLER PUSH1 0x0 MSTORE PUSH1 0x2 PUSH1 0x20 MSTORE PUSH1 0x40 PUSH1 0x0 KECCAK256 PUSH1 0x0 DUP1 MSTORE PUSH1 0x20 MSTORE PUSH1 0x40 PUSH1 0x0 KECCAK256 PUSH2 0x3E CALLVALUE DUP3 SLOAD PUSH2 0x11E9 JUMP JUMPDEST SWAP1 SSTORE STOP JUMPDEST PUSH1 0x0 CALLDATALOAD PUSH1 0xE0 SHR DUP1 PUSH4 0x14EAA43B EQ PUSH2 0xC94 JUMPI DUP1 PUSH4 0x1F69565F EQ PUSH2 0xB92 JUMPI DUP1 PUSH4 0x68C4AC26 EQ PUSH2 0xAF6 JUMPI DUP1 PUSH4 0x715018A6 EQ PUSH2 0xA99 JUMPI DUP1 PUSH4 0x79DA58FC EQ PUSH2 0x9A2 JUMPI DUP1 PUSH4 0x8DA5CB5B EQ PUSH2 0x979 JUMPI DUP1 PUSH4 0x9EAD7222 EQ PUSH2 0x937 JUMPI DUP1 PUSH4 0xA10D0960 EQ PUSH2 0x7E3 JUMPI DUP1 PUSH4 0xADB51980 EQ PUSH2 0x6CA JUMPI DUP1 PUSH4 0xD3C7C2C7 EQ PUSH2 0x71B JUMPI DUP1 PUSH4 0xD4FAC45D EQ PUSH2 0x6CA JUMPI DUP1 PUSH4 0xD51BA8F6 EQ PUSH2 0x61E JUMPI DUP1 PUSH4 0xE99D2DB4 EQ PUSH2 0x5D9 JUMPI DUP1 PUSH4 0xEF662A13 EQ PUSH2 0x17F JUMPI PUSH4 0xF2FDE38B SUB PUSH2 0xE JUMPI CALLVALUE PUSH2 0x17A JUMPI PUSH1 0x20 CALLDATASIZE PUSH1 0x3 NOT ADD SLT PUSH2 0x17A JUMPI PUSH2 0x105 PUSH2 0xEB7 JUMP JUMPDEST PUSH2 0x10D PUSH2 0x1219 JUMP JUMPDEST PUSH1 0x1 PUSH1 0x1 PUSH1 0xA0 SHL SUB SWAP1 DUP2 AND SWAP1 DUP2 ISZERO PUSH2 0x161 JUMPI PUSH1 0x1 SLOAD DUP3 PUSH12 0xFFFFFFFFFFFFFFFFFFFFFFFF PUSH1 0xA0 SHL DUP3 AND OR PUSH1 0x1 SSTORE AND PUSH32 0x8BE0079C531659141344CD1FD0A4F28419497F9722A3DAAFE3B4186F6B6457E0 PUSH1 0x0 DUP1 LOG3 STOP JUMPDEST PUSH1 0x40 MLOAD PUSH4 0x1E4FBDF7 PUSH1 0xE0 SHL DUP2 MSTORE PUSH1 0x0 PUSH1 0x4 DUP3 ADD MSTORE PUSH1 0x24 SWAP1 REVERT JUMPDEST PUSH1 0x0 DUP1 REVERT JUMPDEST CALLVALUE PUSH2 0x17A JUMPI PUSH1 0x80 CALLDATASIZE PUSH1 0x3 NOT ADD SLT PUSH2 0x17A JUMPI PUSH2 0x198 PUSH2 0xEB7 JUMP JUMPDEST PUSH1 0x24 CALLDATALOAD PUSH8 0xFFFFFFFFFFFFFFFF DUP2 GT PUSH2 0x17A JUMPI PUSH2 0x1B8 SWAP1 CALLDATASIZE SWAP1 PUSH1 0x4 ADD PUSH2 0xF21 JUMP JUMPDEST PUSH1 0x44 CALLDATALOAD SWAP2 PUSH1 0xFF DUP4 AND DUP1 SWAP4 SUB PUSH2 0x17A JUMPI PUSH1 0x64 CALLDATALOAD PUSH8 0xFFFFFFFFFFFFFFFF DUP2 GT PUSH2 0x17A JUMPI PUSH2 0x1E7 SWAP1 CALLDATASIZE SWAP1 PUSH1 0x4 ADD PUSH2 0xF21 JUMP JUMPDEST SWAP3 PUSH2 0x1F0 PUSH2 0x1219 JUMP JUMPDEST PUSH1 0x1 PUSH1 0x1 PUSH1 0xA0 SHL SUB DUP3 AND PUSH1 0x0 SWAP1 DUP2 MSTORE PUSH1 0x3 PUSH1 0x20 MSTORE PUSH1 0x40 SWAP1 KECCAK256 PUSH1 0x4 ADD SLOAD PUSH1 0xFF AND PUSH2 0x5A0 JUMPI PUSH1 0x40 MLOAD SWAP1 PUSH2 0x220 DUP3 PUSH2 0xEE3 JUMP JUMPDEST PUSH1 0x1 PUSH1 0x1 PUSH1 0xA0 SHL SUB DUP4 DUP2 AND DUP1 DUP5 MSTORE PUSH1 0x20 DUP1 DUP6 ADD DUP8 DUP2 MSTORE PUSH1 0x40 DUP1 DUP8 ADD SWAP6 SWAP1 SWAP6 MSTORE PUSH1 0x60 DUP7 ADD DUP10 SWAP1 MSTORE PUSH1 0x1 PUSH1 0x80 DUP8 ADD MSTORE PUSH1 0x0 SWAP3 DUP4 MSTORE PUSH1 0x3 SWAP1 SWAP2 MSTORE SWAP3 SWAP1 KECCAK256 DUP4 MLOAD DUP2 SLOAD PUSH1 0x1 PUSH1 0x1 PUSH1 0xA0 SHL SUB NOT AND SWAP3 AND SWAP2 SWAP1 SWAP2 OR DUP2 SSTORE SWAP1 MLOAD DUP1 MLOAD SWAP1 PUSH8 0xFFFFFFFFFFFFFFFF DUP3 GT PUSH2 0x3F3 JUMPI DUP2 SWAP1 PUSH2 0x293 PUSH1 0x1 DUP6 ADD SLOAD PUSH2 0xFFE JUMP JUMPDEST PUSH1 0x1F DUP2 GT PUSH2 0x54D JUMPI JUMPDEST POP PUSH1 0x20 SWAP1 PUSH1 0x1F DUP4 GT PUSH1 0x1 EQ PUSH2 0x4DB JUMPI PUSH1 0x0 SWAP3 PUSH2 0x4D0 JUMPI JUMPDEST POP POP DUP2 PUSH1 0x1 SHL SWAP2 PUSH1 0x0 NOT SWAP1 PUSH1 0x3 SHL SHR NOT AND OR PUSH1 0x1 DUP3 ADD SSTORE JUMPDEST PUSH1 0x2 DUP2 ADD PUSH1 0xFF PUSH1 0x40 DUP5 ADD MLOAD AND PUSH1 0xFF NOT DUP3 SLOAD AND OR SWAP1 SSTORE PUSH1 0x60 DUP3 ADD MLOAD DUP1 MLOAD SWAP1 PUSH8 0xFFFFFFFFFFFFFFFF DUP3 GT PUSH2 0x3F3 JUMPI PUSH2 0x304 PUSH1 0x3 DUP5 ADD SLOAD PUSH2 0xFFE JUMP JUMPDEST PUSH1 0x1F DUP2 GT PUSH2 0x489 JUMPI JUMPDEST POP PUSH1 0x20 SWAP1 PUSH1 0x1F DUP4 GT PUSH1 0x1 EQ PUSH2 0x414 JUMPI SWAP2 DUP1 PUSH1 0x80 SWAP5 SWAP3 PUSH1 0x4 SWAP5 PUSH1 0x0 SWAP3 PUSH2 0x409 JUMPI JUMPDEST POP POP DUP2 PUSH1 0x1 SHL SWAP2 PUSH1 0x0 NOT SWAP1 PUSH1 0x3 SHL SHR NOT AND OR PUSH1 0x3 DUP3 ADD SSTORE JUMPDEST ADD SWAP2 ADD MLOAD ISZERO ISZERO PUSH1 0xFF DUP1 NOT DUP4 SLOAD AND SWAP2 AND OR SWAP1 SSTORE PUSH1 0x4 SLOAD SWAP2 PUSH9 0x10000000000000000 DUP4 LT ISZERO PUSH2 0x3F3 JUMPI PUSH2 0x3EE PUSH2 0x3D5 SWAP3 PUSH2 0x3A4 DUP6 PUSH1 0x1 PUSH32 0x2FB34CE114A136590B874D8CF80E7652ADDA576578BACFA4F8023F720F569394 SWAP8 ADD PUSH1 0x4 SSTORE PUSH2 0x10DD JUMP JUMPDEST DUP2 SLOAD PUSH1 0x1 PUSH1 0x1 PUSH1 0xA0 SHL SUB DUP5 DUP2 AND PUSH1 0x3 SWAP4 SWAP1 SWAP4 SHL SWAP3 DUP4 SHL SWAP3 SHL NOT AND OR SWAP1 SSTORE PUSH1 0x40 DUP1 MLOAD DUP2 DUP2 MSTORE SWAP5 DUP6 SWAP5 SWAP1 SWAP2 DUP6 ADD SWAP1 PUSH2 0xFBE JUMP JUMPDEST DUP4 DUP2 SUB PUSH1 0x20 DUP6 ADD MSTORE PUSH1 0x1 PUSH1 0x1 PUSH1 0xA0 SHL SUB SWAP1 SWAP2 AND SWAP6 PUSH2 0xFBE JUMP JUMPDEST SUB SWAP1 LOG2 STOP JUMPDEST PUSH4 0x4E487B71 PUSH1 0xE0 SHL PUSH1 0x0 MSTORE PUSH1 0x41 PUSH1 0x4 MSTORE PUSH1 0x24 PUSH1 0x0 REVERT JUMPDEST ADD MLOAD SWAP1 POP DUP10 DUP1 PUSH2 0x32D JUMP JUMPDEST SWAP1 PUSH1 0x3 DUP5 ADD PUSH1 0x0 MSTORE PUSH1 0x20 PUSH1 0x0 KECCAK256 SWAP2 PUSH1 0x0 JUMPDEST PUSH1 0x1F NOT DUP6 AND DUP2 LT PUSH2 0x471 JUMPI POP SWAP3 PUSH1 0x80 SWAP5 SWAP3 PUSH1 0x1 SWAP3 PUSH1 0x4 SWAP6 DUP4 PUSH1 0x1F NOT DUP2 AND LT PUSH2 0x458 JUMPI JUMPDEST POP POP POP DUP2 SHL ADD PUSH1 0x3 DUP3 ADD SSTORE PUSH2 0x345 JUMP JUMPDEST ADD MLOAD PUSH1 0x0 NOT PUSH1 0xF8 DUP5 PUSH1 0x3 SHL AND SHR NOT AND SWAP1 SSTORE DUP10 DUP1 DUP1 PUSH2 0x448 JUMP JUMPDEST SWAP2 SWAP3 PUSH1 0x20 PUSH1 0x1 DUP2 SWAP3 DUP7 DUP6 ADD MLOAD DUP2 SSTORE ADD SWAP5 ADD SWAP3 ADD PUSH2 0x425 JUMP JUMPDEST PUSH1 0x3 DUP5 ADD PUSH1 0x0 MSTORE PUSH1 0x20 PUSH1 0x0 KECCAK256 PUSH1 0x1F DUP5 ADD PUSH1 0x5 SHR DUP2 ADD PUSH1 0x20 DUP6 LT PUSH2 0x4C9 JUMPI JUMPDEST PUSH1 0x1F DUP4 ADD PUSH1 0x5 SHR DUP3 ADD DUP2 LT PUSH2 0x4BD JUMPI POP POP PUSH2 0x30D JUMP JUMPDEST PUSH1 0x0 DUP2 SSTORE PUSH1 0x1 ADD PUSH2 0x4A7 JUMP JUMPDEST POP DUP1 PUSH2 0x4A7 JUMP JUMPDEST ADD MLOAD SWAP1 POP DUP8 DUP1 PUSH2 0x2B3 JUMP JUMPDEST SWAP3 POP PUSH1 0x1 DUP5 ADD PUSH1 0x0 MSTORE PUSH1 0x20 PUSH1 0x0 KECCAK256 SWAP1 PUSH1 0x0 SWAP4 JUMPDEST PUSH1 0x1F NOT DUP5 AND DUP6 LT PUSH2 0x532 JUMPI PUSH1 0x1 SWAP5 POP DUP4 PUSH1 0x1F NOT DUP2 AND LT PUSH2 0x519 JUMPI JUMPDEST POP POP POP DUP2 SHL ADD PUSH1 0x1 DUP3 ADD SSTORE PUSH2 0x2CB JUMP JUMPDEST ADD MLOAD PUSH1 0x0 NOT PUSH1 0xF8 DUP5 PUSH1 0x3 SHL AND SHR NOT AND SWAP1 SSTORE DUP8 DUP1 DUP1 PUSH2 0x509 JUMP JUMPDEST DUP2 DUP2 ADD MLOAD DUP4 SSTORE PUSH1 0x20 SWAP5 DUP6 ADD SWAP5 PUSH1 0x1 SWAP1 SWAP4 ADD SWAP3 SWAP1 SWAP2 ADD SWAP1 PUSH2 0x4EE JUMP JUMPDEST SWAP1 SWAP2 POP PUSH1 0x1 DUP5 ADD PUSH1 0x0 MSTORE PUSH1 0x20 PUSH1 0x0 KECCAK256 PUSH1 0x1F DUP5 ADD PUSH1 0x5 SHR DUP2 ADD PUSH1 0x20 DUP6 LT PUSH2 0x599 JUMPI JUMPDEST SWAP1 DUP5 SWAP4 SWAP3 SWAP2 JUMPDEST PUSH1 0x1F DUP4 ADD PUSH1 0x5 SHR DUP3 ADD DUP2 LT PUSH2 0x58A JUMPI POP POP PUSH2 0x29C JUMP JUMPDEST PUSH1 0x0 DUP2 SSTORE DUP6 SWAP5 POP PUSH1 0x1 ADD PUSH2 0x574 JUMP JUMPDEST POP DUP1 PUSH2 0x56E JUMP JUMPDEST PUSH1 0x40 MLOAD PUSH3 0x461BCD PUSH1 0xE5 SHL DUP2 MSTORE PUSH1 0x20 PUSH1 0x4 DUP3 ADD MSTORE PUSH1 0x11 PUSH1 0x24 DUP3 ADD MSTORE PUSH17 0x105B1C9958591E481CDD5C1C1BDC9D1959 PUSH1 0x7A SHL PUSH1 0x44 DUP3 ADD MSTORE PUSH1 0x64 SWAP1 REVERT JUMPDEST CALLVALUE PUSH2 0x17A JUMPI PUSH1 0x0 CALLDATASIZE PUSH1 0x3 NOT ADD SLT PUSH2 0x17A JUMPI PUSH1 0x40 MLOAD PUSH32 0x0 PUSH1 0x1 PUSH1 0x1 PUSH1 0xA0 SHL SUB AND DUP2 MSTORE PUSH1 0x20 SWAP1 RETURN JUMPDEST PUSH1 0x20 CALLDATASIZE PUSH1 0x3 NOT ADD SLT PUSH2 0x17A JUMPI PUSH1 0x4 CALLDATALOAD PUSH8 0xFFFFFFFFFFFFFFFF DUP2 GT PUSH2 0x17A JUMPI PUSH2 0x64C PUSH1 0x0 SWAP2 CALLDATASIZE SWAP1 PUSH1 0x4 ADD PUSH2 0xF21 JUMP JUMPDEST PUSH2 0x654 PUSH2 0x11F6 JUMP JUMPDEST PUSH2 0x65F CALLVALUE ISZERO ISZERO PUSH2 0x116D JUMP JUMPDEST CALLER DUP3 MSTORE PUSH1 0x2 PUSH1 0x20 MSTORE PUSH1 0x40 DUP3 KECCAK256 DUP3 DUP1 MSTORE PUSH1 0x20 MSTORE PUSH1 0x40 DUP3 KECCAK256 PUSH2 0x680 CALLVALUE DUP3 SLOAD PUSH2 0x11E9 JUMP JUMPDEST SWAP1 SSTORE PUSH32 0x54E38DCCF250C391E6B21FB74CB64843AEE893B45C168229434BDEFD91BBCE11 PUSH1 0x40 MLOAD CALLVALUE DUP2 MSTORE PUSH1 0x40 PUSH1 0x20 DUP3 ADD MSTORE DUP1 PUSH2 0x6C0 CALLER SWAP5 PUSH1 0x40 DUP4 ADD SWAP1 PUSH2 0xFBE JUMP JUMPDEST SUB SWAP1 LOG3 PUSH1 0x1 PUSH1 0x0 SSTORE STOP JUMPDEST CALLVALUE PUSH2 0x17A JUMPI PUSH1 0x40 CALLDATASIZE PUSH1 0x3 NOT ADD SLT PUSH2 0x17A JUMPI PUSH2 0x6E3 PUSH2 0xEB7 JUMP JUMPDEST PUSH2 0x6EB PUSH2 0xECD JUMP JUMPDEST SWAP1 PUSH1 0x1 DUP1 PUSH1 0xA0 SHL SUB DUP1 SWAP2 AND PUSH1 0x0 MSTORE PUSH1 0x2 PUSH1 0x20 MSTORE PUSH1 0x40 PUSH1 0x0 KECCAK256 SWAP2 AND PUSH1 0x0 MSTORE PUSH1 0x20 MSTORE PUSH1 0x20 PUSH1 0x40 PUSH1 0x0 KECCAK256 SLOAD PUSH1 0x40 MLOAD SWAP1 DUP2 MSTORE RETURN JUMPDEST CALLVALUE PUSH2 0x17A JUMPI PUSH1 0x0 CALLDATASIZE PUSH1 0x3 NOT ADD SLT PUSH2 0x17A JUMPI PUSH1 0x40 MLOAD DUP1 PUSH1 0x4 SLOAD DUP1 DUP4 MSTORE PUSH1 0x20 DUP1 SWAP4 ADD DUP1 SWAP2 PUSH1 0x4 PUSH1 0x0 MSTORE PUSH32 0x8A35ACFBC15FF81A39AE7D344FD709F28E8600B4AA8C65C6B64BFE7FE36BD19B SWAP1 PUSH1 0x0 JUMPDEST DUP7 DUP3 DUP3 LT PUSH2 0x7C6 JUMPI DUP7 DUP7 PUSH2 0x77D DUP3 DUP9 SUB DUP4 PUSH2 0xEFF JUMP JUMPDEST PUSH1 0x40 MLOAD SWAP3 DUP4 SWAP3 DUP2 DUP5 ADD SWAP1 DUP3 DUP6 MSTORE MLOAD DUP1 SWAP2 MSTORE PUSH1 0x40 DUP5 ADD SWAP3 SWAP2 PUSH1 0x0 JUMPDEST DUP3 DUP2 LT PUSH2 0x7A6 JUMPI POP POP POP POP SUB SWAP1 RETURN JUMPDEST DUP4 MLOAD PUSH1 0x1 PUSH1 0x1 PUSH1 0xA0 SHL SUB AND DUP6 MSTORE DUP7 SWAP6 POP SWAP4 DUP2 ADD SWAP4 SWAP3 DUP2 ADD SWAP3 PUSH1 0x1 ADD PUSH2 0x797 JUMP JUMPDEST DUP4 SLOAD PUSH1 0x1 PUSH1 0x1 PUSH1 0xA0 SHL SUB AND DUP6 MSTORE SWAP1 SWAP4 ADD SWAP3 PUSH1 0x1 SWAP3 DUP4 ADD SWAP3 ADD PUSH2 0x767 JUMP JUMPDEST CALLVALUE PUSH2 0x17A JUMPI PUSH2 0x7F1 CALLDATASIZE PUSH2 0xF78 JUMP JUMPDEST SWAP1 SWAP2 PUSH2 0x7FB PUSH2 0x11F6 JUMP JUMPDEST PUSH1 0x1 DUP1 PUSH1 0xA0 SHL SUB AND SWAP2 DUP3 PUSH1 0x0 MSTORE PUSH1 0x20 SWAP1 PUSH1 0x3 DUP3 MSTORE PUSH1 0xFF PUSH1 0x4 PUSH1 0x40 PUSH1 0x0 KECCAK256 ADD SLOAD AND ISZERO PUSH2 0x8FC JUMPI PUSH2 0x82B DUP2 ISZERO ISZERO PUSH2 0x116D JUMP JUMPDEST PUSH1 0x40 MLOAD PUSH4 0x23B872DD PUSH1 0xE0 SHL DUP2 MSTORE CALLER PUSH1 0x4 DUP3 ADD MSTORE ADDRESS PUSH1 0x24 DUP3 ADD MSTORE PUSH1 0x44 DUP2 ADD DUP3 SWAP1 MSTORE SWAP2 DUP1 DUP4 PUSH1 0x64 DUP2 PUSH1 0x0 DUP10 GAS CALL SWAP1 DUP2 ISZERO PUSH2 0x8F0 JUMPI PUSH32 0x54E38DCCF250C391E6B21FB74CB64843AEE893B45C168229434BDEFD91BBCE11 SWAP4 PUSH1 0x40 SWAP3 PUSH2 0x8C3 JUMPI JUMPDEST POP CALLER PUSH1 0x0 MSTORE PUSH1 0x2 DUP2 MSTORE DUP2 PUSH1 0x0 KECCAK256 DUP7 PUSH1 0x0 MSTORE DUP2 MSTORE DUP2 PUSH1 0x0 KECCAK256 PUSH2 0x8A9 DUP5 DUP3 SLOAD PUSH2 0x11E9 JUMP JUMPDEST SWAP1 SSTORE DUP2 MLOAD SWAP3 DUP4 MSTORE DUP3 ADD MSTORE DUP1 PUSH2 0x6C0 CALLER SWAP5 PUSH1 0x40 DUP4 ADD SWAP1 PUSH2 0xFBE JUMP JUMPDEST PUSH2 0x8E2 SWAP1 DUP3 RETURNDATASIZE DUP5 GT PUSH2 0x8E9 JUMPI JUMPDEST PUSH2 0x8DA DUP2 DUP4 PUSH2 0xEFF JUMP JUMPDEST DUP2 ADD SWAP1 PUSH2 0x11D1 JUMP JUMPDEST POP DUP7 PUSH2 0x887 JUMP JUMPDEST POP RETURNDATASIZE PUSH2 0x8D0 JUMP JUMPDEST PUSH1 0x40 MLOAD RETURNDATASIZE PUSH1 0x0 DUP3 RETURNDATACOPY RETURNDATASIZE SWAP1 REVERT JUMPDEST PUSH1 0x40 MLOAD PUSH3 0x461BCD PUSH1 0xE5 SHL DUP2 MSTORE PUSH1 0x4 DUP2 ADD DUP4 SWAP1 MSTORE PUSH1 0x13 PUSH1 0x24 DUP3 ADD MSTORE PUSH19 0x151BDAD95B881B9BDD081CDD5C1C1BDC9D1959 PUSH1 0x6A SHL PUSH1 0x44 DUP3 ADD MSTORE PUSH1 0x64 SWAP1 REVERT JUMPDEST CALLVALUE PUSH2 0x17A JUMPI PUSH1 0x20 CALLDATASIZE PUSH1 0x3 NOT ADD SLT PUSH2 0x17A JUMPI PUSH1 0x4 CALLDATALOAD PUSH1 0x4 SLOAD DUP2 LT ISZERO PUSH2 0x17A JUMPI PUSH2 0x960 PUSH1 0x20 SWAP2 PUSH2 0x10DD JUMP JUMPDEST SWAP1 SLOAD PUSH1 0x40 MLOAD PUSH1 0x3 SWAP3 SWAP1 SWAP3 SHL SHR PUSH1 0x1 PUSH1 0x1 PUSH1 0xA0 SHL SUB AND DUP2 MSTORE RETURN JUMPDEST CALLVALUE PUSH2 0x17A JUMPI PUSH1 0x0 CALLDATASIZE PUSH1 0x3 NOT ADD SLT PUSH2 0x17A JUMPI PUSH1 0x1 SLOAD PUSH1 0x40 MLOAD PUSH1 0x1 PUSH1 0x1 PUSH1 0xA0 SHL SUB SWAP1 SWAP2 AND DUP2 MSTORE PUSH1 0x20 SWAP1 RETURN JUMPDEST CALLVALUE PUSH2 0x17A JUMPI PUSH1 0x40 CALLDATASIZE PUSH1 0x3 NOT ADD SLT PUSH2 0x17A JUMPI PUSH1 0x4 CALLDATALOAD PUSH1 0x24 CALLDATALOAD PUSH8 0xFFFFFFFFFFFFFFFF DUP2 GT PUSH2 0x17A JUMPI PUSH2 0x9D6 SWAP1 CALLDATASIZE SWAP1 PUSH1 0x4 ADD PUSH2 0xF21 JUMP JUMPDEST PUSH2 0x9DE PUSH2 0x11F6 JUMP JUMPDEST CALLER PUSH1 0x0 MSTORE PUSH1 0x2 PUSH1 0x20 MSTORE PUSH1 0x40 PUSH1 0x0 KECCAK256 PUSH1 0x0 DUP1 MSTORE PUSH1 0x20 MSTORE PUSH2 0xA04 DUP3 PUSH1 0x40 PUSH1 0x0 KECCAK256 SLOAD LT ISZERO PUSH2 0x112A JUMP JUMPDEST DUP2 DUP1 ISZERO PUSH2 0xA11 DUP2 ISZERO PUSH2 0x116D JUMP JUMPDEST CALLER PUSH1 0x0 MSTORE PUSH1 0x2 PUSH1 0x20 MSTORE PUSH1 0x40 PUSH1 0x0 KECCAK256 PUSH1 0x0 DUP1 MSTORE PUSH1 0x20 MSTORE PUSH1 0x40 PUSH1 0x0 KECCAK256 PUSH2 0xA36 DUP4 DUP3 SLOAD PUSH2 0x11AE JUMP JUMPDEST SWAP1 SSTORE PUSH1 0x0 SWAP1 PUSH2 0xA90 JUMPI JUMPDEST PUSH1 0x0 DUP1 DUP1 SWAP4 DUP2 SWAP4 CALLER SWAP1 CALL ISZERO PUSH2 0x8F0 JUMPI PUSH32 0x446D7AE6DB48779B81C4AA6836DF8C2FC79176BCFFA512F2A237FD124874B38B PUSH1 0x0 SWAP3 PUSH1 0x40 MLOAD SWAP1 DUP2 MSTORE PUSH1 0x40 PUSH1 0x20 DUP3 ADD MSTORE DUP1 PUSH2 0x6C0 CALLER SWAP5 PUSH1 0x40 DUP4 ADD SWAP1 PUSH2 0xFBE JUMP JUMPDEST POP PUSH2 0x8FC PUSH2 0xA40 JUMP JUMPDEST CALLVALUE PUSH2 0x17A JUMPI PUSH1 0x0 CALLDATASIZE PUSH1 0x3 NOT ADD SLT PUSH2 0x17A JUMPI PUSH2 0xAB2 PUSH2 0x1219 JUMP JUMPDEST PUSH1 0x1 DUP1 SLOAD PUSH1 0x1 PUSH1 0x1 PUSH1 0xA0 SHL SUB NOT DUP2 AND SWAP1 SWAP2 SSTORE PUSH1 0x0 SWAP1 PUSH1 0x1 PUSH1 0x1 PUSH1 0xA0 SHL SUB AND PUSH32 0x8BE0079C531659141344CD1FD0A4F28419497F9722A3DAAFE3B4186F6B6457E0 DUP3 DUP1 LOG3 STOP JUMPDEST CALLVALUE PUSH2 0x17A JUMPI PUSH1 0x20 CALLDATASIZE PUSH1 0x3 NOT ADD SLT PUSH2 0x17A JUMPI PUSH1 0x1 PUSH1 0x1 PUSH1 0xA0 SHL SUB DUP1 PUSH2 0xB18 PUSH2 0xEB7 JUMP JUMPDEST AND PUSH1 0x0 MSTORE PUSH1 0x3 PUSH1 0x20 MSTORE PUSH1 0x40 PUSH1 0x0 KECCAK256 SWAP1 DUP2 SLOAD AND PUSH2 0xB36 PUSH1 0x1 DUP4 ADD PUSH2 0x1038 JUMP JUMPDEST SWAP2 PUSH2 0xB86 PUSH1 0xFF PUSH1 0x2 DUP4 ADD SLOAD AND PUSH1 0xFF PUSH1 0x4 PUSH2 0xB52 PUSH1 0x3 DUP7 ADD PUSH2 0x1038 JUMP JUMPDEST SWAP5 ADD SLOAD AND SWAP3 PUSH2 0xB73 PUSH1 0x40 MLOAD SWAP7 DUP8 SWAP7 DUP8 MSTORE PUSH1 0xA0 PUSH1 0x20 DUP9 ADD MSTORE PUSH1 0xA0 DUP8 ADD SWAP1 PUSH2 0xFBE JUMP JUMPDEST SWAP2 PUSH1 0x40 DUP7 ADD MSTORE DUP5 DUP3 SUB PUSH1 0x60 DUP7 ADD MSTORE PUSH2 0xFBE JUMP JUMPDEST SWAP1 ISZERO ISZERO PUSH1 0x80 DUP4 ADD MSTORE SUB SWAP1 RETURN JUMPDEST CALLVALUE PUSH2 0x17A JUMPI PUSH1 0x20 DUP1 PUSH1 0x3 NOT CALLDATASIZE ADD SLT PUSH2 0x17A JUMPI PUSH2 0xBAC PUSH2 0xEB7 JUMP JUMPDEST SWAP1 PUSH1 0x0 PUSH1 0x80 PUSH1 0x40 MLOAD PUSH2 0xBBD DUP2 PUSH2 0xEE3 JUMP JUMPDEST DUP3 DUP2 MSTORE PUSH1 0x60 DUP5 DUP3 ADD MSTORE DUP3 PUSH1 0x40 DUP3 ADD MSTORE PUSH1 0x60 DUP1 DUP3 ADD MSTORE ADD MSTORE PUSH1 0x1 DUP1 PUSH1 0xA0 SHL SUB DUP1 SWAP3 AND PUSH1 0x0 MSTORE PUSH1 0x3 DUP2 MSTORE PUSH1 0x40 PUSH1 0x0 KECCAK256 SWAP1 PUSH2 0xC87 PUSH1 0x40 MLOAD SWAP3 PUSH2 0xBFB DUP5 PUSH2 0xEE3 JUMP JUMPDEST DUP5 DUP2 SLOAD AND DUP5 MSTORE PUSH2 0xC0D PUSH1 0x1 DUP3 ADD PUSH2 0x1038 JUMP JUMPDEST SWAP1 DUP4 DUP6 ADD SWAP2 DUP3 MSTORE PUSH1 0xFF PUSH2 0xC6D DUP2 PUSH1 0x2 DUP5 ADD SLOAD AND SWAP4 PUSH1 0x40 DUP9 ADD SWAP5 DUP6 MSTORE DUP3 PUSH1 0x4 PUSH2 0xC37 PUSH1 0x3 DUP8 ADD PUSH2 0x1038 JUMP JUMPDEST SWAP6 PUSH1 0x60 DUP12 ADD SWAP7 DUP8 MSTORE ADD SLOAD AND SWAP7 PUSH1 0x80 DUP10 ADD SWAP8 ISZERO ISZERO DUP9 MSTORE PUSH1 0x40 MLOAD SWAP10 DUP11 SWAP10 DUP3 DUP12 MSTORE MLOAD AND SWAP1 DUP10 ADD MSTORE MLOAD PUSH1 0xA0 PUSH1 0x40 DUP10 ADD MSTORE PUSH1 0xC0 DUP9 ADD SWAP1 PUSH2 0xFBE JUMP JUMPDEST SWAP3 MLOAD AND PUSH1 0x60 DUP7 ADD MSTORE MLOAD DUP5 DUP3 SUB PUSH1 0x1F NOT ADD PUSH1 0x80 DUP7 ADD MSTORE PUSH2 0xFBE JUMP JUMPDEST SWAP1 MLOAD ISZERO ISZERO PUSH1 0xA0 DUP4 ADD MSTORE SUB SWAP1 RETURN JUMPDEST CALLVALUE PUSH2 0x17A JUMPI PUSH2 0xCA2 CALLDATASIZE PUSH2 0xF78 JUMP JUMPDEST SWAP1 PUSH2 0xCAB PUSH2 0x11F6 JUMP JUMPDEST CALLER PUSH1 0x0 MSTORE PUSH1 0x20 SWAP1 PUSH1 0x2 DUP3 MSTORE PUSH1 0x40 PUSH1 0x0 KECCAK256 SWAP4 PUSH1 0x1 DUP1 PUSH1 0xA0 SHL SUB AND SWAP4 DUP5 PUSH1 0x0 MSTORE DUP3 MSTORE PUSH2 0xCDC DUP2 PUSH1 0x40 PUSH1 0x0 KECCAK256 SLOAD LT ISZERO PUSH2 0x112A JUMP JUMPDEST PUSH2 0xCE7 DUP2 ISZERO ISZERO PUSH2 0x116D JUMP JUMPDEST CALLER PUSH1 0x0 MSTORE PUSH1 0x2 DUP3 MSTORE PUSH1 0x40 PUSH1 0x0 KECCAK256 DUP5 PUSH1 0x0 MSTORE DUP3 MSTORE PUSH1 0x40 PUSH1 0x0 KECCAK256 PUSH2 0xD0A DUP3 DUP3 SLOAD PUSH2 0x11AE JUMP JUMPDEST SWAP1 SSTORE DUP3 MLOAD DUP3 DUP5 ADD KECCAK256 PUSH1 0x40 MLOAD SWAP1 PUSH1 0x40 DUP3 ADD SWAP2 DUP1 DUP4 LT PUSH8 0xFFFFFFFFFFFFFFFF DUP5 GT OR PUSH2 0x3F3 JUMPI DUP5 PUSH12 0x6569703135353A3432313031 PUSH1 0xA0 SHL SWAP2 PUSH32 0x3D6BC1F1D3FB03065860265A8E93840B586E57075D956CD41B4319D040BE87F9 SWAP5 PUSH1 0x40 MSTORE PUSH1 0xC DUP2 MSTORE ADD MSTORE EQ PUSH1 0x0 EQ PUSH2 0xE00 JUMPI PUSH1 0x40 MLOAD PUSH4 0xA9059CBB PUSH1 0xE0 SHL DUP2 MSTORE CALLER PUSH1 0x4 DUP3 ADD MSTORE PUSH1 0x24 DUP2 ADD DUP3 SWAP1 MSTORE SWAP2 DUP1 DUP4 PUSH1 0x44 DUP2 PUSH1 0x0 DUP10 GAS CALL SWAP1 DUP2 ISZERO PUSH2 0x8F0 JUMPI PUSH32 0x446D7AE6DB48779B81C4AA6836DF8C2FC79176BCFFA512F2A237FD124874B38B SWAP4 PUSH1 0x40 SWAP3 PUSH2 0xDE3 JUMPI JUMPDEST POP JUMPDEST DUP2 MLOAD SWAP3 DUP4 MSTORE DUP3 ADD MSTORE DUP1 PUSH2 0x6C0 CALLER SWAP5 PUSH1 0x40 DUP4 ADD SWAP1 PUSH2 0xFBE JUMP JUMPDEST PUSH2 0xDF9 SWAP1 DUP3 RETURNDATASIZE DUP5 GT PUSH2 0x8E9 JUMPI PUSH2 0x8DA DUP2 DUP4 PUSH2 0xEFF JUMP JUMPDEST POP DUP7 PUSH2 0xDC9 JUMP JUMPDEST PUSH1 0x40 MLOAD PUSH4 0xA9059CBB PUSH1 0xE0 SHL DUP2 MSTORE CALLER PUSH1 0x4 DUP3 ADD MSTORE PUSH1 0x24 DUP2 ADD DUP3 SWAP1 MSTORE SWAP2 DUP1 DUP4 PUSH1 0x44 DUP2 PUSH1 0x0 DUP10 GAS CALL SWAP1 DUP2 ISZERO PUSH2 0x8F0 JUMPI PUSH32 0x446D7AE6DB48779B81C4AA6836DF8C2FC79176BCFFA512F2A237FD124874B38B SWAP4 PUSH1 0x40 SWAP3 PUSH2 0xE9A JUMPI JUMPDEST POP DUP6 DUP3 MLOAD DUP5 DUP2 MSTORE DUP4 DUP4 DUP3 ADD MSTORE PUSH32 0x4CB628CBCF365B54B7DC9A41973C7985D5EDB519BA05F335C100407263F526A6 CALLER SWAP2 DUP1 PUSH2 0xE92 DUP8 DUP3 ADD DUP12 PUSH2 0xFBE JUMP JUMPDEST SUB SWAP1 LOG3 PUSH2 0xDCB JUMP JUMPDEST PUSH2 0xEB0 SWAP1 DUP3 RETURNDATASIZE DUP5 GT PUSH2 0x8E9 JUMPI PUSH2 0x8DA DUP2 DUP4 PUSH2 0xEFF JUMP JUMPDEST POP DUP7 PUSH2 0xE56 JUMP JUMPDEST PUSH1 0x4 CALLDATALOAD SWAP1 PUSH1 0x1 PUSH1 0x1 PUSH1 0xA0 SHL SUB DUP3 AND DUP3 SUB PUSH2 0x17A JUMPI JUMP JUMPDEST PUSH1 0x24 CALLDATALOAD SWAP1 PUSH1 0x1 PUSH1 0x1 PUSH1 0xA0 SHL SUB DUP3 AND DUP3 SUB PUSH2 0x17A JUMPI JUMP JUMPDEST PUSH1 0xA0 DUP2 ADD SWAP1 DUP2 LT PUSH8 0xFFFFFFFFFFFFFFFF DUP3 GT OR PUSH2 0x3F3 JUMPI PUSH1 0x40 MSTORE JUMP JUMPDEST SWAP1 PUSH1 0x1F DUP1 NOT SWAP2 ADD AND DUP2 ADD SWAP1 DUP2 LT PUSH8 0xFFFFFFFFFFFFFFFF DUP3 GT OR PUSH2 0x3F3 JUMPI PUSH1 0x40 MSTORE JUMP JUMPDEST DUP2 PUSH1 0x1F DUP3 ADD SLT ISZERO PUSH2 0x17A JUMPI DUP1 CALLDATALOAD SWAP1 PUSH8 0xFFFFFFFFFFFFFFFF DUP3 GT PUSH2 0x3F3 JUMPI PUSH1 0x40 MLOAD SWAP3 PUSH2 0xF56 PUSH1 0x1F DUP5 ADD PUSH1 0x1F NOT AND PUSH1 0x20 ADD DUP6 PUSH2 0xEFF JUMP JUMPDEST DUP3 DUP5 MSTORE PUSH1 0x20 DUP4 DUP4 ADD ADD GT PUSH2 0x17A JUMPI DUP2 PUSH1 0x0 SWAP3 PUSH1 0x20 DUP1 SWAP4 ADD DUP4 DUP7 ADD CALLDATACOPY DUP4 ADD ADD MSTORE SWAP1 JUMP JUMPDEST PUSH1 0x60 PUSH1 0x3 NOT DUP3 ADD SLT PUSH2 0x17A JUMPI PUSH1 0x4 CALLDATALOAD PUSH1 0x1 PUSH1 0x1 PUSH1 0xA0 SHL SUB DUP2 AND DUP2 SUB PUSH2 0x17A JUMPI SWAP2 PUSH1 0x24 CALLDATALOAD SWAP2 PUSH1 0x44 CALLDATALOAD SWAP1 PUSH8 0xFFFFFFFFFFFFFFFF DUP3 GT PUSH2 0x17A JUMPI PUSH2 0xFBB SWAP2 PUSH1 0x4 ADD PUSH2 0xF21 JUMP JUMPDEST SWAP1 JUMP JUMPDEST SWAP2 SWAP1 DUP3 MLOAD SWAP3 DUP4 DUP3 MSTORE PUSH1 0x0 JUMPDEST DUP5 DUP2 LT PUSH2 0xFEA JUMPI POP POP DUP3 PUSH1 0x0 PUSH1 0x20 DUP1 SWAP5 SWAP6 DUP5 ADD ADD MSTORE PUSH1 0x1F DUP1 NOT SWAP2 ADD AND ADD ADD SWAP1 JUMP JUMPDEST PUSH1 0x20 DUP2 DUP4 ADD DUP2 ADD MLOAD DUP5 DUP4 ADD DUP3 ADD MSTORE ADD PUSH2 0xFC9 JUMP JUMPDEST SWAP1 PUSH1 0x1 DUP3 DUP2 SHR SWAP3 AND DUP1 ISZERO PUSH2 0x102E JUMPI JUMPDEST PUSH1 0x20 DUP4 LT EQ PUSH2 0x1018 JUMPI JUMP JUMPDEST PUSH4 0x4E487B71 PUSH1 0xE0 SHL PUSH1 0x0 MSTORE PUSH1 0x22 PUSH1 0x4 MSTORE PUSH1 0x24 PUSH1 0x0 REVERT JUMPDEST SWAP2 PUSH1 0x7F AND SWAP2 PUSH2 0x100D JUMP JUMPDEST SWAP1 PUSH1 0x40 MLOAD SWAP2 DUP3 PUSH1 0x0 DUP3 SLOAD PUSH2 0x104B DUP2 PUSH2 0xFFE JUMP JUMPDEST SWAP1 DUP2 DUP5 MSTORE PUSH1 0x20 SWAP5 PUSH1 0x1 SWAP2 PUSH1 0x1 DUP2 AND SWAP1 DUP2 PUSH1 0x0 EQ PUSH2 0x10BB JUMPI POP PUSH1 0x1 EQ PUSH2 0x107C JUMPI JUMPDEST POP POP POP PUSH2 0x107A SWAP3 POP SUB DUP4 PUSH2 0xEFF JUMP JUMPDEST JUMP JUMPDEST PUSH1 0x0 SWAP1 DUP2 MSTORE DUP6 DUP2 KECCAK256 SWAP6 SWAP4 POP SWAP2 SWAP1 JUMPDEST DUP2 DUP4 LT PUSH2 0x10A3 JUMPI POP POP PUSH2 0x107A SWAP4 POP DUP3 ADD ADD CODESIZE DUP1 DUP1 PUSH2 0x106B JUMP JUMPDEST DUP6 SLOAD DUP9 DUP5 ADD DUP6 ADD MSTORE SWAP5 DUP6 ADD SWAP5 DUP8 SWAP5 POP SWAP2 DUP4 ADD SWAP2 PUSH2 0x108A JUMP JUMPDEST SWAP3 POP POP POP PUSH2 0x107A SWAP5 SWAP3 POP PUSH1 0xFF NOT AND DUP3 DUP5 ADD MSTORE ISZERO ISZERO PUSH1 0x5 SHL DUP3 ADD ADD CODESIZE DUP1 DUP1 PUSH2 0x106B JUMP JUMPDEST PUSH1 0x4 SLOAD DUP2 LT ISZERO PUSH2 0x1114 JUMPI PUSH1 0x4 PUSH1 0x0 MSTORE PUSH32 0x8A35ACFBC15FF81A39AE7D344FD709F28E8600B4AA8C65C6B64BFE7FE36BD19B ADD SWAP1 PUSH1 0x0 SWAP1 JUMP JUMPDEST PUSH4 0x4E487B71 PUSH1 0xE0 SHL PUSH1 0x0 MSTORE PUSH1 0x32 PUSH1 0x4 MSTORE PUSH1 0x24 PUSH1 0x0 REVERT JUMPDEST ISZERO PUSH2 0x1131 JUMPI JUMP JUMPDEST PUSH1 0x40 MLOAD PUSH3 0x461BCD PUSH1 0xE5 SHL DUP2 MSTORE PUSH1 0x20 PUSH1 0x4 DUP3 ADD MSTORE PUSH1 0x14 PUSH1 0x24 DUP3 ADD MSTORE PUSH20 0x496E73756666696369656E742062616C616E6365 PUSH1 0x60 SHL PUSH1 0x44 DUP3 ADD MSTORE PUSH1 0x64 SWAP1 REVERT JUMPDEST ISZERO PUSH2 0x1174 JUMPI JUMP JUMPDEST PUSH1 0x40 MLOAD PUSH3 0x461BCD PUSH1 0xE5 SHL DUP2 MSTORE PUSH1 0x20 PUSH1 0x4 DUP3 ADD MSTORE PUSH1 0x12 PUSH1 0x24 DUP3 ADD MSTORE PUSH18 0x416D6F756E74206D757374206265203E203 PUSH1 0x74 SHL PUSH1 0x44 DUP3 ADD MSTORE PUSH1 0x64 SWAP1 REVERT JUMPDEST SWAP2 SWAP1 DUP3 SUB SWAP2 DUP3 GT PUSH2 0x11BB JUMPI JUMP JUMPDEST PUSH4 0x4E487B71 PUSH1 0xE0 SHL PUSH1 0x0 MSTORE PUSH1 0x11 PUSH1 0x4 MSTORE PUSH1 0x24 PUSH1 0x0 REVERT JUMPDEST SWAP1 DUP2 PUSH1 0x20 SWAP2 SUB SLT PUSH2 0x17A JUMPI MLOAD DUP1 ISZERO ISZERO DUP2 SUB PUSH2 0x17A JUMPI SWAP1 JUMP JUMPDEST SWAP2 SWAP1 DUP3 ADD DUP1 SWAP3 GT PUSH2 0x11BB JUMPI JUMP JUMPDEST PUSH1 0x2 PUSH1 0x0 SLOAD EQ PUSH2 0x1207 JUMPI PUSH1 0x2 PUSH1 0x0 SSTORE JUMP JUMPDEST PUSH1 0x40 MLOAD PUSH4 0x3EE5AEB5 PUSH1 0xE0 SHL DUP2 MSTORE PUSH1 0x4 SWAP1 REVERT JUMPDEST PUSH1 0x1 SLOAD PUSH1 0x1 PUSH1 0x1 PUSH1 0xA0 SHL SUB AND CALLER SUB PUSH2 0x122D JUMPI JUMP JUMPDEST PUSH1 0x40 MLOAD PUSH4 0x118CDAA7 PUSH1 0xE0 SHL DUP2 MSTORE CALLER PUSH1 0x4 DUP3 ADD MSTORE PUSH1 0x24 SWAP1 REVERT INVALID LOG2 PUSH5 0x6970667358 0x22 SLT KECCAK256 CREATE DUP14 SDIV 0xD5 PUSH25 0xCD9922D26452BF1DFCC3334DF48B123E6CE16114D4D0DDB87E CHAINID SUB PUSH5 0x736F6C6343 STOP ADDMOD XOR STOP CALLER "},"methodIdentifiers":{"addSupportedToken(address,string,uint8,string)":"ef662a13","depositNative(string)":"d51ba8f6","depositToken(address,uint256,string)":"a10d0960","getBalance(address,address)":"d4fac45d","getSupportedTokens()":"d3c7c2c7","getTokenInfo(address)":"1f69565f","owner()":"8da5cb5b","renounceOwnership()":"715018a6","supportedTokens(address)":"68c4ac26","tokenList(uint256)":"9ead7222","transferOwnership(address)":"f2fde38b","universalToken()":"e99d2db4","userBalances(address,address)":"adb51980","withdrawNative(uint256,string)":"79da58fc","withdrawToken(address,uint256,string)":"14eaa43b"}}}}}