{"contracts/MarketFactory.sol":{"MarketFactory":{"abi":[{"inputs":[{"internalType":"address payable","name":"_oracleMarkets","type":"address"}],"stateMutability":"nonpayable","type":"constructor"},{"inputs":[{"internalType":"address","name":"owner","type":"address"}],"name":"OwnableInvalidOwner","type":"error"},{"inputs":[{"internalType":"address","name":"account","type":"address"}],"name":"OwnableUnauthorizedAccount","type":"error"},{"anonymous":false,"inputs":[{"indexed":true,"internalType":"address","name":"oracleMarketsAddress","type":"address"}],"name":"MarketFactoryCreated","type":"event"},{"anonymous":false,"inputs":[{"indexed":true,"internalType":"uint256","name":"marketId","type":"uint256"},{"indexed":true,"internalType":"address","name":"creator","type":"address"},{"indexed":false,"internalType":"string","name":"category","type":"string"}],"name":"MarketRecorded","type":"event"},{"anonymous":false,"inputs":[{"indexed":true,"internalType":"address","name":"previousOwner","type":"address"},{"indexed":true,"internalType":"address","name":"newOwner","type":"address"}],"name":"OwnershipTransferred","type":"event"},{"inputs":[{"internalType":"uint256","name":"","type":"uint256"}],"name":"allMarkets","outputs":[{"internalType":"uint256","name":"id","type":"uint256"},{"internalType":"address","name":"creator","type":"address"},{"internalType":"uint256","name":"createdAt","type":"uint256"},{"internalType":"string","name":"category","type":"string"}],"stateMutability":"view","type":"function"},{"inputs":[{"internalType":"string","name":"","type":"string"},{"internalType":"uint256","name":"","type":"uint256"}],"name":"categoryMarkets","outputs":[{"internalType":"uint256","name":"","type":"uint256"}],"stateMutability":"view","type":"function"},{"inputs":[{"internalType":"string","name":"title","type":"string"},{"internalType":"string","name":"description","type":"string"},{"internalType":"string","name":"category","type":"string"},{"internalType":"uint256","name":"endTime","type":"uint256"},{"internalType":"uint256","name":"oddsYes","type":"uint256"},{"internalType":"uint256","name":"oddsNo","type":"uint256"}],"name":"createMarket","outputs":[{"internalType":"uint256","name":"","type":"uint256"}],"stateMutability":"nonpayable","type":"function"},{"inputs":[{"internalType":"address","name":"","type":"address"},{"internalType":"uint256","name":"","type":"uint256"}],"name":"creatorMarkets","outputs":[{"internalType":"uint256","name":"","type":"uint256"}],"stateMutability":"view","type":"function"},{"inputs":[],"name":"getAllMarkets","outputs":[{"components":[{"internalType":"uint256","name":"id","type":"uint256"},{"internalType":"address","name":"creator","type":"address"},{"internalType":"uint256","name":"createdAt","type":"uint256"},{"internalType":"string","name":"category","type":"string"}],"internalType":"struct MarketFactory.MarketRecord[]","name":"","type":"tuple[]"}],"stateMutability":"view","type":"function"},{"inputs":[{"internalType":"string","name":"category","type":"string"}],"name":"getMarketsByCategory","outputs":[{"internalType":"uint256[]","name":"","type":"uint256[]"}],"stateMutability":"view","type":"function"},{"inputs":[{"internalType":"address","name":"creator","type":"address"}],"name":"getMarketsByCreator","outputs":[{"internalType":"uint256[]","name":"","type":"uint256[]"}],"stateMutability":"view","type":"function"},{"inputs":[],"name":"getTotalMarkets","outputs":[{"internalType":"uint256","name":"","type":"uint256"}],"stateMutability":"view","type":"function"},{"inputs":[],"name":"oracleMarkets","outputs":[{"internalType":"contract OracleMarkets","name":"","type":"address"}],"stateMutability":"view","type":"function"},{"inputs":[],"name":"owner","outputs":[{"internalType":"address","name":"","type":"address"}],"stateMutability":"view","type":"function"},{"inputs":[],"name":"renounceOwnership","outputs":[],"stateMutability":"nonpayable","type":"function"},{"inputs":[{"internalType":"address","name":"newOwner","type":"address"}],"name":"transferOwnership","outputs":[],"stateMutability":"nonpayable","type":"function"}],"evm":{"bytecode":{"linkReferences":{},"object":"6080346100ec57601f610d7f38819003918201601f19168301916001600160401b038311848410176100f1578084926020946040528339810103126100ec57516001600160a01b0390818116908190036100ec5733156100d35760008054336001600160a01b031980831682178455604051957f2645dcffcce4e8ad5369b80fc5106d11d790c1a76f1937c0f7b746099076eb559493869391167f8be0079c531659141344cd1fd0a4f28419497f9722a3daafe3b4186f6b6457e08580a3600154161760015580a2610c7790816101088239f35b604051631e4fbdf760e01b815260006004820152602490fd5b600080fd5b634e487b7160e01b600052604160045260246000fdfe6080604081815260048036101561001557600080fd5b600092833560e01c908163153989401461092a575080633caa7e9e146108b157806352d84d1e1461083f578063715018a6146107e557806376e6caff1461074857806381ebf209146107295780638da5cb5b1461070157806399eb49b91461037b578063b0772d0b14610213578063ba1f5195146101ba578063e99c80bd146101305763f2fde38b146100a757600080fd5b3461012c57602036600319011261012c576100c0610bca565b906100c9610c15565b6001600160a01b0391821692831561011657505082546001600160a01b0319811683178455167f8be0079c531659141344cd1fd0a4f28419497f9722a3daafe3b4186f6b6457e08380a380f35b51631e4fbdf760e01b8152908101849052602490fd5b8280fd5b5050346101b657602090602060031936011261012c576001600160a01b03610156610bca565b168352600360205280832092815180936020865492838152019583526020832092905b82821061019f5761019b8686610191828b0383610981565b5191829182610b8e565b0390f35b835487529586019560019384019390910190610179565b5080fd5b5050346101b657806003193601126101b6576101d4610bca565b6001600160a01b03168252600360205280822080546024359390841015610210575060209261020291610a22565b90549060031b1c9051908152f35b80fd5b508290346101b657816003193601126101b65760029060025467ffffffffffffffff8111610368579290602093855191610252868360051b0184610981565b8183528583018095600286527f405787fa12a823e0f2b7631cc41b3ba8828b3321ca811111fa75cd3aa3bb5ace9086925b858410610314575050505050508451938085019181865251809252858501868360051b8701019493965b8388106102ba5786860387f35b90919293948380610303600193603f198b820301875289519060809082518152868060a01b03858401511685820152878301518882015281606080940151938201520190610b69565b9701930197019690939291936102ad565b848a6001928d809d9a9b9d519061032a8261094f565b87548252858060a01b03868901541684830152868801549082015261035160038801610ac4565b606082015281520193019301929198969598610283565b634e487b7160e01b845260418252602484fd5b509190346101b6576003199160c0368401126102105767ffffffffffffffff93803585811161012c576103b190369083016109a3565b916024358681116101b6576103c990369084016109a3565b946044359680881161012c576103e661041e9798369086016109a3565b9460018060a01b039260019161043e858454169261042e8b519d8e9d8e956399eb49b960e01b875260c08d88015260c4870190610b69565b9083868303016024870152610b69565b9083820301604484015289610b69565b916064356064830152608435608483015260a43560a4830152818760209d8e9503925af19788156106f75784986106c4575b50865161047c8161094f565b888152898101338152888201904282526060830195898752600254600160401b8110156106b15780866104b29201600255610a50565b94909461069f57906003949392915184558584019151166bffffffffffffffffffffffff60a01b825416179055516002820155019251805192831161068c579183918995936105028a9654610a8a565b601f8111610632575b508b90601f84116001146105bc5792808087948a97946105729c9a976105509a946105b1575b50501b916000199060031b1c19161790555b33815260038b5220610be0565b868551809286516105648184868b016109ff565b820190815203019020610be0565b827f91f781423d40f6014df2d41f37c750040d1282b52f77416de75c8ade0b88ff538351868152806105a8339589830190610b69565b0390a351908152f35b015192503880610531565b8486528c862098969594939190601f198316868f5b828210610617575050998996949284926105509997956105729d106105fe575b505050811b019055610543565b015160001960f88460031b161c191690553880806105f1565b848401518d559b86019b8f9b508e995093840193018f6105d1565b91939550919395508486528a8620601f850160051c8101918c8610610682575b918b97959391601f8c9896940160051c01905b818110610672575061050b565b8681558c98508b97508301610665565b9091508190610652565b634e487b7160e01b855260418652602485fd5b634e487b7160e01b8952888a52602489fd5b634e487b7160e01b895260418a52602489fd5b9097508881813d83116106f0575b6106dc8183610981565b810103126106ec57519638610470565b8380fd5b503d6106d2565b87513d86823e3d90fd5b5050346101b657816003193601126101b657905490516001600160a01b039091168152602090f35b5050346101b657816003193601126101b6576020906002549051908152f35b50903461012c57602091826003193601126106ec57803567ffffffffffffffff81116107e157610793916107808592369083016109a3565b90828551948386809551938492016109ff565b8201908152030190209281518093808654928381520195835280832092905b8282106107ca5761019b8686610191828b0383610981565b8354875295860195600193840193909101906107b2565b8480fd5b83346102105780600319360112610210576107fe610c15565b80546001600160a01b03198116825581906001600160a01b03167f8be0079c531659141344cd1fd0a4f28419497f9722a3daafe3b4186f6b6457e08280a380f35b508290346101b65760203660031901126101b6573590600254821015610210575061086990610a50565b509061019b82549160018060a01b0360018501541693610890600360028301549201610ac4565b91805195869586526020860152840152608060608401526080830190610b69565b509134610210578160031936011261021057823567ffffffffffffffff81116101b65760206108e66108fc92369087016109a3565b60243595828651948386809551938492016109ff565b820190815203019020908154841015610210575060209261091c91610a22565b91905490519160031b1c8152f35b8490346101b657816003193601126101b6576001546001600160a01b03168152602090f35b6080810190811067ffffffffffffffff82111761096b57604052565b634e487b7160e01b600052604160045260246000fd5b90601f8019910116810190811067ffffffffffffffff82111761096b57604052565b81601f820112156109fa5780359067ffffffffffffffff821161096b57604051926109d8601f8401601f191660200185610981565b828452602083830101116109fa57816000926020809301838601378301015290565b600080fd5b60005b838110610a125750506000910152565b8181015183820152602001610a02565b8054821015610a3a5760005260206000200190600090565b634e487b7160e01b600052603260045260246000fd5b600254811015610a3a57600260005260021b7f405787fa12a823e0f2b7631cc41b3ba8828b3321ca811111fa75cd3aa3bb5ace0190600090565b90600182811c92168015610aba575b6020831014610aa457565b634e487b7160e01b600052602260045260246000fd5b91607f1691610a99565b90604051918260008254610ad781610a8a565b90818452602094600191600181169081600014610b475750600114610b08575b505050610b0692500383610981565b565b600090815285812095935091905b818310610b2f575050610b069350820101388080610af7565b85548884018501529485019487945091830191610b16565b92505050610b0694925060ff191682840152151560051b820101388080610af7565b90602091610b82815180928185528580860191016109ff565b601f01601f1916010190565b602090602060408183019282815285518094520193019160005b828110610bb6575050505090565b835185529381019392810192600101610ba8565b600435906001600160a01b03821682036109fa57565b8054600160401b81101561096b57610bfd91600182018155610a22565b819291549060031b91821b91600019901b1916179055565b6000546001600160a01b03163303610c2957565b60405163118cdaa760e01b8152336004820152602490fdfea264697066735822122084edb2f69c86a32e9b9db05e01c21fc6793ede1f54831ece0dc9e851330869ba64736f6c63430008180033","opcodes":"PUSH1 0x80 CALLVALUE PUSH2 0xEC JUMPI PUSH1 0x1F PUSH2 0xD7F CODESIZE DUP2 SWAP1 SUB SWAP2 DUP3 ADD PUSH1 0x1F NOT AND DUP4 ADD SWAP2 PUSH1 0x1 PUSH1 0x1 PUSH1 0x40 SHL SUB DUP4 GT DUP5 DUP5 LT OR PUSH2 0xF1 JUMPI DUP1 DUP5 SWAP3 PUSH1 0x20 SWAP5 PUSH1 0x40 MSTORE DUP4 CODECOPY DUP2 ADD SUB SLT PUSH2 0xEC JUMPI MLOAD PUSH1 0x1 PUSH1 0x1 PUSH1 0xA0 SHL SUB SWAP1 DUP2 DUP2 AND SWAP1 DUP2 SWAP1 SUB PUSH2 0xEC JUMPI CALLER ISZERO PUSH2 0xD3 JUMPI PUSH1 0x0 DUP1 SLOAD CALLER PUSH1 0x1 PUSH1 0x1 PUSH1 0xA0 SHL SUB NOT DUP1 DUP4 AND DUP3 OR DUP5 SSTORE PUSH1 0x40 MLOAD SWAP6 PUSH32 0x2645DCFFCCE4E8AD5369B80FC5106D11D790C1A76F1937C0F7B746099076EB55 SWAP5 SWAP4 DUP7 SWAP4 SWAP2 AND PUSH32 0x8BE0079C531659141344CD1FD0A4F28419497F9722A3DAAFE3B4186F6B6457E0 DUP6 DUP1 LOG3 PUSH1 0x1 SLOAD AND OR PUSH1 0x1 SSTORE DUP1 LOG2 PUSH2 0xC77 SWAP1 DUP2 PUSH2 0x108 DUP3 CODECOPY RETURN JUMPDEST PUSH1 0x40 MLOAD PUSH4 0x1E4FBDF7 PUSH1 0xE0 SHL DUP2 MSTORE PUSH1 0x0 PUSH1 0x4 DUP3 ADD MSTORE PUSH1 0x24 SWAP1 REVERT JUMPDEST PUSH1 0x0 DUP1 REVERT JUMPDEST PUSH4 0x4E487B71 PUSH1 0xE0 SHL PUSH1 0x0 MSTORE PUSH1 0x41 PUSH1 0x4 MSTORE PUSH1 0x24 PUSH1 0x0 REVERT INVALID PUSH1 0x80 PUSH1 0x40 DUP2 DUP2 MSTORE PUSH1 0x4 DUP1 CALLDATASIZE LT ISZERO PUSH2 0x15 JUMPI PUSH1 0x0 DUP1 REVERT JUMPDEST PUSH1 0x0 SWAP3 DUP4 CALLDATALOAD PUSH1 0xE0 SHR SWAP1 DUP2 PUSH4 0x15398940 EQ PUSH2 0x92A JUMPI POP DUP1 PUSH4 0x3CAA7E9E EQ PUSH2 0x8B1 JUMPI DUP1 PUSH4 0x52D84D1E EQ PUSH2 0x83F JUMPI DUP1 PUSH4 0x715018A6 EQ PUSH2 0x7E5 JUMPI DUP1 PUSH4 0x76E6CAFF EQ PUSH2 0x748 JUMPI DUP1 PUSH4 0x81EBF209 EQ PUSH2 0x729 JUMPI DUP1 PUSH4 0x8DA5CB5B EQ PUSH2 0x701 JUMPI DUP1 PUSH4 0x99EB49B9 EQ PUSH2 0x37B JUMPI DUP1 PUSH4 0xB0772D0B EQ PUSH2 0x213 JUMPI DUP1 PUSH4 0xBA1F5195 EQ PUSH2 0x1BA JUMPI DUP1 PUSH4 0xE99C80BD EQ PUSH2 0x130 JUMPI PUSH4 0xF2FDE38B EQ PUSH2 0xA7 JUMPI PUSH1 0x0 DUP1 REVERT JUMPDEST CALLVALUE PUSH2 0x12C JUMPI PUSH1 0x20 CALLDATASIZE PUSH1 0x3 NOT ADD SLT PUSH2 0x12C JUMPI PUSH2 0xC0 PUSH2 0xBCA JUMP JUMPDEST SWAP1 PUSH2 0xC9 PUSH2 0xC15 JUMP JUMPDEST PUSH1 0x1 PUSH1 0x1 PUSH1 0xA0 SHL SUB SWAP2 DUP3 AND SWAP3 DUP4 ISZERO PUSH2 0x116 JUMPI POP POP DUP3 SLOAD PUSH1 0x1 PUSH1 0x1 PUSH1 0xA0 SHL SUB NOT DUP2 AND DUP4 OR DUP5 SSTORE AND PUSH32 0x8BE0079C531659141344CD1FD0A4F28419497F9722A3DAAFE3B4186F6B6457E0 DUP4 DUP1 LOG3 DUP1 RETURN JUMPDEST MLOAD PUSH4 0x1E4FBDF7 PUSH1 0xE0 SHL DUP2 MSTORE SWAP1 DUP2 ADD DUP5 SWAP1 MSTORE PUSH1 0x24 SWAP1 REVERT JUMPDEST DUP3 DUP1 REVERT JUMPDEST POP POP CALLVALUE PUSH2 0x1B6 JUMPI PUSH1 0x20 SWAP1 PUSH1 0x20 PUSH1 0x3 NOT CALLDATASIZE ADD SLT PUSH2 0x12C JUMPI PUSH1 0x1 PUSH1 0x1 PUSH1 0xA0 SHL SUB PUSH2 0x156 PUSH2 0xBCA JUMP JUMPDEST AND DUP4 MSTORE PUSH1 0x3 PUSH1 0x20 MSTORE DUP1 DUP4 KECCAK256 SWAP3 DUP2 MLOAD DUP1 SWAP4 PUSH1 0x20 DUP7 SLOAD SWAP3 DUP4 DUP2 MSTORE ADD SWAP6 DUP4 MSTORE PUSH1 0x20 DUP4 KECCAK256 SWAP3 SWAP1 JUMPDEST DUP3 DUP3 LT PUSH2 0x19F JUMPI PUSH2 0x19B DUP7 DUP7 PUSH2 0x191 DUP3 DUP12 SUB DUP4 PUSH2 0x981 JUMP JUMPDEST MLOAD SWAP2 DUP3 SWAP2 DUP3 PUSH2 0xB8E JUMP JUMPDEST SUB SWAP1 RETURN JUMPDEST DUP4 SLOAD DUP8 MSTORE SWAP6 DUP7 ADD SWAP6 PUSH1 0x1 SWAP4 DUP5 ADD SWAP4 SWAP1 SWAP2 ADD SWAP1 PUSH2 0x179 JUMP JUMPDEST POP DUP1 REVERT JUMPDEST POP POP CALLVALUE PUSH2 0x1B6 JUMPI DUP1 PUSH1 0x3 NOT CALLDATASIZE ADD SLT PUSH2 0x1B6 JUMPI PUSH2 0x1D4 PUSH2 0xBCA JUMP JUMPDEST PUSH1 0x1 PUSH1 0x1 PUSH1 0xA0 SHL SUB AND DUP3 MSTORE PUSH1 0x3 PUSH1 0x20 MSTORE DUP1 DUP3 KECCAK256 DUP1 SLOAD PUSH1 0x24 CALLDATALOAD SWAP4 SWAP1 DUP5 LT ISZERO PUSH2 0x210 JUMPI POP PUSH1 0x20 SWAP3 PUSH2 0x202 SWAP2 PUSH2 0xA22 JUMP JUMPDEST SWAP1 SLOAD SWAP1 PUSH1 0x3 SHL SHR SWAP1 MLOAD SWAP1 DUP2 MSTORE RETURN JUMPDEST DUP1 REVERT JUMPDEST POP DUP3 SWAP1 CALLVALUE PUSH2 0x1B6 JUMPI DUP2 PUSH1 0x3 NOT CALLDATASIZE ADD SLT PUSH2 0x1B6 JUMPI PUSH1 0x2 SWAP1 PUSH1 0x2 SLOAD PUSH8 0xFFFFFFFFFFFFFFFF DUP2 GT PUSH2 0x368 JUMPI SWAP3 SWAP1 PUSH1 0x20 SWAP4 DUP6 MLOAD SWAP2 PUSH2 0x252 DUP7 DUP4 PUSH1 0x5 SHL ADD DUP5 PUSH2 0x981 JUMP JUMPDEST DUP2 DUP4 MSTORE DUP6 DUP4 ADD DUP1 SWAP6 PUSH1 0x2 DUP7 MSTORE PUSH32 0x405787FA12A823E0F2B7631CC41B3BA8828B3321CA811111FA75CD3AA3BB5ACE SWAP1 DUP7 SWAP3 JUMPDEST DUP6 DUP5 LT PUSH2 0x314 JUMPI POP POP POP POP POP POP DUP5 MLOAD SWAP4 DUP1 DUP6 ADD SWAP2 DUP2 DUP7 MSTORE MLOAD DUP1 SWAP3 MSTORE DUP6 DUP6 ADD DUP7 DUP4 PUSH1 0x5 SHL DUP8 ADD ADD SWAP5 SWAP4 SWAP7 JUMPDEST DUP4 DUP9 LT PUSH2 0x2BA JUMPI DUP7 DUP7 SUB DUP8 RETURN JUMPDEST SWAP1 SWAP2 SWAP3 SWAP4 SWAP5 DUP4 DUP1 PUSH2 0x303 PUSH1 0x1 SWAP4 PUSH1 0x3F NOT DUP12 DUP3 SUB ADD DUP8 MSTORE DUP10 MLOAD SWAP1 PUSH1 0x80 SWAP1 DUP3 MLOAD DUP2 MSTORE DUP7 DUP1 PUSH1 0xA0 SHL SUB DUP6 DUP5 ADD MLOAD AND DUP6 DUP3 ADD MSTORE DUP8 DUP4 ADD MLOAD DUP9 DUP3 ADD MSTORE DUP2 PUSH1 0x60 DUP1 SWAP5 ADD MLOAD SWAP4 DUP3 ADD MSTORE ADD SWAP1 PUSH2 0xB69 JUMP JUMPDEST SWAP8 ADD SWAP4 ADD SWAP8 ADD SWAP7 SWAP1 SWAP4 SWAP3 SWAP2 SWAP4 PUSH2 0x2AD JUMP JUMPDEST DUP5 DUP11 PUSH1 0x1 SWAP3 DUP14 DUP1 SWAP14 SWAP11 SWAP12 SWAP14 MLOAD SWAP1 PUSH2 0x32A DUP3 PUSH2 0x94F JUMP JUMPDEST DUP8 SLOAD DUP3 MSTORE DUP6 DUP1 PUSH1 0xA0 SHL SUB DUP7 DUP10 ADD SLOAD AND DUP5 DUP4 ADD MSTORE DUP7 DUP9 ADD SLOAD SWAP1 DUP3 ADD MSTORE PUSH2 0x351 PUSH1 0x3 DUP9 ADD PUSH2 0xAC4 JUMP JUMPDEST PUSH1 0x60 DUP3 ADD MSTORE DUP2 MSTORE ADD SWAP4 ADD SWAP4 ADD SWAP3 SWAP2 SWAP9 SWAP7 SWAP6 SWAP9 PUSH2 0x283 JUMP JUMPDEST PUSH4 0x4E487B71 PUSH1 0xE0 SHL DUP5 MSTORE PUSH1 0x41 DUP3 MSTORE PUSH1 0x24 DUP5 REVERT JUMPDEST POP SWAP2 SWAP1 CALLVALUE PUSH2 0x1B6 JUMPI PUSH1 0x3 NOT SWAP2 PUSH1 0xC0 CALLDATASIZE DUP5 ADD SLT PUSH2 0x210 JUMPI PUSH8 0xFFFFFFFFFFFFFFFF SWAP4 DUP1 CALLDATALOAD DUP6 DUP2 GT PUSH2 0x12C JUMPI PUSH2 0x3B1 SWAP1 CALLDATASIZE SWAP1 DUP4 ADD PUSH2 0x9A3 JUMP JUMPDEST SWAP2 PUSH1 0x24 CALLDATALOAD DUP7 DUP2 GT PUSH2 0x1B6 JUMPI PUSH2 0x3C9 SWAP1 CALLDATASIZE SWAP1 DUP5 ADD PUSH2 0x9A3 JUMP JUMPDEST SWAP5 PUSH1 0x44 CALLDATALOAD SWAP7 DUP1 DUP9 GT PUSH2 0x12C JUMPI PUSH2 0x3E6 PUSH2 0x41E SWAP8 SWAP9 CALLDATASIZE SWAP1 DUP7 ADD PUSH2 0x9A3 JUMP JUMPDEST SWAP5 PUSH1 0x1 DUP1 PUSH1 0xA0 SHL SUB SWAP3 PUSH1 0x1 SWAP2 PUSH2 0x43E DUP6 DUP5 SLOAD AND SWAP3 PUSH2 0x42E DUP12 MLOAD SWAP14 DUP15 SWAP14 DUP15 SWAP6 PUSH4 0x99EB49B9 PUSH1 0xE0 SHL DUP8 MSTORE PUSH1 0xC0 DUP14 DUP9 ADD MSTORE PUSH1 0xC4 DUP8 ADD SWAP1 PUSH2 0xB69 JUMP JUMPDEST SWAP1 DUP4 DUP7 DUP4 SUB ADD PUSH1 0x24 DUP8 ADD MSTORE PUSH2 0xB69 JUMP JUMPDEST SWAP1 DUP4 DUP3 SUB ADD PUSH1 0x44 DUP5 ADD MSTORE DUP10 PUSH2 0xB69 JUMP JUMPDEST SWAP2 PUSH1 0x64 CALLDATALOAD PUSH1 0x64 DUP4 ADD MSTORE PUSH1 0x84 CALLDATALOAD PUSH1 0x84 DUP4 ADD MSTORE PUSH1 0xA4 CALLDATALOAD PUSH1 0xA4 DUP4 ADD MSTORE DUP2 DUP8 PUSH1 0x20 SWAP14 DUP15 SWAP6 SUB SWAP3 GAS CALL SWAP8 DUP9 ISZERO PUSH2 0x6F7 JUMPI DUP5 SWAP9 PUSH2 0x6C4 JUMPI JUMPDEST POP DUP7 MLOAD PUSH2 0x47C DUP2 PUSH2 0x94F JUMP JUMPDEST DUP9 DUP2 MSTORE DUP10 DUP2 ADD CALLER DUP2 MSTORE DUP9 DUP3 ADD SWAP1 TIMESTAMP DUP3 MSTORE PUSH1 0x60 DUP4 ADD SWAP6 DUP10 DUP8 MSTORE PUSH1 0x2 SLOAD PUSH1 0x1 PUSH1 0x40 SHL DUP2 LT ISZERO PUSH2 0x6B1 JUMPI DUP1 DUP7 PUSH2 0x4B2 SWAP3 ADD PUSH1 0x2 SSTORE PUSH2 0xA50 JUMP JUMPDEST SWAP5 SWAP1 SWAP5 PUSH2 0x69F JUMPI SWAP1 PUSH1 0x3 SWAP5 SWAP4 SWAP3 SWAP2 MLOAD DUP5 SSTORE DUP6 DUP5 ADD SWAP2 MLOAD AND PUSH12 0xFFFFFFFFFFFFFFFFFFFFFFFF PUSH1 0xA0 SHL DUP3 SLOAD AND OR SWAP1 SSTORE MLOAD PUSH1 0x2 DUP3 ADD SSTORE ADD SWAP3 MLOAD DUP1 MLOAD SWAP3 DUP4 GT PUSH2 0x68C JUMPI SWAP2 DUP4 SWAP2 DUP10 SWAP6 SWAP4 PUSH2 0x502 DUP11 SWAP7 SLOAD PUSH2 0xA8A JUMP JUMPDEST PUSH1 0x1F DUP2 GT PUSH2 0x632 JUMPI JUMPDEST POP DUP12 SWAP1 PUSH1 0x1F DUP5 GT PUSH1 0x1 EQ PUSH2 0x5BC JUMPI SWAP3 DUP1 DUP1 DUP8 SWAP5 DUP11 SWAP8 SWAP5 PUSH2 0x572 SWAP13 SWAP11 SWAP8 PUSH2 0x550 SWAP11 SWAP5 PUSH2 0x5B1 JUMPI JUMPDEST POP POP SHL SWAP2 PUSH1 0x0 NOT SWAP1 PUSH1 0x3 SHL SHR NOT AND OR SWAP1 SSTORE JUMPDEST CALLER DUP2 MSTORE PUSH1 0x3 DUP12 MSTORE KECCAK256 PUSH2 0xBE0 JUMP JUMPDEST DUP7 DUP6 MLOAD DUP1 SWAP3 DUP7 MLOAD PUSH2 0x564 DUP2 DUP5 DUP7 DUP12 ADD PUSH2 0x9FF JUMP JUMPDEST DUP3 ADD SWAP1 DUP2 MSTORE SUB ADD SWAP1 KECCAK256 PUSH2 0xBE0 JUMP JUMPDEST DUP3 PUSH32 0x91F781423D40F6014DF2D41F37C750040D1282B52F77416DE75C8ADE0B88FF53 DUP4 MLOAD DUP7 DUP2 MSTORE DUP1 PUSH2 0x5A8 CALLER SWAP6 DUP10 DUP4 ADD SWAP1 PUSH2 0xB69 JUMP JUMPDEST SUB SWAP1 LOG3 MLOAD SWAP1 DUP2 MSTORE RETURN JUMPDEST ADD MLOAD SWAP3 POP CODESIZE DUP1 PUSH2 0x531 JUMP JUMPDEST DUP5 DUP7 MSTORE DUP13 DUP7 KECCAK256 SWAP9 SWAP7 SWAP6 SWAP5 SWAP4 SWAP2 SWAP1 PUSH1 0x1F NOT DUP4 AND DUP7 DUP16 JUMPDEST DUP3 DUP3 LT PUSH2 0x617 JUMPI POP POP SWAP10 DUP10 SWAP7 SWAP5 SWAP3 DUP5 SWAP3 PUSH2 0x550 SWAP10 SWAP8 SWAP6 PUSH2 0x572 SWAP14 LT PUSH2 0x5FE JUMPI JUMPDEST POP POP POP DUP2 SHL ADD SWAP1 SSTORE PUSH2 0x543 JUMP JUMPDEST ADD MLOAD PUSH1 0x0 NOT PUSH1 0xF8 DUP5 PUSH1 0x3 SHL AND SHR NOT AND SWAP1 SSTORE CODESIZE DUP1 DUP1 PUSH2 0x5F1 JUMP JUMPDEST DUP5 DUP5 ADD MLOAD DUP14 SSTORE SWAP12 DUP7 ADD SWAP12 DUP16 SWAP12 POP DUP15 SWAP10 POP SWAP4 DUP5 ADD SWAP4 ADD DUP16 PUSH2 0x5D1 JUMP JUMPDEST SWAP2 SWAP4 SWAP6 POP SWAP2 SWAP4 SWAP6 POP DUP5 DUP7 MSTORE DUP11 DUP7 KECCAK256 PUSH1 0x1F DUP6 ADD PUSH1 0x5 SHR DUP2 ADD SWAP2 DUP13 DUP7 LT PUSH2 0x682 JUMPI JUMPDEST SWAP2 DUP12 SWAP8 SWAP6 SWAP4 SWAP2 PUSH1 0x1F DUP13 SWAP9 SWAP7 SWAP5 ADD PUSH1 0x5 SHR ADD SWAP1 JUMPDEST DUP2 DUP2 LT PUSH2 0x672 JUMPI POP PUSH2 0x50B JUMP JUMPDEST DUP7 DUP2 SSTORE DUP13 SWAP9 POP DUP12 SWAP8 POP DUP4 ADD PUSH2 0x665 JUMP JUMPDEST SWAP1 SWAP2 POP DUP2 SWAP1 PUSH2 0x652 JUMP JUMPDEST PUSH4 0x4E487B71 PUSH1 0xE0 SHL DUP6 MSTORE PUSH1 0x41 DUP7 MSTORE PUSH1 0x24 DUP6 REVERT JUMPDEST PUSH4 0x4E487B71 PUSH1 0xE0 SHL DUP10 MSTORE DUP9 DUP11 MSTORE PUSH1 0x24 DUP10 REVERT JUMPDEST PUSH4 0x4E487B71 PUSH1 0xE0 SHL DUP10 MSTORE PUSH1 0x41 DUP11 MSTORE PUSH1 0x24 DUP10 REVERT JUMPDEST SWAP1 SWAP8 POP DUP9 DUP2 DUP2 RETURNDATASIZE DUP4 GT PUSH2 0x6F0 JUMPI JUMPDEST PUSH2 0x6DC DUP2 DUP4 PUSH2 0x981 JUMP JUMPDEST DUP2 ADD SUB SLT PUSH2 0x6EC JUMPI MLOAD SWAP7 CODESIZE PUSH2 0x470 JUMP JUMPDEST DUP4 DUP1 REVERT JUMPDEST POP RETURNDATASIZE PUSH2 0x6D2 JUMP JUMPDEST DUP8 MLOAD RETURNDATASIZE DUP7 DUP3 RETURNDATACOPY RETURNDATASIZE SWAP1 REVERT JUMPDEST POP POP CALLVALUE PUSH2 0x1B6 JUMPI DUP2 PUSH1 0x3 NOT CALLDATASIZE ADD SLT PUSH2 0x1B6 JUMPI SWAP1 SLOAD SWAP1 MLOAD PUSH1 0x1 PUSH1 0x1 PUSH1 0xA0 SHL SUB SWAP1 SWAP2 AND DUP2 MSTORE PUSH1 0x20 SWAP1 RETURN JUMPDEST POP POP CALLVALUE PUSH2 0x1B6 JUMPI DUP2 PUSH1 0x3 NOT CALLDATASIZE ADD SLT PUSH2 0x1B6 JUMPI PUSH1 0x20 SWAP1 PUSH1 0x2 SLOAD SWAP1 MLOAD SWAP1 DUP2 MSTORE RETURN JUMPDEST POP SWAP1 CALLVALUE PUSH2 0x12C JUMPI PUSH1 0x20 SWAP2 DUP3 PUSH1 0x3 NOT CALLDATASIZE ADD SLT PUSH2 0x6EC JUMPI DUP1 CALLDATALOAD PUSH8 0xFFFFFFFFFFFFFFFF DUP2 GT PUSH2 0x7E1 JUMPI PUSH2 0x793 SWAP2 PUSH2 0x780 DUP6 SWAP3 CALLDATASIZE SWAP1 DUP4 ADD PUSH2 0x9A3 JUMP JUMPDEST SWAP1 DUP3 DUP6 MLOAD SWAP5 DUP4 DUP7 DUP1 SWAP6 MLOAD SWAP4 DUP5 SWAP3 ADD PUSH2 0x9FF JUMP JUMPDEST DUP3 ADD SWAP1 DUP2 MSTORE SUB ADD SWAP1 KECCAK256 SWAP3 DUP2 MLOAD DUP1 SWAP4 DUP1 DUP7 SLOAD SWAP3 DUP4 DUP2 MSTORE ADD SWAP6 DUP4 MSTORE DUP1 DUP4 KECCAK256 SWAP3 SWAP1 JUMPDEST DUP3 DUP3 LT PUSH2 0x7CA JUMPI PUSH2 0x19B DUP7 DUP7 PUSH2 0x191 DUP3 DUP12 SUB DUP4 PUSH2 0x981 JUMP JUMPDEST DUP4 SLOAD DUP8 MSTORE SWAP6 DUP7 ADD SWAP6 PUSH1 0x1 SWAP4 DUP5 ADD SWAP4 SWAP1 SWAP2 ADD SWAP1 PUSH2 0x7B2 JUMP JUMPDEST DUP5 DUP1 REVERT JUMPDEST DUP4 CALLVALUE PUSH2 0x210 JUMPI DUP1 PUSH1 0x3 NOT CALLDATASIZE ADD SLT PUSH2 0x210 JUMPI PUSH2 0x7FE PUSH2 0xC15 JUMP JUMPDEST DUP1 SLOAD PUSH1 0x1 PUSH1 0x1 PUSH1 0xA0 SHL SUB NOT DUP2 AND DUP3 SSTORE DUP2 SWAP1 PUSH1 0x1 PUSH1 0x1 PUSH1 0xA0 SHL SUB AND PUSH32 0x8BE0079C531659141344CD1FD0A4F28419497F9722A3DAAFE3B4186F6B6457E0 DUP3 DUP1 LOG3 DUP1 RETURN JUMPDEST POP DUP3 SWAP1 CALLVALUE PUSH2 0x1B6 JUMPI PUSH1 0x20 CALLDATASIZE PUSH1 0x3 NOT ADD SLT PUSH2 0x1B6 JUMPI CALLDATALOAD SWAP1 PUSH1 0x2 SLOAD DUP3 LT ISZERO PUSH2 0x210 JUMPI POP PUSH2 0x869 SWAP1 PUSH2 0xA50 JUMP JUMPDEST POP SWAP1 PUSH2 0x19B DUP3 SLOAD SWAP2 PUSH1 0x1 DUP1 PUSH1 0xA0 SHL SUB PUSH1 0x1 DUP6 ADD SLOAD AND SWAP4 PUSH2 0x890 PUSH1 0x3 PUSH1 0x2 DUP4 ADD SLOAD SWAP3 ADD PUSH2 0xAC4 JUMP JUMPDEST SWAP2 DUP1 MLOAD SWAP6 DUP7 SWAP6 DUP7 MSTORE PUSH1 0x20 DUP7 ADD MSTORE DUP5 ADD MSTORE PUSH1 0x80 PUSH1 0x60 DUP5 ADD MSTORE PUSH1 0x80 DUP4 ADD SWAP1 PUSH2 0xB69 JUMP JUMPDEST POP SWAP2 CALLVALUE PUSH2 0x210 JUMPI DUP2 PUSH1 0x3 NOT CALLDATASIZE ADD SLT PUSH2 0x210 JUMPI DUP3 CALLDATALOAD PUSH8 0xFFFFFFFFFFFFFFFF DUP2 GT PUSH2 0x1B6 JUMPI PUSH1 0x20 PUSH2 0x8E6 PUSH2 0x8FC SWAP3 CALLDATASIZE SWAP1 DUP8 ADD PUSH2 0x9A3 JUMP JUMPDEST PUSH1 0x24 CALLDATALOAD SWAP6 DUP3 DUP7 MLOAD SWAP5 DUP4 DUP7 DUP1 SWAP6 MLOAD SWAP4 DUP5 SWAP3 ADD PUSH2 0x9FF JUMP JUMPDEST DUP3 ADD SWAP1 DUP2 MSTORE SUB ADD SWAP1 KECCAK256 SWAP1 DUP2 SLOAD DUP5 LT ISZERO PUSH2 0x210 JUMPI POP PUSH1 0x20 SWAP3 PUSH2 0x91C SWAP2 PUSH2 0xA22 JUMP JUMPDEST SWAP2 SWAP1 SLOAD SWAP1 MLOAD SWAP2 PUSH1 0x3 SHL SHR DUP2 MSTORE RETURN JUMPDEST DUP5 SWAP1 CALLVALUE PUSH2 0x1B6 JUMPI DUP2 PUSH1 0x3 NOT CALLDATASIZE ADD SLT PUSH2 0x1B6 JUMPI PUSH1 0x1 SLOAD PUSH1 0x1 PUSH1 0x1 PUSH1 0xA0 SHL SUB AND DUP2 MSTORE PUSH1 0x20 SWAP1 RETURN JUMPDEST PUSH1 0x80 DUP2 ADD SWAP1 DUP2 LT PUSH8 0xFFFFFFFFFFFFFFFF DUP3 GT OR PUSH2 0x96B JUMPI PUSH1 0x40 MSTORE JUMP JUMPDEST PUSH4 0x4E487B71 PUSH1 0xE0 SHL PUSH1 0x0 MSTORE PUSH1 0x41 PUSH1 0x4 MSTORE PUSH1 0x24 PUSH1 0x0 REVERT JUMPDEST SWAP1 PUSH1 0x1F DUP1 NOT SWAP2 ADD AND DUP2 ADD SWAP1 DUP2 LT PUSH8 0xFFFFFFFFFFFFFFFF DUP3 GT OR PUSH2 0x96B JUMPI PUSH1 0x40 MSTORE JUMP JUMPDEST DUP2 PUSH1 0x1F DUP3 ADD SLT ISZERO PUSH2 0x9FA JUMPI DUP1 CALLDATALOAD SWAP1 PUSH8 0xFFFFFFFFFFFFFFFF DUP3 GT PUSH2 0x96B JUMPI PUSH1 0x40 MLOAD SWAP3 PUSH2 0x9D8 PUSH1 0x1F DUP5 ADD PUSH1 0x1F NOT AND PUSH1 0x20 ADD DUP6 PUSH2 0x981 JUMP JUMPDEST DUP3 DUP5 MSTORE PUSH1 0x20 DUP4 DUP4 ADD ADD GT PUSH2 0x9FA JUMPI DUP2 PUSH1 0x0 SWAP3 PUSH1 0x20 DUP1 SWAP4 ADD DUP4 DUP7 ADD CALLDATACOPY DUP4 ADD ADD MSTORE SWAP1 JUMP JUMPDEST PUSH1 0x0 DUP1 REVERT JUMPDEST PUSH1 0x0 JUMPDEST DUP4 DUP2 LT PUSH2 0xA12 JUMPI POP POP PUSH1 0x0 SWAP2 ADD MSTORE JUMP JUMPDEST DUP2 DUP2 ADD MLOAD DUP4 DUP3 ADD MSTORE PUSH1 0x20 ADD PUSH2 0xA02 JUMP JUMPDEST DUP1 SLOAD DUP3 LT ISZERO PUSH2 0xA3A JUMPI PUSH1 0x0 MSTORE PUSH1 0x20 PUSH1 0x0 KECCAK256 ADD SWAP1 PUSH1 0x0 SWAP1 JUMP JUMPDEST PUSH4 0x4E487B71 PUSH1 0xE0 SHL PUSH1 0x0 MSTORE PUSH1 0x32 PUSH1 0x4 MSTORE PUSH1 0x24 PUSH1 0x0 REVERT JUMPDEST PUSH1 0x2 SLOAD DUP2 LT ISZERO PUSH2 0xA3A JUMPI PUSH1 0x2 PUSH1 0x0 MSTORE PUSH1 0x2 SHL PUSH32 0x405787FA12A823E0F2B7631CC41B3BA8828B3321CA811111FA75CD3AA3BB5ACE ADD SWAP1 PUSH1 0x0 SWAP1 JUMP JUMPDEST SWAP1 PUSH1 0x1 DUP3 DUP2 SHR SWAP3 AND DUP1 ISZERO PUSH2 0xABA JUMPI JUMPDEST PUSH1 0x20 DUP4 LT EQ PUSH2 0xAA4 JUMPI JUMP JUMPDEST PUSH4 0x4E487B71 PUSH1 0xE0 SHL PUSH1 0x0 MSTORE PUSH1 0x22 PUSH1 0x4 MSTORE PUSH1 0x24 PUSH1 0x0 REVERT JUMPDEST SWAP2 PUSH1 0x7F AND SWAP2 PUSH2 0xA99 JUMP JUMPDEST SWAP1 PUSH1 0x40 MLOAD SWAP2 DUP3 PUSH1 0x0 DUP3 SLOAD PUSH2 0xAD7 DUP2 PUSH2 0xA8A JUMP JUMPDEST SWAP1 DUP2 DUP5 MSTORE PUSH1 0x20 SWAP5 PUSH1 0x1 SWAP2 PUSH1 0x1 DUP2 AND SWAP1 DUP2 PUSH1 0x0 EQ PUSH2 0xB47 JUMPI POP PUSH1 0x1 EQ PUSH2 0xB08 JUMPI JUMPDEST POP POP POP PUSH2 0xB06 SWAP3 POP SUB DUP4 PUSH2 0x981 JUMP JUMPDEST JUMP JUMPDEST PUSH1 0x0 SWAP1 DUP2 MSTORE DUP6 DUP2 KECCAK256 SWAP6 SWAP4 POP SWAP2 SWAP1 JUMPDEST DUP2 DUP4 LT PUSH2 0xB2F JUMPI POP POP PUSH2 0xB06 SWAP4 POP DUP3 ADD ADD CODESIZE DUP1 DUP1 PUSH2 0xAF7 JUMP JUMPDEST DUP6 SLOAD DUP9 DUP5 ADD DUP6 ADD MSTORE SWAP5 DUP6 ADD SWAP5 DUP8 SWAP5 POP SWAP2 DUP4 ADD SWAP2 PUSH2 0xB16 JUMP JUMPDEST SWAP3 POP POP POP PUSH2 0xB06 SWAP5 SWAP3 POP PUSH1 0xFF NOT AND DUP3 DUP5 ADD MSTORE ISZERO ISZERO PUSH1 0x5 SHL DUP3 ADD ADD CODESIZE DUP1 DUP1 PUSH2 0xAF7 JUMP JUMPDEST SWAP1 PUSH1 0x20 SWAP2 PUSH2 0xB82 DUP2 MLOAD DUP1 SWAP3 DUP2 DUP6 MSTORE DUP6 DUP1 DUP7 ADD SWAP2 ADD PUSH2 0x9FF JUMP JUMPDEST PUSH1 0x1F ADD PUSH1 0x1F NOT AND ADD ADD SWAP1 JUMP JUMPDEST PUSH1 0x20 SWAP1 PUSH1 0x20 PUSH1 0x40 DUP2 DUP4 ADD SWAP3 DUP3 DUP2 MSTORE DUP6 MLOAD DUP1 SWAP5 MSTORE ADD SWAP4 ADD SWAP2 PUSH1 0x0 JUMPDEST DUP3 DUP2 LT PUSH2 0xBB6 JUMPI POP POP POP POP SWAP1 JUMP JUMPDEST DUP4 MLOAD DUP6 MSTORE SWAP4 DUP2 ADD SWAP4 SWAP3 DUP2 ADD SWAP3 PUSH1 0x1 ADD PUSH2 0xBA8 JUMP JUMPDEST PUSH1 0x4 CALLDATALOAD SWAP1 PUSH1 0x1 PUSH1 0x1 PUSH1 0xA0 SHL SUB DUP3 AND DUP3 SUB PUSH2 0x9FA JUMPI JUMP JUMPDEST DUP1 SLOAD PUSH1 0x1 PUSH1 0x40 SHL DUP2 LT ISZERO PUSH2 0x96B JUMPI PUSH2 0xBFD SWAP2 PUSH1 0x1 DUP3 ADD DUP2 SSTORE PUSH2 0xA22 JUMP JUMPDEST DUP2 SWAP3 SWAP2 SLOAD SWAP1 PUSH1 0x3 SHL SWAP2 DUP3 SHL SWAP2 PUSH1 0x0 NOT SWAP1 SHL NOT AND OR SWAP1 SSTORE JUMP JUMPDEST PUSH1 0x0 SLOAD PUSH1 0x1 PUSH1 0x1 PUSH1 0xA0 SHL SUB AND CALLER SUB PUSH2 0xC29 JUMPI JUMP JUMPDEST PUSH1 0x40 MLOAD PUSH4 0x118CDAA7 PUSH1 0xE0 SHL DUP2 MSTORE CALLER PUSH1 0x4 DUP3 ADD MSTORE PUSH1 0x24 SWAP1 REVERT INVALID LOG2 PUSH5 0x6970667358 0x22 SLT KECCAK256 DUP5 0xED 0xB2 0xF6 SWAP13 DUP7 LOG3 0x2E SWAP12 SWAP14 0xB0 MCOPY ADD 0xC2 0x1F 0xC6 PUSH26 0x3EDE1F54831ECE0DC9E851330869BA64736F6C63430008180033 "},"methodIdentifiers":{"allMarkets(uint256)":"52d84d1e","categoryMarkets(string,uint256)":"3caa7e9e","createMarket(string,string,string,uint256,uint256,uint256)":"99eb49b9","creatorMarkets(address,uint256)":"ba1f5195","getAllMarkets()":"b0772d0b","getMarketsByCategory(string)":"76e6caff","getMarketsByCreator(address)":"e99c80bd","getTotalMarkets()":"81ebf209","oracleMarkets()":"15398940","owner()":"8da5cb5b","renounceOwnership()":"715018a6","transferOwnership(address)":"f2fde38b"}}}}}