{"contracts/OracleMarkets.sol":{"OracleMarkets":{"abi":[{"inputs":[],"stateMutability":"nonpayable","type":"constructor"},{"inputs":[],"name":"EnforcedPause","type":"error"},{"inputs":[],"name":"ExpectedPause","type":"error"},{"inputs":[{"internalType":"address","name":"owner","type":"address"}],"name":"OwnableInvalidOwner","type":"error"},{"inputs":[{"internalType":"address","name":"account","type":"address"}],"name":"OwnableUnauthorizedAccount","type":"error"},{"inputs":[],"name":"ReentrancyGuardReentrantCall","type":"error"},{"anonymous":false,"inputs":[{"indexed":true,"internalType":"uint256","name":"betId","type":"uint256"},{"indexed":true,"internalType":"uint256","name":"marketId","type":"uint256"},{"indexed":true,"internalType":"address","name":"bettor","type":"address"},{"indexed":false,"internalType":"enum OracleMarkets.BetOutcome","name":"outcome","type":"uint8"},{"indexed":false,"internalType":"uint256","name":"amount","type":"uint256"},{"indexed":false,"internalType":"string","name":"originChain","type":"string"}],"name":"BetPlaced","type":"event"},{"anonymous":false,"inputs":[{"indexed":true,"internalType":"uint256","name":"marketId","type":"uint256"},{"indexed":false,"internalType":"uint256","name":"timestamp","type":"uint256"}],"name":"MarketCancelled","type":"event"},{"anonymous":false,"inputs":[{"indexed":true,"internalType":"uint256","name":"marketId","type":"uint256"},{"indexed":true,"internalType":"address","name":"creator","type":"address"},{"indexed":false,"internalType":"string","name":"title","type":"string"},{"indexed":false,"internalType":"uint256","name":"endTime","type":"uint256"},{"indexed":false,"internalType":"uint256","name":"oddsYes","type":"uint256"},{"indexed":false,"internalType":"uint256","name":"oddsNo","type":"uint256"}],"name":"MarketCreated","type":"event"},{"anonymous":false,"inputs":[{"indexed":true,"internalType":"uint256","name":"marketId","type":"uint256"},{"indexed":false,"internalType":"uint256","name":"timestamp","type":"uint256"}],"name":"MarketEnded","type":"event"},{"anonymous":false,"inputs":[{"indexed":true,"internalType":"uint256","name":"marketId","type":"uint256"},{"indexed":false,"internalType":"enum OracleMarkets.Resolution","name":"resolution","type":"uint8"},{"indexed":false,"internalType":"bytes32","name":"evidenceHash","type":"bytes32"},{"indexed":false,"internalType":"uint256","name":"timestamp","type":"uint256"}],"name":"MarketResolved","type":"event"},{"anonymous":false,"inputs":[{"indexed":true,"internalType":"address","name":"previousOwner","type":"address"},{"indexed":true,"internalType":"address","name":"newOwner","type":"address"}],"name":"OwnershipTransferred","type":"event"},{"anonymous":false,"inputs":[{"indexed":false,"internalType":"address","name":"account","type":"address"}],"name":"Paused","type":"event"},{"anonymous":false,"inputs":[{"indexed":true,"internalType":"uint256","name":"betId","type":"uint256"},{"indexed":true,"internalType":"address","name":"bettor","type":"address"},{"indexed":false,"internalType":"uint256","name":"amount","type":"uint256"}],"name":"PayoutClaimed","type":"event"},{"anonymous":false,"inputs":[{"indexed":true,"internalType":"uint256","name":"marketId","type":"uint256"},{"indexed":true,"internalType":"address","name":"bettor","type":"address"},{"indexed":false,"internalType":"uint256","name":"amount","type":"uint256"}],"name":"RefundIssued","type":"event"},{"anonymous":false,"inputs":[{"indexed":false,"internalType":"address","name":"account","type":"address"}],"name":"Unpaused","type":"event"},{"inputs":[],"name":"BASIS_POINTS","outputs":[{"internalType":"uint256","name":"","type":"uint256"}],"stateMutability":"view","type":"function"},{"inputs":[],"name":"MAX_ODDS","outputs":[{"internalType":"uint256","name":"","type":"uint256"}],"stateMutability":"view","type":"function"},{"inputs":[],"name":"MIN_ODDS","outputs":[{"internalType":"uint256","name":"","type":"uint256"}],"stateMutability":"view","type":"function"},{"inputs":[{"internalType":"uint256","name":"","type":"uint256"}],"name":"bets","outputs":[{"internalType":"uint256","name":"marketId","type":"uint256"},{"internalType":"address","name":"bettor","type":"address"},{"internalType":"enum OracleMarkets.BetOutcome","name":"outcome","type":"uint8"},{"internalType":"uint256","name":"amount","type":"uint256"},{"internalType":"uint256","name":"timestamp","type":"uint256"},{"internalType":"string","name":"originChain","type":"string"},{"internalType":"bool","name":"claimed","type":"bool"}],"stateMutability":"view","type":"function"},{"inputs":[{"internalType":"uint256","name":"marketId","type":"uint256"}],"name":"cancelMarket","outputs":[],"stateMutability":"nonpayable","type":"function"},{"inputs":[{"internalType":"uint256","name":"betId","type":"uint256"}],"name":"claimPayout","outputs":[],"stateMutability":"nonpayable","type":"function"},{"inputs":[{"internalType":"string","name":"title","type":"string"},{"internalType":"string","name":"description","type":"string"},{"internalType":"string","name":"category","type":"string"},{"internalType":"uint256","name":"endTime","type":"uint256"},{"internalType":"uint256","name":"oddsYes","type":"uint256"},{"internalType":"uint256","name":"oddsNo","type":"uint256"}],"name":"createMarket","outputs":[{"internalType":"uint256","name":"","type":"uint256"}],"stateMutability":"nonpayable","type":"function"},{"inputs":[],"name":"defaultCreatorFee","outputs":[{"internalType":"uint256","name":"","type":"uint256"}],"stateMutability":"view","type":"function"},{"inputs":[],"name":"defaultPlatformFee","outputs":[{"internalType":"uint256","name":"","type":"uint256"}],"stateMutability":"view","type":"function"},{"inputs":[{"internalType":"uint256","name":"marketId","type":"uint256"}],"name":"emergencyRefund","outputs":[],"stateMutability":"nonpayable","type":"function"},{"inputs":[{"internalType":"uint256","name":"marketId","type":"uint256"}],"name":"endMarket","outputs":[],"stateMutability":"nonpayable","type":"function"},{"inputs":[{"internalType":"uint256","name":"betId","type":"uint256"}],"name":"getBet","outputs":[{"internalType":"uint256","name":"marketId","type":"uint256"},{"internalType":"address","name":"bettor","type":"address"},{"internalType":"enum OracleMarkets.BetOutcome","name":"outcome","type":"uint8"},{"internalType":"uint256","name":"amount","type":"uint256"},{"internalType":"uint256","name":"timestamp","type":"uint256"},{"internalType":"string","name":"originChain","type":"string"},{"internalType":"bool","name":"claimed","type":"bool"}],"stateMutability":"view","type":"function"},{"inputs":[{"internalType":"uint256","name":"marketId","type":"uint256"}],"name":"getMarket","outputs":[{"internalType":"uint256","name":"id","type":"uint256"},{"internalType":"address","name":"creator","type":"address"},{"internalType":"string","name":"title","type":"string"},{"internalType":"string","name":"description","type":"string"},{"internalType":"string","name":"category","type":"string"},{"internalType":"uint256","name":"endTime","type":"uint256"},{"internalType":"uint256","name":"createdAt","type":"uint256"},{"internalType":"enum OracleMarkets.MarketState","name":"state","type":"uint8"},{"internalType":"enum OracleMarkets.Resolution","name":"resolution","type":"uint8"},{"internalType":"uint256","name":"oddsYes","type":"uint256"},{"internalType":"uint256","name":"oddsNo","type":"uint256"},{"internalType":"uint256","name":"totalYesPool","type":"uint256"},{"internalType":"uint256","name":"totalNoPool","type":"uint256"}],"stateMutability":"view","type":"function"},{"inputs":[{"internalType":"uint256","name":"marketId","type":"uint256"}],"name":"getMarketBets","outputs":[{"internalType":"uint256[]","name":"","type":"uint256[]"}],"stateMutability":"view","type":"function"},{"inputs":[{"internalType":"address","name":"user","type":"address"}],"name":"getUserBets","outputs":[{"internalType":"uint256[]","name":"","type":"uint256[]"}],"stateMutability":"view","type":"function"},{"inputs":[{"internalType":"uint256","name":"","type":"uint256"},{"internalType":"uint256","name":"","type":"uint256"}],"name":"marketBets","outputs":[{"internalType":"uint256","name":"","type":"uint256"}],"stateMutability":"view","type":"function"},{"inputs":[{"internalType":"uint256","name":"","type":"uint256"}],"name":"markets","outputs":[{"internalType":"uint256","name":"id","type":"uint256"},{"internalType":"address","name":"creator","type":"address"},{"internalType":"string","name":"title","type":"string"},{"internalType":"string","name":"description","type":"string"},{"internalType":"string","name":"category","type":"string"},{"internalType":"uint256","name":"endTime","type":"uint256"},{"internalType":"uint256","name":"createdAt","type":"uint256"},{"internalType":"enum OracleMarkets.MarketState","name":"state","type":"uint8"},{"internalType":"enum OracleMarkets.Resolution","name":"resolution","type":"uint8"},{"internalType":"uint256","name":"oddsYes","type":"uint256"},{"internalType":"uint256","name":"oddsNo","type":"uint256"},{"internalType":"uint256","name":"totalYesPool","type":"uint256"},{"internalType":"uint256","name":"totalNoPool","type":"uint256"},{"internalType":"uint256","name":"creatorFee","type":"uint256"},{"internalType":"uint256","name":"platformFee","type":"uint256"},{"internalType":"bytes32","name":"evidenceHash","type":"bytes32"},{"internalType":"uint256","name":"resolvedAt","type":"uint256"},{"internalType":"uint256","name":"totalClaimed","type":"uint256"}],"stateMutability":"view","type":"function"},{"inputs":[],"name":"nextBetId","outputs":[{"internalType":"uint256","name":"","type":"uint256"}],"stateMutability":"view","type":"function"},{"inputs":[],"name":"nextMarketId","outputs":[{"internalType":"uint256","name":"","type":"uint256"}],"stateMutability":"view","type":"function"},{"inputs":[],"name":"oracleResolver","outputs":[{"internalType":"address","name":"","type":"address"}],"stateMutability":"view","type":"function"},{"inputs":[],"name":"owner","outputs":[{"internalType":"address","name":"","type":"address"}],"stateMutability":"view","type":"function"},{"inputs":[],"name":"pause","outputs":[],"stateMutability":"nonpayable","type":"function"},{"inputs":[],"name":"paused","outputs":[{"internalType":"bool","name":"","type":"bool"}],"stateMutability":"view","type":"function"},{"inputs":[{"internalType":"uint256","name":"marketId","type":"uint256"},{"internalType":"enum OracleMarkets.BetOutcome","name":"outcome","type":"uint8"},{"internalType":"string","name":"originChain","type":"string"}],"name":"placeBet","outputs":[],"stateMutability":"payable","type":"function"},{"inputs":[{"internalType":"uint256","name":"betId","type":"uint256"}],"name":"refundBet","outputs":[],"stateMutability":"nonpayable","type":"function"},{"inputs":[],"name":"renounceOwnership","outputs":[],"stateMutability":"nonpayable","type":"function"},{"inputs":[{"internalType":"uint256","name":"marketId","type":"uint256"},{"internalType":"enum OracleMarkets.Resolution","name":"resolution","type":"uint8"},{"internalType":"bytes32","name":"evidenceHash","type":"bytes32"}],"name":"resolveMarket","outputs":[],"stateMutability":"nonpayable","type":"function"},{"inputs":[{"internalType":"uint256","name":"newCreatorFee","type":"uint256"},{"internalType":"uint256","name":"newPlatformFee","type":"uint256"}],"name":"setDefaultFees","outputs":[],"stateMutability":"nonpayable","type":"function"},{"inputs":[{"internalType":"address","name":"newOracle","type":"address"}],"name":"setOracleResolver","outputs":[],"stateMutability":"nonpayable","type":"function"},{"inputs":[{"internalType":"address","name":"newOwner","type":"address"}],"name":"transferOwnership","outputs":[],"stateMutability":"nonpayable","type":"function"},{"inputs":[],"name":"unpause","outputs":[],"stateMutability":"nonpayable","type":"function"},{"inputs":[{"internalType":"address","name":"","type":"address"},{"internalType":"uint256","name":"","type":"uint256"}],"name":"userBets","outputs":[{"internalType":"uint256","name":"","type":"uint256"}],"stateMutability":"view","type":"function"},{"stateMutability":"payable","type":"receive"}],"evm":{"bytecode":{"linkReferences":{},"object":"608080604052346100b957600160005533156100a35760018054610100600160a81b0319811633600881811b610100600160a81b0316929092179093556040519291901c6001600160a01b03167f8be0079c531659141344cd1fd0a4f28419497f9722a3daafe3b4186f6b6457e0600080a36001600281905560035560c86008556064600955600a80546001600160a01b031916331790556120e790816100bf8239f35b631e4fbdf760e01b815260006004820152602490fd5b600080fdfe610120604052600436101561001c575b361561001a57600080fd5b005b60003560e01c8063061e494f14611ba8578063157bdcce14611acc5780631c34212c14611aae57806322af00fa14611a455780632d56657d146119ca5780633adadc0a146119305780633f4ba83a146118c6578063406ef2ef146118a85780635c975abb1461188557806370e5deb91461182e578063715018a6146117cd5780637c16cd9e146116865780638068aa681461163c5780638456cb59146115e35780638a69614e146112e45780638da5cb5b146112b757806394479bbb1461127457806399eb49b914610c945780639aca279214610c76578063ae07d05114610c59578063b1283e7714610ac0578063b5acbd4314610a97578063b9bdb4ef14610a30578063c62d359c146106c5578063d5220b6214610527578063e1f1c4a71461050a578063e1fdb4b4146103cc578063eb44fdd314610299578063f014a1081461027c578063f0b2cf131461025e578063f2e550211461021f5763f2fde38b0361000f573461021a57602036600319011261021a5761019a611db0565b6101a2612041565b6001600160a01b038181169182156102015760018054610100600160a81b03198116600893841b610100600160a81b031617909155901c167f8be0079c531659141344cd1fd0a4f28419497f9722a3daafe3b4186f6b6457e0600080a3005b604051631e4fbdf760e01b815260006004820152602490fd5b600080fd5b3461021a5761022d36611ea1565b9060005260066020526040600020805482101561021a5760209161025091611e02565b90546040519160031b1c8152f35b3461021a57600036600319011261021a576020600954604051908152f35b3461021a57600036600319011261021a57602060405161251c8152f35b3461021a57602036600319011261021a57600435801515806103c1575b6102bf90611eb7565b60005260046020526040600020805490600160a01b6001900360018201541690600581015490600681015460078201546008830154600984015491600a85015493600b860154956002810161031390611d0b565b9061032060038201611d0b565b9060040161032d90611d0b565b916040519b8c9b6101a0918d5260208d01528060408d01528b0161035091611c21565b8a810360608c015261036191611c21565b89810360808b015261037291611c21565b9660a089015260c088015260e0870160ff82169061038f91611e87565b61010087019060081c60ff16906103a591611e94565b6101208601526101408501526101608401526101808301520390f35b5060025481106102b6565b3461021a57602036600319011261021a576103e5612070565b6004356000526005602052604060002080546000526004602052604060002061041b60018060a01b036001840154163314611f3b565b600582019060ff600783549261043383851615611f77565b01541660068110156104f4576004036104b85760019060ff19161790556002810190600080808085548181156104af575b3390f1156104a357549054906040519182527f7a482fdeb6bc9a1376f597068a214a7a39472bb2eff1b8cad21ba04f49ddca1b60203393a36001600055005b6040513d6000823e3d90fd5b506108fc610464565b60405162461bcd60e51b815260206004820152601460248201527313585c9ad95d081b9bdd0818d85b98d95b1b195960621b6044820152606490fd5b634e487b7160e01b600052602160045260246000fd5b3461021a57600036600319011261021a5760206040516127108152f35b3461021a57606036600319011261021a57600435602435600381101561021a57600a5460443591906001600160a01b03163303610689578215158061067e575b61057090611eb7565b826000526004602052604060002090600782019283549260ff841660068110156104f457600203610646578215610601577f3e38063ee64f3323e6a7efa457a12be81aff9029674c237a651cf0033105cdbc94600360609561ff008660081b169061ffff19161717905581600e820155600f429101556105f36040518093611e94565b6020820152426040820152a2005b60405162461bcd60e51b815260206004820152601760248201527f4d7573742070726f76696465207265736f6c7574696f6e0000000000000000006044820152606490fd5b60405162461bcd60e51b815260206004820152601060248201526f13585c9ad95d081b9bdd08195b99195960821b6044820152606490fd5b506002548310610567565b60405162461bcd60e51b815260206004820152601460248201527313db9b1e481bdc9858db194818d85b8818d85b1b60621b6044820152606490fd5b606036600319011261021a57600435602435600281101561021a5767ffffffffffffffff9160443583811161021a57610702903690600401611e30565b9080151580610a25575b61071590611eb7565b61071d612070565b610725612093565b806000526020926004845260406000209060ff6007830154169460068610156104f4576107556001809714611efb565b60058301544210156109f25734156109b5576003549261077484611ff8565b60039081556000858152600584526040902086815588810180546001600160a81b0319163360ff60a01b19161760a087901b60ff60a01b16179055346002820155429181019190915586516004820199811161099f576107d48a54611caf565b601f8111610956575b5083601f82116001146108cd579981600593927fab5c9a72c480e253e81f6b334b1a69656bea5a9f9c54a340831d3c186b42d69298999a9b9c6000916108c2575b50600019600383901b1c1916908c1b1790555b01805460ff19169055826108ad57600a0161084d348254611fb5565b90555b8460005260068152610866846040600020612007565b336000526007815261087c846040600020612007565b6108896040518093611c14565b349082015260606040820152806108a533966060830190611c21565b0390a4600055005b600b016108bb348254611fb5565b9055610850565b90508b01518d61081e565b601f198216908b600052856000209160005b8181106109415750928b9c927fab5c9a72c480e253e81f6b334b1a69656bea5a9f9c54a340831d3c186b42d692999a9b9c92826005979610610928575b5050811b019055610831565b8d015160001960f88460031b161c191690558d8061091c565b8b8301518455928c01929187019187016108df565b8a60005284600020601f830160051c810191868410610995575b601f0160051c01908a905b8281106109895750506107dd565b60008155018a9061097b565b9091508190610970565b634e487b7160e01b600052604160045260246000fd5b6064906040519062461bcd60e51b825260048201526016602482015275042657420616d6f756e74206d757374206265203e20360541b6044820152fd5b6064906040519062461bcd60e51b82526004820152600c60248201526b13585c9ad95d08195b99195960a21b6044820152fd5b50600254811061070c565b3461021a57610a3e36611ea1565b90610a47612041565b6103e8610a548383611fb5565b1015610a6257600955600855005b60405162461bcd60e51b815260206004820152600d60248201526c08ccacae640e8dede40d0d2ced609b1b6044820152606490fd5b3461021a57600036600319011261021a57600a546040516001600160a01b039091168152602090f35b3461021a57602036600319011261021a5760048035600090815260209190915260409020805460a05260018101546001600160a01b031690610b0460028201611d0b565b60c052610b1360038201611d0b565b61010052610b2360048201611d0b565b916005820154926006830154600784015460088501546009860154600a87015491600b88015493600c89015495600d8a015497600e8b015499600f8c01549b6011015460805260405160e0526102409060a05160e0515260e051602001528060e0516040015260e0510160c05190610b9a91611c21565b60e051810360e051606001526101005190610bb491611c21565b60e051810360e05160800152610bc991611c21565b9a60e05160a0015260e05160c0015260e05160e00160ff821690610bec91611e87565b60e051610100019060081c60ff1690610c0491611e94565b60e051610120015260e051610140015260e051610160015260e051610180015260e0516101a0015260e0516101c0015260e0516101e0015260e051610200015260805160e051610220015260e051900360e051f35b3461021a57600036600319011261021a5760206040516123288152f35b3461021a57600036600319011261021a576020600354604051908152f35b3461021a5760c036600319011261021a5760043567ffffffffffffffff811161021a57610cc5903690600401611e30565b60243567ffffffffffffffff811161021a57610ce5903690600401611e30565b60443567ffffffffffffffff811161021a57610d05903690600401611e30565b91610d0e612093565b42606435111561122f578051156111f957612328806084351015806111eb575b156111af5760a4351015806111a1575b156111665760025491610d5083611ff8565b60025582600052600460205260406000209083825560018201336bffffffffffffffffffffffff60a01b825416179055825167ffffffffffffffff811161099f57610d9e6002840154611caf565b601f811161111f575b50806020601f82116001146110b2576000916110a7575b508160011b916000199060031b1c19161760028301555b80519067ffffffffffffffff821161099f578190610df66003850154611caf565b601f8111611054575b50602090601f8311600114610fe257600092610fd7575b50508160011b916000199060031b1c19161760038201555b60048101845167ffffffffffffffff811161099f57610e4d8254611caf565b601f8111610f8f575b50806020968790601f8311600114610f2b57600092610f20575b50508160011b916000199060031b1c19161790555b606435600582015542600682015560078101600161ffff19825416179055608435600882015560a4356009820155600954600c820155600d600854910155817f4a7d407b15f60472268a43a4f0fc258be19105b8967dd8123b49b25ade8d0128610efa60405193608085526080850190611c21565b9260643586820152608435604082015260a43560608201528033940390a3604051908152f35b015190508780610e70565b60008581528981209350601f198516905b818110610f785750908460019594939210610f5f575b505050811b019055610e85565b015160001960f88460031b161c19169055878080610f52565b92938a600181928786015181550195019301610f3c565b826000526020600020601f830160051c81019160208410610fcd575b601f0160051c01905b818110610fc15750610e56565b60008155600101610fb4565b9091508190610fab565b015190508680610e16565b9250600384016000526020600020906000935b601f1984168510611039576001945083601f19811610611020575b505050811b016003820155610e2e565b015160001960f88460031b161c19169055868080611010565b81810151835560209485019460019093019290910190610ff5565b909150600384016000526020600020601f840160051c8101602085106110a0575b90849392915b601f830160051c82018110611091575050610dff565b6000815585945060010161107b565b5080611075565b905084015187610dbe565b91506002840160005260206000206000925b601f1983168410611107576001935082601f198116106110ee575b5050811b016002830155610dd5565b86015160001960f88460031b161c1916905587806110df565b868101518255602093840193600190920191016110c4565b600284016000526020600020601f830160051c81016020841061115f575b601f830160051c82018110611153575050610da7565b6000815560010161113d565b508061113d565b60405162461bcd60e51b81526020600482015260136024820152724f6464734e6f206f7574206f662072616e676560681b6044820152606490fd5b5061251c60a4351115610d3e565b60405162461bcd60e51b81526020600482015260146024820152734f646473596573206f7574206f662072616e676560601b6044820152606490fd5b5061251c6084351115610d2e565b60405162461bcd60e51b815260206004820152600e60248201526d151a5d1b19481c995c5d5a5c995960921b6044820152606490fd5b60405162461bcd60e51b815260206004820152601a60248201527f456e642074696d65206d75737420626520696e206675747572650000000000006044820152606490fd5b3461021a57602036600319011261021a5761128d611db0565b611295612041565b600a80546001600160a01b0319166001600160a01b0392909216919091179055005b3461021a57600036600319011261021a5760015460405160089190911c6001600160a01b03168152602090f35b3461021a5760208060031936011261021a57600435611301612070565b6000818152600583526040808220805483526004855291206001808301549094929392916001600160a01b039161133b8382163314611f3b565b600586019586549161135060ff841615611f77565b600784015460ff811660068110156104f4576003036115a85760081c60ff1690600382101590816104f457828b149283918261158f575b821561155d575b50501561152657600a85015491600b860154926113ab8482611fb5565b926104f4576113c6936002921561151e5750935b0154611fd8565b8115611508576114079385928a92049361140c61271095866113ec600c86015483611fd8565b049788976113fe600d87015484611fd8565b04988992611feb565b611feb565b998360ff1980931617905533600052601082018852826040600020918254161790556011810161143d8a8254611fb5565b905583159384156114db575b5050505050801580156114ac575b50505082600081156114a3575b600080809381933390f1156104a3577fe97cee5a4c0549d3fdc81e322b718ddf0aeb3418ec87dce4f9a7fb28d117c312906040519384523393a3600055005b506108fc611464565b600080939281939282938a5460081c169083906114d2575bf1156104a357848080611457565b506108fc6114c4565b6000948594859485940154169083906114ff575bf1156104a3578682878280611449565b506108fc6114ef565b634e487b7160e01b600052601260045260246000fd5b9050936113bf565b60405162461bcd60e51b815260048101889052600f60248201526e2132ba103234b2103737ba103bb4b760891b6044820152606490fd5b915091506002600092149081611576575b508b8061138e565b60ff915060a01c1660028110156104f4578a148b61156e565b915060ff8260a01c1660028110156104f4571591611387565b60405162461bcd60e51b815260048101889052601360248201527213585c9ad95d081b9bdd081c995cdbdb1d9959606a1b6044820152606490fd5b3461021a57600036600319011261021a576115fc612041565b611604612093565b600160ff19815416176001557f62e78cea01bee320cd4e420270b5ea74000d11b0c9f74754ebdbfc544b05a2586020604051338152a1005b3461021a57604036600319011261021a57611655611db0565b6001600160a01b031660009081526007602052604090208054602435919082101561021a5760209161025091611e02565b3461021a57602036600319011261021a57600435801515806117c2575b6116ac90611eb7565b60008181526004602052604090206001810154336001600160a01b03918216149081156117b1575b501561177457600701805460ff811660068110156104f45760018114908115611769575b50156117345760049060ff19161790557fe3285420e15d5e840b024eca291c363bac53e810fc7f58b4c655c95ce40acd3b6020604051428152a2005b60405162461bcd60e51b815260206004820152600d60248201526c10d85b9b9bdd0818d85b98d95b609a1b6044820152606490fd5b6002915014846116f8565b60405162461bcd60e51b815260206004820152601560248201527427b7363c9031b932b0ba37b91037b91037bbb732b960591b6044820152606490fd5b905060015460081c163314836116d4565b5060025481106116a3565b3461021a57600036600319011261021a576117e6612041565b60018054610100600160a81b0319811690915560009060081c6001600160a01b03167f8be0079c531659141344cd1fd0a4f28419497f9722a3daafe3b4186f6b6457e08280a3005b3461021a57602036600319011261021a5760043561184a612041565b8015158061187a575b61185c90611eb7565b6000908152600460205260409020600701805460ff19166005179055005b506002548110611853565b3461021a57600036600319011261021a57602060ff600154166040519015158152f35b3461021a57600036600319011261021a576020600254604051908152f35b3461021a57600036600319011261021a576118df612041565b60015460ff81161561191e5760ff19166001557f5db9ee0a495bf2e6ff9c91a7834c1ba4fdd244a5e8aa4e537bd38aeae4b073aa6020604051338152a1005b604051638dfc202b60e01b8152600490fd5b3461021a5760208060031936011261021a57600435801515806119bf575b61195790611eb7565b60005260066020526040600020906040519081602084549182815201936000526020600020916000905b8282106119a8576119a48561199881890382611ce9565b60405191829182611dc6565b0390f35b835486529485019460019384019390910190611981565b50600254811061194e565b3461021a5760208060031936011261021a576001600160a01b036119ec611db0565b1660005260076020526040600020906040519081602084549182815201936000526020600020916000905b828210611a2e576119a48561199881890382611ce9565b835486529485019460019384019390910190611a17565b3461021a57602036600319011261021a576004356000526005602052604060002080546119a4600183015492600281015490600381015460ff6005611a8c60048501611d0b565b930154169260405196879660ff8260a01c169160018060a01b03169088611c61565b3461021a57600036600319011261021a576020600854604051908152f35b3461021a57602036600319011261021a5760043580151580611b9d575b611af290611eb7565b8060005260046020526040600020600781019081549060ff82169060068210156104f457611b24600160059314611efb565b01544210611b615760029060ff19161790557e0b6feae4bec70344a7d0e99f4c0237adaaeee2fbb258266be400bd8612a3326020604051428152a2005b60405162461bcd60e51b815260206004820152601460248201527313585c9ad95d081b9bdd081e595d08195b99195960621b6044820152606490fd5b506002548110611ae9565b3461021a57602036600319011261021a576004356000526005602052604060002080546119a460018301549260028101546003820154611bf2600460ff6005860154169401611d0b565b60405196879691939160a082901c60ff16916001600160a01b03169088611c61565b9060028210156104f45752565b919082519283825260005b848110611c4d575050826000602080949584010152601f8019910116010190565b602081830181015184830182015201611c2c565b9592611c8c9060c09693611ca796939a999a895260018060a01b031660208901526040880190611c14565b6060860152608085015260e060a085015260e0840190611c21565b931515910152565b90600182811c92168015611cdf575b6020831014611cc957565b634e487b7160e01b600052602260045260246000fd5b91607f1691611cbe565b90601f8019910116810190811067ffffffffffffffff82111761099f57604052565b90604051918260008254611d1e81611caf565b90818452602094600191600181169081600014611d8e5750600114611d4f575b505050611d4d92500383611ce9565b565b600090815285812095935091905b818310611d76575050611d4d9350820101388080611d3e565b85548884018501529485019487945091830191611d5d565b92505050611d4d94925060ff191682840152151560051b820101388080611d3e565b600435906001600160a01b038216820361021a57565b602090602060408183019282815285518094520193019160005b828110611dee575050505090565b835185529381019392810192600101611de0565b8054821015611e1a5760005260206000200190600090565b634e487b7160e01b600052603260045260246000fd5b81601f8201121561021a5780359067ffffffffffffffff821161099f5760405192611e65601f8401601f191660200185611ce9565b8284526020838301011161021a57816000926020809301838601378301015290565b9060068210156104f45752565b9060038210156104f45752565b604090600319011261021a576004359060243590565b15611ebe57565b60405162461bcd60e51b815260206004820152601560248201527413585c9ad95d08191bd95cc81b9bdd08195e1a5cdd605a1b6044820152606490fd5b15611f0257565b60405162461bcd60e51b81526020600482015260116024820152704d61726b6574206e6f742061637469766560781b6044820152606490fd5b15611f4257565b60405162461bcd60e51b815260206004820152600d60248201526c2737ba103132ba1037bbb732b960991b6044820152606490fd5b15611f7e57565b60405162461bcd60e51b815260206004820152600f60248201526e105b1c9958591e4818db185a5b5959608a1b6044820152606490fd5b91908201809211611fc257565b634e487b7160e01b600052601160045260246000fd5b81810292918115918404141715611fc257565b91908203918211611fc257565b6000198114611fc25760010190565b80546801000000000000000081101561099f5761202991600182018155611e02565b819291549060031b91821b91600019901b1916179055565b60015460081c6001600160a01b0316330361205857565b60405163118cdaa760e01b8152336004820152602490fd5b600260005414612081576002600055565b604051633ee5aeb560e01b8152600490fd5b60ff6001541661209f57565b60405163d93c066560e01b8152600490fdfea26469706673582212208f44eb81d8caf87176176e52c866fae7b28485bc7598abc86c49d87aa53c98b964736f6c63430008180033","opcodes":"PUSH1 0x80 DUP1 PUSH1 0x40 MSTORE CALLVALUE PUSH2 0xB9 JUMPI PUSH1 0x1 PUSH1 0x0 SSTORE CALLER ISZERO PUSH2 0xA3 JUMPI PUSH1 0x1 DUP1 SLOAD PUSH2 0x100 PUSH1 0x1 PUSH1 0xA8 SHL SUB NOT DUP2 AND CALLER PUSH1 0x8 DUP2 DUP2 SHL PUSH2 0x100 PUSH1 0x1 PUSH1 0xA8 SHL SUB AND SWAP3 SWAP1 SWAP3 OR SWAP1 SWAP4 SSTORE PUSH1 0x40 MLOAD SWAP3 SWAP2 SWAP1 SHR PUSH1 0x1 PUSH1 0x1 PUSH1 0xA0 SHL SUB AND PUSH32 0x8BE0079C531659141344CD1FD0A4F28419497F9722A3DAAFE3B4186F6B6457E0 PUSH1 0x0 DUP1 LOG3 PUSH1 0x1 PUSH1 0x2 DUP2 SWAP1 SSTORE PUSH1 0x3 SSTORE PUSH1 0xC8 PUSH1 0x8 SSTORE PUSH1 0x64 PUSH1 0x9 SSTORE PUSH1 0xA DUP1 SLOAD PUSH1 0x1 PUSH1 0x1 PUSH1 0xA0 SHL SUB NOT AND CALLER OR SWAP1 SSTORE PUSH2 0x20E7 SWAP1 DUP2 PUSH2 0xBF DUP3 CODECOPY RETURN JUMPDEST PUSH4 0x1E4FBDF7 PUSH1 0xE0 SHL DUP2 MSTORE PUSH1 0x0 PUSH1 0x4 DUP3 ADD MSTORE PUSH1 0x24 SWAP1 REVERT JUMPDEST PUSH1 0x0 DUP1 REVERT INVALID PUSH2 0x120 PUSH1 0x40 MSTORE PUSH1 0x4 CALLDATASIZE LT ISZERO PUSH2 0x1C JUMPI JUMPDEST CALLDATASIZE ISZERO PUSH2 0x1A JUMPI PUSH1 0x0 DUP1 REVERT JUMPDEST STOP JUMPDEST PUSH1 0x0 CALLDATALOAD PUSH1 0xE0 SHR DUP1 PUSH4 0x61E494F EQ PUSH2 0x1BA8 JUMPI DUP1 PUSH4 0x157BDCCE EQ PUSH2 0x1ACC JUMPI DUP1 PUSH4 0x1C34212C EQ PUSH2 0x1AAE JUMPI DUP1 PUSH4 0x22AF00FA EQ PUSH2 0x1A45 JUMPI DUP1 PUSH4 0x2D56657D EQ PUSH2 0x19CA JUMPI DUP1 PUSH4 0x3ADADC0A EQ PUSH2 0x1930 JUMPI DUP1 PUSH4 0x3F4BA83A EQ PUSH2 0x18C6 JUMPI DUP1 PUSH4 0x406EF2EF EQ PUSH2 0x18A8 JUMPI DUP1 PUSH4 0x5C975ABB EQ PUSH2 0x1885 JUMPI DUP1 PUSH4 0x70E5DEB9 EQ PUSH2 0x182E JUMPI DUP1 PUSH4 0x715018A6 EQ PUSH2 0x17CD JUMPI DUP1 PUSH4 0x7C16CD9E EQ PUSH2 0x1686 JUMPI DUP1 PUSH4 0x8068AA68 EQ PUSH2 0x163C JUMPI DUP1 PUSH4 0x8456CB59 EQ PUSH2 0x15E3 JUMPI DUP1 PUSH4 0x8A69614E EQ PUSH2 0x12E4 JUMPI DUP1 PUSH4 0x8DA5CB5B EQ PUSH2 0x12B7 JUMPI DUP1 PUSH4 0x94479BBB EQ PUSH2 0x1274 JUMPI DUP1 PUSH4 0x99EB49B9 EQ PUSH2 0xC94 JUMPI DUP1 PUSH4 0x9ACA2792 EQ PUSH2 0xC76 JUMPI DUP1 PUSH4 0xAE07D051 EQ PUSH2 0xC59 JUMPI DUP1 PUSH4 0xB1283E77 EQ PUSH2 0xAC0 JUMPI DUP1 PUSH4 0xB5ACBD43 EQ PUSH2 0xA97 JUMPI DUP1 PUSH4 0xB9BDB4EF EQ PUSH2 0xA30 JUMPI DUP1 PUSH4 0xC62D359C EQ PUSH2 0x6C5 JUMPI DUP1 PUSH4 0xD5220B62 EQ PUSH2 0x527 JUMPI DUP1 PUSH4 0xE1F1C4A7 EQ PUSH2 0x50A JUMPI DUP1 PUSH4 0xE1FDB4B4 EQ PUSH2 0x3CC JUMPI DUP1 PUSH4 0xEB44FDD3 EQ PUSH2 0x299 JUMPI DUP1 PUSH4 0xF014A108 EQ PUSH2 0x27C JUMPI DUP1 PUSH4 0xF0B2CF13 EQ PUSH2 0x25E JUMPI DUP1 PUSH4 0xF2E55021 EQ PUSH2 0x21F JUMPI PUSH4 0xF2FDE38B SUB PUSH2 0xF JUMPI CALLVALUE PUSH2 0x21A JUMPI PUSH1 0x20 CALLDATASIZE PUSH1 0x3 NOT ADD SLT PUSH2 0x21A JUMPI PUSH2 0x19A PUSH2 0x1DB0 JUMP JUMPDEST PUSH2 0x1A2 PUSH2 0x2041 JUMP JUMPDEST PUSH1 0x1 PUSH1 0x1 PUSH1 0xA0 SHL SUB DUP2 DUP2 AND SWAP2 DUP3 ISZERO PUSH2 0x201 JUMPI PUSH1 0x1 DUP1 SLOAD PUSH2 0x100 PUSH1 0x1 PUSH1 0xA8 SHL SUB NOT DUP2 AND PUSH1 0x8 SWAP4 DUP5 SHL PUSH2 0x100 PUSH1 0x1 PUSH1 0xA8 SHL SUB AND OR SWAP1 SWAP2 SSTORE SWAP1 SHR AND PUSH32 0x8BE0079C531659141344CD1FD0A4F28419497F9722A3DAAFE3B4186F6B6457E0 PUSH1 0x0 DUP1 LOG3 STOP JUMPDEST PUSH1 0x40 MLOAD PUSH4 0x1E4FBDF7 PUSH1 0xE0 SHL DUP2 MSTORE PUSH1 0x0 PUSH1 0x4 DUP3 ADD MSTORE PUSH1 0x24 SWAP1 REVERT JUMPDEST PUSH1 0x0 DUP1 REVERT JUMPDEST CALLVALUE PUSH2 0x21A JUMPI PUSH2 0x22D CALLDATASIZE PUSH2 0x1EA1 JUMP JUMPDEST SWAP1 PUSH1 0x0 MSTORE PUSH1 0x6 PUSH1 0x20 MSTORE PUSH1 0x40 PUSH1 0x0 KECCAK256 DUP1 SLOAD DUP3 LT ISZERO PUSH2 0x21A JUMPI PUSH1 0x20 SWAP2 PUSH2 0x250 SWAP2 PUSH2 0x1E02 JUMP JUMPDEST SWAP1 SLOAD PUSH1 0x40 MLOAD SWAP2 PUSH1 0x3 SHL SHR DUP2 MSTORE RETURN JUMPDEST CALLVALUE PUSH2 0x21A JUMPI PUSH1 0x0 CALLDATASIZE PUSH1 0x3 NOT ADD SLT PUSH2 0x21A JUMPI PUSH1 0x20 PUSH1 0x9 SLOAD PUSH1 0x40 MLOAD SWAP1 DUP2 MSTORE RETURN JUMPDEST CALLVALUE PUSH2 0x21A JUMPI PUSH1 0x0 CALLDATASIZE PUSH1 0x3 NOT ADD SLT PUSH2 0x21A JUMPI PUSH1 0x20 PUSH1 0x40 MLOAD PUSH2 0x251C DUP2 MSTORE RETURN JUMPDEST CALLVALUE PUSH2 0x21A JUMPI PUSH1 0x20 CALLDATASIZE PUSH1 0x3 NOT ADD SLT PUSH2 0x21A JUMPI PUSH1 0x4 CALLDATALOAD DUP1 ISZERO ISZERO DUP1 PUSH2 0x3C1 JUMPI JUMPDEST PUSH2 0x2BF SWAP1 PUSH2 0x1EB7 JUMP JUMPDEST PUSH1 0x0 MSTORE PUSH1 0x4 PUSH1 0x20 MSTORE PUSH1 0x40 PUSH1 0x0 KECCAK256 DUP1 SLOAD SWAP1 PUSH1 0x1 PUSH1 0xA0 SHL PUSH1 0x1 SWAP1 SUB PUSH1 0x1 DUP3 ADD SLOAD AND SWAP1 PUSH1 0x5 DUP2 ADD SLOAD SWAP1 PUSH1 0x6 DUP2 ADD SLOAD PUSH1 0x7 DUP3 ADD SLOAD PUSH1 0x8 DUP4 ADD SLOAD PUSH1 0x9 DUP5 ADD SLOAD SWAP2 PUSH1 0xA DUP6 ADD SLOAD SWAP4 PUSH1 0xB DUP7 ADD SLOAD SWAP6 PUSH1 0x2 DUP2 ADD PUSH2 0x313 SWAP1 PUSH2 0x1D0B JUMP JUMPDEST SWAP1 PUSH2 0x320 PUSH1 0x3 DUP3 ADD PUSH2 0x1D0B JUMP JUMPDEST SWAP1 PUSH1 0x4 ADD PUSH2 0x32D SWAP1 PUSH2 0x1D0B JUMP JUMPDEST SWAP2 PUSH1 0x40 MLOAD SWAP12 DUP13 SWAP12 PUSH2 0x1A0 SWAP2 DUP14 MSTORE PUSH1 0x20 DUP14 ADD MSTORE DUP1 PUSH1 0x40 DUP14 ADD MSTORE DUP12 ADD PUSH2 0x350 SWAP2 PUSH2 0x1C21 JUMP JUMPDEST DUP11 DUP2 SUB PUSH1 0x60 DUP13 ADD MSTORE PUSH2 0x361 SWAP2 PUSH2 0x1C21 JUMP JUMPDEST DUP10 DUP2 SUB PUSH1 0x80 DUP12 ADD MSTORE PUSH2 0x372 SWAP2 PUSH2 0x1C21 JUMP JUMPDEST SWAP7 PUSH1 0xA0 DUP10 ADD MSTORE PUSH1 0xC0 DUP9 ADD MSTORE PUSH1 0xE0 DUP8 ADD PUSH1 0xFF DUP3 AND SWAP1 PUSH2 0x38F SWAP2 PUSH2 0x1E87 JUMP JUMPDEST PUSH2 0x100 DUP8 ADD SWAP1 PUSH1 0x8 SHR PUSH1 0xFF AND SWAP1 PUSH2 0x3A5 SWAP2 PUSH2 0x1E94 JUMP JUMPDEST PUSH2 0x120 DUP7 ADD MSTORE PUSH2 0x140 DUP6 ADD MSTORE PUSH2 0x160 DUP5 ADD MSTORE PUSH2 0x180 DUP4 ADD MSTORE SUB SWAP1 RETURN JUMPDEST POP PUSH1 0x2 SLOAD DUP2 LT PUSH2 0x2B6 JUMP JUMPDEST CALLVALUE PUSH2 0x21A JUMPI PUSH1 0x20 CALLDATASIZE PUSH1 0x3 NOT ADD SLT PUSH2 0x21A JUMPI PUSH2 0x3E5 PUSH2 0x2070 JUMP JUMPDEST PUSH1 0x4 CALLDATALOAD PUSH1 0x0 MSTORE PUSH1 0x5 PUSH1 0x20 MSTORE PUSH1 0x40 PUSH1 0x0 KECCAK256 DUP1 SLOAD PUSH1 0x0 MSTORE PUSH1 0x4 PUSH1 0x20 MSTORE PUSH1 0x40 PUSH1 0x0 KECCAK256 PUSH2 0x41B PUSH1 0x1 DUP1 PUSH1 0xA0 SHL SUB PUSH1 0x1 DUP5 ADD SLOAD AND CALLER EQ PUSH2 0x1F3B JUMP JUMPDEST PUSH1 0x5 DUP3 ADD SWAP1 PUSH1 0xFF PUSH1 0x7 DUP4 SLOAD SWAP3 PUSH2 0x433 DUP4 DUP6 AND ISZERO PUSH2 0x1F77 JUMP JUMPDEST ADD SLOAD AND PUSH1 0x6 DUP2 LT ISZERO PUSH2 0x4F4 JUMPI PUSH1 0x4 SUB PUSH2 0x4B8 JUMPI PUSH1 0x1 SWAP1 PUSH1 0xFF NOT AND OR SWAP1 SSTORE PUSH1 0x2 DUP2 ADD SWAP1 PUSH1 0x0 DUP1 DUP1 DUP1 DUP6 SLOAD DUP2 DUP2 ISZERO PUSH2 0x4AF JUMPI JUMPDEST CALLER SWAP1 CALL ISZERO PUSH2 0x4A3 JUMPI SLOAD SWAP1 SLOAD SWAP1 PUSH1 0x40 MLOAD SWAP2 DUP3 MSTORE PUSH32 0x7A482FDEB6BC9A1376F597068A214A7A39472BB2EFF1B8CAD21BA04F49DDCA1B PUSH1 0x20 CALLER SWAP4 LOG3 PUSH1 0x1 PUSH1 0x0 SSTORE STOP JUMPDEST PUSH1 0x40 MLOAD RETURNDATASIZE PUSH1 0x0 DUP3 RETURNDATACOPY RETURNDATASIZE SWAP1 REVERT JUMPDEST POP PUSH2 0x8FC PUSH2 0x464 JUMP JUMPDEST PUSH1 0x40 MLOAD PUSH3 0x461BCD PUSH1 0xE5 SHL DUP2 MSTORE PUSH1 0x20 PUSH1 0x4 DUP3 ADD MSTORE PUSH1 0x14 PUSH1 0x24 DUP3 ADD MSTORE PUSH20 0x13585C9AD95D081B9BDD0818D85B98D95B1B1959 PUSH1 0x62 SHL PUSH1 0x44 DUP3 ADD MSTORE PUSH1 0x64 SWAP1 REVERT JUMPDEST PUSH4 0x4E487B71 PUSH1 0xE0 SHL PUSH1 0x0 MSTORE PUSH1 0x21 PUSH1 0x4 MSTORE PUSH1 0x24 PUSH1 0x0 REVERT JUMPDEST CALLVALUE PUSH2 0x21A JUMPI PUSH1 0x0 CALLDATASIZE PUSH1 0x3 NOT ADD SLT PUSH2 0x21A JUMPI PUSH1 0x20 PUSH1 0x40 MLOAD PUSH2 0x2710 DUP2 MSTORE RETURN JUMPDEST CALLVALUE PUSH2 0x21A JUMPI PUSH1 0x60 CALLDATASIZE PUSH1 0x3 NOT ADD SLT PUSH2 0x21A JUMPI PUSH1 0x4 CALLDATALOAD PUSH1 0x24 CALLDATALOAD PUSH1 0x3 DUP2 LT ISZERO PUSH2 0x21A JUMPI PUSH1 0xA SLOAD PUSH1 0x44 CALLDATALOAD SWAP2 SWAP1 PUSH1 0x1 PUSH1 0x1 PUSH1 0xA0 SHL SUB AND CALLER SUB PUSH2 0x689 JUMPI DUP3 ISZERO ISZERO DUP1 PUSH2 0x67E JUMPI JUMPDEST PUSH2 0x570 SWAP1 PUSH2 0x1EB7 JUMP JUMPDEST DUP3 PUSH1 0x0 MSTORE PUSH1 0x4 PUSH1 0x20 MSTORE PUSH1 0x40 PUSH1 0x0 KECCAK256 SWAP1 PUSH1 0x7 DUP3 ADD SWAP3 DUP4 SLOAD SWAP3 PUSH1 0xFF DUP5 AND PUSH1 0x6 DUP2 LT ISZERO PUSH2 0x4F4 JUMPI PUSH1 0x2 SUB PUSH2 0x646 JUMPI DUP3 ISZERO PUSH2 0x601 JUMPI PUSH32 0x3E38063EE64F3323E6A7EFA457A12BE81AFF9029674C237A651CF0033105CDBC SWAP5 PUSH1 0x3 PUSH1 0x60 SWAP6 PUSH2 0xFF00 DUP7 PUSH1 0x8 SHL AND SWAP1 PUSH2 0xFFFF NOT AND OR OR SWAP1 SSTORE DUP2 PUSH1 0xE DUP3 ADD SSTORE PUSH1 0xF TIMESTAMP SWAP2 ADD SSTORE PUSH2 0x5F3 PUSH1 0x40 MLOAD DUP1 SWAP4 PUSH2 0x1E94 JUMP JUMPDEST PUSH1 0x20 DUP3 ADD MSTORE TIMESTAMP PUSH1 0x40 DUP3 ADD MSTORE LOG2 STOP JUMPDEST PUSH1 0x40 MLOAD PUSH3 0x461BCD PUSH1 0xE5 SHL DUP2 MSTORE PUSH1 0x20 PUSH1 0x4 DUP3 ADD MSTORE PUSH1 0x17 PUSH1 0x24 DUP3 ADD MSTORE PUSH32 0x4D7573742070726F76696465207265736F6C7574696F6E000000000000000000 PUSH1 0x44 DUP3 ADD MSTORE PUSH1 0x64 SWAP1 REVERT JUMPDEST PUSH1 0x40 MLOAD PUSH3 0x461BCD PUSH1 0xE5 SHL DUP2 MSTORE PUSH1 0x20 PUSH1 0x4 DUP3 ADD MSTORE PUSH1 0x10 PUSH1 0x24 DUP3 ADD MSTORE PUSH16 0x13585C9AD95D081B9BDD08195B991959 PUSH1 0x82 SHL PUSH1 0x44 DUP3 ADD MSTORE PUSH1 0x64 SWAP1 REVERT JUMPDEST POP PUSH1 0x2 SLOAD DUP4 LT PUSH2 0x567 JUMP JUMPDEST PUSH1 0x40 MLOAD PUSH3 0x461BCD PUSH1 0xE5 SHL DUP2 MSTORE PUSH1 0x20 PUSH1 0x4 DUP3 ADD MSTORE PUSH1 0x14 PUSH1 0x24 DUP3 ADD MSTORE PUSH20 0x13DB9B1E481BDC9858DB194818D85B8818D85B1B PUSH1 0x62 SHL PUSH1 0x44 DUP3 ADD MSTORE PUSH1 0x64 SWAP1 REVERT JUMPDEST PUSH1 0x60 CALLDATASIZE PUSH1 0x3 NOT ADD SLT PUSH2 0x21A JUMPI PUSH1 0x4 CALLDATALOAD PUSH1 0x24 CALLDATALOAD PUSH1 0x2 DUP2 LT ISZERO PUSH2 0x21A JUMPI PUSH8 0xFFFFFFFFFFFFFFFF SWAP2 PUSH1 0x44 CALLDATALOAD DUP4 DUP2 GT PUSH2 0x21A JUMPI PUSH2 0x702 SWAP1 CALLDATASIZE SWAP1 PUSH1 0x4 ADD PUSH2 0x1E30 JUMP JUMPDEST SWAP1 DUP1 ISZERO ISZERO DUP1 PUSH2 0xA25 JUMPI JUMPDEST PUSH2 0x715 SWAP1 PUSH2 0x1EB7 JUMP JUMPDEST PUSH2 0x71D PUSH2 0x2070 JUMP JUMPDEST PUSH2 0x725 PUSH2 0x2093 JUMP JUMPDEST DUP1 PUSH1 0x0 MSTORE PUSH1 0x20 SWAP3 PUSH1 0x4 DUP5 MSTORE PUSH1 0x40 PUSH1 0x0 KECCAK256 SWAP1 PUSH1 0xFF PUSH1 0x7 DUP4 ADD SLOAD AND SWAP5 PUSH1 0x6 DUP7 LT ISZERO PUSH2 0x4F4 JUMPI PUSH2 0x755 PUSH1 0x1 DUP1 SWAP8 EQ PUSH2 0x1EFB JUMP JUMPDEST PUSH1 0x5 DUP4 ADD SLOAD TIMESTAMP LT ISZERO PUSH2 0x9F2 JUMPI CALLVALUE ISZERO PUSH2 0x9B5 JUMPI PUSH1 0x3 SLOAD SWAP3 PUSH2 0x774 DUP5 PUSH2 0x1FF8 JUMP JUMPDEST PUSH1 0x3 SWAP1 DUP2 SSTORE PUSH1 0x0 DUP6 DUP2 MSTORE PUSH1 0x5 DUP5 MSTORE PUSH1 0x40 SWAP1 KECCAK256 DUP7 DUP2 SSTORE DUP9 DUP2 ADD DUP1 SLOAD PUSH1 0x1 PUSH1 0x1 PUSH1 0xA8 SHL SUB NOT AND CALLER PUSH1 0xFF PUSH1 0xA0 SHL NOT AND OR PUSH1 0xA0 DUP8 SWAP1 SHL PUSH1 0xFF PUSH1 0xA0 SHL AND OR SWAP1 SSTORE CALLVALUE PUSH1 0x2 DUP3 ADD SSTORE TIMESTAMP SWAP2 DUP2 ADD SWAP2 SWAP1 SWAP2 SSTORE DUP7 MLOAD PUSH1 0x4 DUP3 ADD SWAP10 DUP2 GT PUSH2 0x99F JUMPI PUSH2 0x7D4 DUP11 SLOAD PUSH2 0x1CAF JUMP JUMPDEST PUSH1 0x1F DUP2 GT PUSH2 0x956 JUMPI JUMPDEST POP DUP4 PUSH1 0x1F DUP3 GT PUSH1 0x1 EQ PUSH2 0x8CD JUMPI SWAP10 DUP2 PUSH1 0x5 SWAP4 SWAP3 PUSH32 0xAB5C9A72C480E253E81F6B334B1A69656BEA5A9F9C54A340831D3C186B42D692 SWAP9 SWAP10 SWAP11 SWAP12 SWAP13 PUSH1 0x0 SWAP2 PUSH2 0x8C2 JUMPI JUMPDEST POP PUSH1 0x0 NOT PUSH1 0x3 DUP4 SWAP1 SHL SHR NOT AND SWAP1 DUP13 SHL OR SWAP1 SSTORE JUMPDEST ADD DUP1 SLOAD PUSH1 0xFF NOT AND SWAP1 SSTORE DUP3 PUSH2 0x8AD JUMPI PUSH1 0xA ADD PUSH2 0x84D CALLVALUE DUP3 SLOAD PUSH2 0x1FB5 JUMP JUMPDEST SWAP1 SSTORE JUMPDEST DUP5 PUSH1 0x0 MSTORE PUSH1 0x6 DUP2 MSTORE PUSH2 0x866 DUP5 PUSH1 0x40 PUSH1 0x0 KECCAK256 PUSH2 0x2007 JUMP JUMPDEST CALLER PUSH1 0x0 MSTORE PUSH1 0x7 DUP2 MSTORE PUSH2 0x87C DUP5 PUSH1 0x40 PUSH1 0x0 KECCAK256 PUSH2 0x2007 JUMP JUMPDEST PUSH2 0x889 PUSH1 0x40 MLOAD DUP1 SWAP4 PUSH2 0x1C14 JUMP JUMPDEST CALLVALUE SWAP1 DUP3 ADD MSTORE PUSH1 0x60 PUSH1 0x40 DUP3 ADD MSTORE DUP1 PUSH2 0x8A5 CALLER SWAP7 PUSH1 0x60 DUP4 ADD SWAP1 PUSH2 0x1C21 JUMP JUMPDEST SUB SWAP1 LOG4 PUSH1 0x0 SSTORE STOP JUMPDEST PUSH1 0xB ADD PUSH2 0x8BB CALLVALUE DUP3 SLOAD PUSH2 0x1FB5 JUMP JUMPDEST SWAP1 SSTORE PUSH2 0x850 JUMP JUMPDEST SWAP1 POP DUP12 ADD MLOAD DUP14 PUSH2 0x81E JUMP JUMPDEST PUSH1 0x1F NOT DUP3 AND SWAP1 DUP12 PUSH1 0x0 MSTORE DUP6 PUSH1 0x0 KECCAK256 SWAP2 PUSH1 0x0 JUMPDEST DUP2 DUP2 LT PUSH2 0x941 JUMPI POP SWAP3 DUP12 SWAP13 SWAP3 PUSH32 0xAB5C9A72C480E253E81F6B334B1A69656BEA5A9F9C54A340831D3C186B42D692 SWAP10 SWAP11 SWAP12 SWAP13 SWAP3 DUP3 PUSH1 0x5 SWAP8 SWAP7 LT PUSH2 0x928 JUMPI JUMPDEST POP POP DUP2 SHL ADD SWAP1 SSTORE PUSH2 0x831 JUMP JUMPDEST DUP14 ADD MLOAD PUSH1 0x0 NOT PUSH1 0xF8 DUP5 PUSH1 0x3 SHL AND SHR NOT AND SWAP1 SSTORE DUP14 DUP1 PUSH2 0x91C JUMP JUMPDEST DUP12 DUP4 ADD MLOAD DUP5 SSTORE SWAP3 DUP13 ADD SWAP3 SWAP2 DUP8 ADD SWAP2 DUP8 ADD PUSH2 0x8DF JUMP JUMPDEST DUP11 PUSH1 0x0 MSTORE DUP5 PUSH1 0x0 KECCAK256 PUSH1 0x1F DUP4 ADD PUSH1 0x5 SHR DUP2 ADD SWAP2 DUP7 DUP5 LT PUSH2 0x995 JUMPI JUMPDEST PUSH1 0x1F ADD PUSH1 0x5 SHR ADD SWAP1 DUP11 SWAP1 JUMPDEST DUP3 DUP2 LT PUSH2 0x989 JUMPI POP POP PUSH2 0x7DD JUMP JUMPDEST PUSH1 0x0 DUP2 SSTORE ADD DUP11 SWAP1 PUSH2 0x97B JUMP JUMPDEST SWAP1 SWAP2 POP DUP2 SWAP1 PUSH2 0x970 JUMP JUMPDEST PUSH4 0x4E487B71 PUSH1 0xE0 SHL PUSH1 0x0 MSTORE PUSH1 0x41 PUSH1 0x4 MSTORE PUSH1 0x24 PUSH1 0x0 REVERT JUMPDEST PUSH1 0x64 SWAP1 PUSH1 0x40 MLOAD SWAP1 PUSH3 0x461BCD PUSH1 0xE5 SHL DUP3 MSTORE PUSH1 0x4 DUP3 ADD MSTORE PUSH1 0x16 PUSH1 0x24 DUP3 ADD MSTORE PUSH22 0x42657420616D6F756E74206D757374206265203E203 PUSH1 0x54 SHL PUSH1 0x44 DUP3 ADD MSTORE REVERT JUMPDEST PUSH1 0x64 SWAP1 PUSH1 0x40 MLOAD SWAP1 PUSH3 0x461BCD PUSH1 0xE5 SHL DUP3 MSTORE PUSH1 0x4 DUP3 ADD MSTORE PUSH1 0xC PUSH1 0x24 DUP3 ADD MSTORE PUSH12 0x13585C9AD95D08195B991959 PUSH1 0xA2 SHL PUSH1 0x44 DUP3 ADD MSTORE REVERT JUMPDEST POP PUSH1 0x2 SLOAD DUP2 LT PUSH2 0x70C JUMP JUMPDEST CALLVALUE PUSH2 0x21A JUMPI PUSH2 0xA3E CALLDATASIZE PUSH2 0x1EA1 JUMP JUMPDEST SWAP1 PUSH2 0xA47 PUSH2 0x2041 JUMP JUMPDEST PUSH2 0x3E8 PUSH2 0xA54 DUP4 DUP4 PUSH2 0x1FB5 JUMP JUMPDEST LT ISZERO PUSH2 0xA62 JUMPI PUSH1 0x9 SSTORE PUSH1 0x8 SSTORE STOP JUMPDEST PUSH1 0x40 MLOAD PUSH3 0x461BCD PUSH1 0xE5 SHL DUP2 MSTORE PUSH1 0x20 PUSH1 0x4 DUP3 ADD MSTORE PUSH1 0xD PUSH1 0x24 DUP3 ADD MSTORE PUSH13 0x8CCACAE640E8DEDE40D0D2CED PUSH1 0x9B SHL PUSH1 0x44 DUP3 ADD MSTORE PUSH1 0x64 SWAP1 REVERT JUMPDEST CALLVALUE PUSH2 0x21A JUMPI PUSH1 0x0 CALLDATASIZE PUSH1 0x3 NOT ADD SLT PUSH2 0x21A JUMPI PUSH1 0xA SLOAD PUSH1 0x40 MLOAD PUSH1 0x1 PUSH1 0x1 PUSH1 0xA0 SHL SUB SWAP1 SWAP2 AND DUP2 MSTORE PUSH1 0x20 SWAP1 RETURN JUMPDEST CALLVALUE PUSH2 0x21A JUMPI PUSH1 0x20 CALLDATASIZE PUSH1 0x3 NOT ADD SLT PUSH2 0x21A JUMPI PUSH1 0x4 DUP1 CALLDATALOAD PUSH1 0x0 SWAP1 DUP2 MSTORE PUSH1 0x20 SWAP2 SWAP1 SWAP2 MSTORE PUSH1 0x40 SWAP1 KECCAK256 DUP1 SLOAD PUSH1 0xA0 MSTORE PUSH1 0x1 DUP2 ADD SLOAD PUSH1 0x1 PUSH1 0x1 PUSH1 0xA0 SHL SUB AND SWAP1 PUSH2 0xB04 PUSH1 0x2 DUP3 ADD PUSH2 0x1D0B JUMP JUMPDEST PUSH1 0xC0 MSTORE PUSH2 0xB13 PUSH1 0x3 DUP3 ADD PUSH2 0x1D0B JUMP JUMPDEST PUSH2 0x100 MSTORE PUSH2 0xB23 PUSH1 0x4 DUP3 ADD PUSH2 0x1D0B JUMP JUMPDEST SWAP2 PUSH1 0x5 DUP3 ADD SLOAD SWAP3 PUSH1 0x6 DUP4 ADD SLOAD PUSH1 0x7 DUP5 ADD SLOAD PUSH1 0x8 DUP6 ADD SLOAD PUSH1 0x9 DUP7 ADD SLOAD PUSH1 0xA DUP8 ADD SLOAD SWAP2 PUSH1 0xB DUP9 ADD SLOAD SWAP4 PUSH1 0xC DUP10 ADD SLOAD SWAP6 PUSH1 0xD DUP11 ADD SLOAD SWAP8 PUSH1 0xE DUP12 ADD SLOAD SWAP10 PUSH1 0xF DUP13 ADD SLOAD SWAP12 PUSH1 0x11 ADD SLOAD PUSH1 0x80 MSTORE PUSH1 0x40 MLOAD PUSH1 0xE0 MSTORE PUSH2 0x240 SWAP1 PUSH1 0xA0 MLOAD PUSH1 0xE0 MLOAD MSTORE PUSH1 0xE0 MLOAD PUSH1 0x20 ADD MSTORE DUP1 PUSH1 0xE0 MLOAD PUSH1 0x40 ADD MSTORE PUSH1 0xE0 MLOAD ADD PUSH1 0xC0 MLOAD SWAP1 PUSH2 0xB9A SWAP2 PUSH2 0x1C21 JUMP JUMPDEST PUSH1 0xE0 MLOAD DUP2 SUB PUSH1 0xE0 MLOAD PUSH1 0x60 ADD MSTORE PUSH2 0x100 MLOAD SWAP1 PUSH2 0xBB4 SWAP2 PUSH2 0x1C21 JUMP JUMPDEST PUSH1 0xE0 MLOAD DUP2 SUB PUSH1 0xE0 MLOAD PUSH1 0x80 ADD MSTORE PUSH2 0xBC9 SWAP2 PUSH2 0x1C21 JUMP JUMPDEST SWAP11 PUSH1 0xE0 MLOAD PUSH1 0xA0 ADD MSTORE PUSH1 0xE0 MLOAD PUSH1 0xC0 ADD MSTORE PUSH1 0xE0 MLOAD PUSH1 0xE0 ADD PUSH1 0xFF DUP3 AND SWAP1 PUSH2 0xBEC SWAP2 PUSH2 0x1E87 JUMP JUMPDEST PUSH1 0xE0 MLOAD PUSH2 0x100 ADD SWAP1 PUSH1 0x8 SHR PUSH1 0xFF AND SWAP1 PUSH2 0xC04 SWAP2 PUSH2 0x1E94 JUMP JUMPDEST PUSH1 0xE0 MLOAD PUSH2 0x120 ADD MSTORE PUSH1 0xE0 MLOAD PUSH2 0x140 ADD MSTORE PUSH1 0xE0 MLOAD PUSH2 0x160 ADD MSTORE PUSH1 0xE0 MLOAD PUSH2 0x180 ADD MSTORE PUSH1 0xE0 MLOAD PUSH2 0x1A0 ADD MSTORE PUSH1 0xE0 MLOAD PUSH2 0x1C0 ADD MSTORE PUSH1 0xE0 MLOAD PUSH2 0x1E0 ADD MSTORE PUSH1 0xE0 MLOAD PUSH2 0x200 ADD MSTORE PUSH1 0x80 MLOAD PUSH1 0xE0 MLOAD PUSH2 0x220 ADD MSTORE PUSH1 0xE0 MLOAD SWAP1 SUB PUSH1 0xE0 MLOAD RETURN JUMPDEST CALLVALUE PUSH2 0x21A JUMPI PUSH1 0x0 CALLDATASIZE PUSH1 0x3 NOT ADD SLT PUSH2 0x21A JUMPI PUSH1 0x20 PUSH1 0x40 MLOAD PUSH2 0x2328 DUP2 MSTORE RETURN JUMPDEST CALLVALUE PUSH2 0x21A JUMPI PUSH1 0x0 CALLDATASIZE PUSH1 0x3 NOT ADD SLT PUSH2 0x21A JUMPI PUSH1 0x20 PUSH1 0x3 SLOAD PUSH1 0x40 MLOAD SWAP1 DUP2 MSTORE RETURN JUMPDEST CALLVALUE PUSH2 0x21A JUMPI PUSH1 0xC0 CALLDATASIZE PUSH1 0x3 NOT ADD SLT PUSH2 0x21A JUMPI PUSH1 0x4 CALLDATALOAD PUSH8 0xFFFFFFFFFFFFFFFF DUP2 GT PUSH2 0x21A JUMPI PUSH2 0xCC5 SWAP1 CALLDATASIZE SWAP1 PUSH1 0x4 ADD PUSH2 0x1E30 JUMP JUMPDEST PUSH1 0x24 CALLDATALOAD PUSH8 0xFFFFFFFFFFFFFFFF DUP2 GT PUSH2 0x21A JUMPI PUSH2 0xCE5 SWAP1 CALLDATASIZE SWAP1 PUSH1 0x4 ADD PUSH2 0x1E30 JUMP JUMPDEST PUSH1 0x44 CALLDATALOAD PUSH8 0xFFFFFFFFFFFFFFFF DUP2 GT PUSH2 0x21A JUMPI PUSH2 0xD05 SWAP1 CALLDATASIZE SWAP1 PUSH1 0x4 ADD PUSH2 0x1E30 JUMP JUMPDEST SWAP2 PUSH2 0xD0E PUSH2 0x2093 JUMP JUMPDEST TIMESTAMP PUSH1 0x64 CALLDATALOAD GT ISZERO PUSH2 0x122F JUMPI DUP1 MLOAD ISZERO PUSH2 0x11F9 JUMPI PUSH2 0x2328 DUP1 PUSH1 0x84 CALLDATALOAD LT ISZERO DUP1 PUSH2 0x11EB JUMPI JUMPDEST ISZERO PUSH2 0x11AF JUMPI PUSH1 0xA4 CALLDATALOAD LT ISZERO DUP1 PUSH2 0x11A1 JUMPI JUMPDEST ISZERO PUSH2 0x1166 JUMPI PUSH1 0x2 SLOAD SWAP2 PUSH2 0xD50 DUP4 PUSH2 0x1FF8 JUMP JUMPDEST PUSH1 0x2 SSTORE DUP3 PUSH1 0x0 MSTORE PUSH1 0x4 PUSH1 0x20 MSTORE PUSH1 0x40 PUSH1 0x0 KECCAK256 SWAP1 DUP4 DUP3 SSTORE PUSH1 0x1 DUP3 ADD CALLER PUSH12 0xFFFFFFFFFFFFFFFFFFFFFFFF PUSH1 0xA0 SHL DUP3 SLOAD AND OR SWAP1 SSTORE DUP3 MLOAD PUSH8 0xFFFFFFFFFFFFFFFF DUP2 GT PUSH2 0x99F JUMPI PUSH2 0xD9E PUSH1 0x2 DUP5 ADD SLOAD PUSH2 0x1CAF JUMP JUMPDEST PUSH1 0x1F DUP2 GT PUSH2 0x111F JUMPI JUMPDEST POP DUP1 PUSH1 0x20 PUSH1 0x1F DUP3 GT PUSH1 0x1 EQ PUSH2 0x10B2 JUMPI PUSH1 0x0 SWAP2 PUSH2 0x10A7 JUMPI JUMPDEST POP DUP2 PUSH1 0x1 SHL SWAP2 PUSH1 0x0 NOT SWAP1 PUSH1 0x3 SHL SHR NOT AND OR PUSH1 0x2 DUP4 ADD SSTORE JUMPDEST DUP1 MLOAD SWAP1 PUSH8 0xFFFFFFFFFFFFFFFF DUP3 GT PUSH2 0x99F JUMPI DUP2 SWAP1 PUSH2 0xDF6 PUSH1 0x3 DUP6 ADD SLOAD PUSH2 0x1CAF JUMP JUMPDEST PUSH1 0x1F DUP2 GT PUSH2 0x1054 JUMPI JUMPDEST POP PUSH1 0x20 SWAP1 PUSH1 0x1F DUP4 GT PUSH1 0x1 EQ PUSH2 0xFE2 JUMPI PUSH1 0x0 SWAP3 PUSH2 0xFD7 JUMPI JUMPDEST POP POP DUP2 PUSH1 0x1 SHL SWAP2 PUSH1 0x0 NOT SWAP1 PUSH1 0x3 SHL SHR NOT AND OR PUSH1 0x3 DUP3 ADD SSTORE JUMPDEST PUSH1 0x4 DUP2 ADD DUP5 MLOAD PUSH8 0xFFFFFFFFFFFFFFFF DUP2 GT PUSH2 0x99F JUMPI PUSH2 0xE4D DUP3 SLOAD PUSH2 0x1CAF JUMP JUMPDEST PUSH1 0x1F DUP2 GT PUSH2 0xF8F JUMPI JUMPDEST POP DUP1 PUSH1 0x20 SWAP7 DUP8 SWAP1 PUSH1 0x1F DUP4 GT PUSH1 0x1 EQ PUSH2 0xF2B JUMPI PUSH1 0x0 SWAP3 PUSH2 0xF20 JUMPI JUMPDEST POP POP DUP2 PUSH1 0x1 SHL SWAP2 PUSH1 0x0 NOT SWAP1 PUSH1 0x3 SHL SHR NOT AND OR SWAP1 SSTORE JUMPDEST PUSH1 0x64 CALLDATALOAD PUSH1 0x5 DUP3 ADD SSTORE TIMESTAMP PUSH1 0x6 DUP3 ADD SSTORE PUSH1 0x7 DUP2 ADD PUSH1 0x1 PUSH2 0xFFFF NOT DUP3 SLOAD AND OR SWAP1 SSTORE PUSH1 0x84 CALLDATALOAD PUSH1 0x8 DUP3 ADD SSTORE PUSH1 0xA4 CALLDATALOAD PUSH1 0x9 DUP3 ADD SSTORE PUSH1 0x9 SLOAD PUSH1 0xC DUP3 ADD SSTORE PUSH1 0xD PUSH1 0x8 SLOAD SWAP2 ADD SSTORE DUP2 PUSH32 0x4A7D407B15F60472268A43A4F0FC258BE19105B8967DD8123B49B25ADE8D0128 PUSH2 0xEFA PUSH1 0x40 MLOAD SWAP4 PUSH1 0x80 DUP6 MSTORE PUSH1 0x80 DUP6 ADD SWAP1 PUSH2 0x1C21 JUMP JUMPDEST SWAP3 PUSH1 0x64 CALLDATALOAD DUP7 DUP3 ADD MSTORE PUSH1 0x84 CALLDATALOAD PUSH1 0x40 DUP3 ADD MSTORE PUSH1 0xA4 CALLDATALOAD PUSH1 0x60 DUP3 ADD MSTORE DUP1 CALLER SWAP5 SUB SWAP1 LOG3 PUSH1 0x40 MLOAD SWAP1 DUP2 MSTORE RETURN JUMPDEST ADD MLOAD SWAP1 POP DUP8 DUP1 PUSH2 0xE70 JUMP JUMPDEST PUSH1 0x0 DUP6 DUP2 MSTORE DUP10 DUP2 KECCAK256 SWAP4 POP PUSH1 0x1F NOT DUP6 AND SWAP1 JUMPDEST DUP2 DUP2 LT PUSH2 0xF78 JUMPI POP SWAP1 DUP5 PUSH1 0x1 SWAP6 SWAP5 SWAP4 SWAP3 LT PUSH2 0xF5F JUMPI JUMPDEST POP POP POP DUP2 SHL ADD SWAP1 SSTORE PUSH2 0xE85 JUMP JUMPDEST ADD MLOAD PUSH1 0x0 NOT PUSH1 0xF8 DUP5 PUSH1 0x3 SHL AND SHR NOT AND SWAP1 SSTORE DUP8 DUP1 DUP1 PUSH2 0xF52 JUMP JUMPDEST SWAP3 SWAP4 DUP11 PUSH1 0x1 DUP2 SWAP3 DUP8 DUP7 ADD MLOAD DUP2 SSTORE ADD SWAP6 ADD SWAP4 ADD PUSH2 0xF3C JUMP JUMPDEST DUP3 PUSH1 0x0 MSTORE PUSH1 0x20 PUSH1 0x0 KECCAK256 PUSH1 0x1F DUP4 ADD PUSH1 0x5 SHR DUP2 ADD SWAP2 PUSH1 0x20 DUP5 LT PUSH2 0xFCD JUMPI JUMPDEST PUSH1 0x1F ADD PUSH1 0x5 SHR ADD SWAP1 JUMPDEST DUP2 DUP2 LT PUSH2 0xFC1 JUMPI POP PUSH2 0xE56 JUMP JUMPDEST PUSH1 0x0 DUP2 SSTORE PUSH1 0x1 ADD PUSH2 0xFB4 JUMP JUMPDEST SWAP1 SWAP2 POP DUP2 SWAP1 PUSH2 0xFAB JUMP JUMPDEST ADD MLOAD SWAP1 POP DUP7 DUP1 PUSH2 0xE16 JUMP JUMPDEST SWAP3 POP PUSH1 0x3 DUP5 ADD PUSH1 0x0 MSTORE PUSH1 0x20 PUSH1 0x0 KECCAK256 SWAP1 PUSH1 0x0 SWAP4 JUMPDEST PUSH1 0x1F NOT DUP5 AND DUP6 LT PUSH2 0x1039 JUMPI PUSH1 0x1 SWAP5 POP DUP4 PUSH1 0x1F NOT DUP2 AND LT PUSH2 0x1020 JUMPI JUMPDEST POP POP POP DUP2 SHL ADD PUSH1 0x3 DUP3 ADD SSTORE PUSH2 0xE2E JUMP JUMPDEST ADD MLOAD PUSH1 0x0 NOT PUSH1 0xF8 DUP5 PUSH1 0x3 SHL AND SHR NOT AND SWAP1 SSTORE DUP7 DUP1 DUP1 PUSH2 0x1010 JUMP JUMPDEST DUP2 DUP2 ADD MLOAD DUP4 SSTORE PUSH1 0x20 SWAP5 DUP6 ADD SWAP5 PUSH1 0x1 SWAP1 SWAP4 ADD SWAP3 SWAP1 SWAP2 ADD SWAP1 PUSH2 0xFF5 JUMP JUMPDEST SWAP1 SWAP2 POP PUSH1 0x3 DUP5 ADD PUSH1 0x0 MSTORE PUSH1 0x20 PUSH1 0x0 KECCAK256 PUSH1 0x1F DUP5 ADD PUSH1 0x5 SHR DUP2 ADD PUSH1 0x20 DUP6 LT PUSH2 0x10A0 JUMPI JUMPDEST SWAP1 DUP5 SWAP4 SWAP3 SWAP2 JUMPDEST PUSH1 0x1F DUP4 ADD PUSH1 0x5 SHR DUP3 ADD DUP2 LT PUSH2 0x1091 JUMPI POP POP PUSH2 0xDFF JUMP JUMPDEST PUSH1 0x0 DUP2 SSTORE DUP6 SWAP5 POP PUSH1 0x1 ADD PUSH2 0x107B JUMP JUMPDEST POP DUP1 PUSH2 0x1075 JUMP JUMPDEST SWAP1 POP DUP5 ADD MLOAD DUP8 PUSH2 0xDBE JUMP JUMPDEST SWAP2 POP PUSH1 0x2 DUP5 ADD PUSH1 0x0 MSTORE PUSH1 0x20 PUSH1 0x0 KECCAK256 PUSH1 0x0 SWAP3 JUMPDEST PUSH1 0x1F NOT DUP4 AND DUP5 LT PUSH2 0x1107 JUMPI PUSH1 0x1 SWAP4 POP DUP3 PUSH1 0x1F NOT DUP2 AND LT PUSH2 0x10EE JUMPI JUMPDEST POP POP DUP2 SHL ADD PUSH1 0x2 DUP4 ADD SSTORE PUSH2 0xDD5 JUMP JUMPDEST DUP7 ADD MLOAD PUSH1 0x0 NOT PUSH1 0xF8 DUP5 PUSH1 0x3 SHL AND SHR NOT AND SWAP1 SSTORE DUP8 DUP1 PUSH2 0x10DF JUMP JUMPDEST DUP7 DUP2 ADD MLOAD DUP3 SSTORE PUSH1 0x20 SWAP4 DUP5 ADD SWAP4 PUSH1 0x1 SWAP1 SWAP3 ADD SWAP2 ADD PUSH2 0x10C4 JUMP JUMPDEST PUSH1 0x2 DUP5 ADD PUSH1 0x0 MSTORE PUSH1 0x20 PUSH1 0x0 KECCAK256 PUSH1 0x1F DUP4 ADD PUSH1 0x5 SHR DUP2 ADD PUSH1 0x20 DUP5 LT PUSH2 0x115F JUMPI JUMPDEST PUSH1 0x1F DUP4 ADD PUSH1 0x5 SHR DUP3 ADD DUP2 LT PUSH2 0x1153 JUMPI POP POP PUSH2 0xDA7 JUMP JUMPDEST PUSH1 0x0 DUP2 SSTORE PUSH1 0x1 ADD PUSH2 0x113D JUMP JUMPDEST POP DUP1 PUSH2 0x113D JUMP JUMPDEST PUSH1 0x40 MLOAD PUSH3 0x461BCD PUSH1 0xE5 SHL DUP2 MSTORE PUSH1 0x20 PUSH1 0x4 DUP3 ADD MSTORE PUSH1 0x13 PUSH1 0x24 DUP3 ADD MSTORE PUSH19 0x4F6464734E6F206F7574206F662072616E6765 PUSH1 0x68 SHL PUSH1 0x44 DUP3 ADD MSTORE PUSH1 0x64 SWAP1 REVERT JUMPDEST POP PUSH2 0x251C PUSH1 0xA4 CALLDATALOAD GT ISZERO PUSH2 0xD3E JUMP JUMPDEST PUSH1 0x40 MLOAD PUSH3 0x461BCD PUSH1 0xE5 SHL DUP2 MSTORE PUSH1 0x20 PUSH1 0x4 DUP3 ADD MSTORE PUSH1 0x14 PUSH1 0x24 DUP3 ADD MSTORE PUSH20 0x4F646473596573206F7574206F662072616E6765 PUSH1 0x60 SHL PUSH1 0x44 DUP3 ADD MSTORE PUSH1 0x64 SWAP1 REVERT JUMPDEST POP PUSH2 0x251C PUSH1 0x84 CALLDATALOAD GT ISZERO PUSH2 0xD2E JUMP JUMPDEST PUSH1 0x40 MLOAD PUSH3 0x461BCD PUSH1 0xE5 SHL DUP2 MSTORE PUSH1 0x20 PUSH1 0x4 DUP3 ADD MSTORE PUSH1 0xE PUSH1 0x24 DUP3 ADD MSTORE PUSH14 0x151A5D1B19481C995C5D5A5C9959 PUSH1 0x92 SHL PUSH1 0x44 DUP3 ADD MSTORE PUSH1 0x64 SWAP1 REVERT JUMPDEST PUSH1 0x40 MLOAD PUSH3 0x461BCD PUSH1 0xE5 SHL DUP2 MSTORE PUSH1 0x20 PUSH1 0x4 DUP3 ADD MSTORE PUSH1 0x1A PUSH1 0x24 DUP3 ADD MSTORE PUSH32 0x456E642074696D65206D75737420626520696E20667574757265000000000000 PUSH1 0x44 DUP3 ADD MSTORE PUSH1 0x64 SWAP1 REVERT JUMPDEST CALLVALUE PUSH2 0x21A JUMPI PUSH1 0x20 CALLDATASIZE PUSH1 0x3 NOT ADD SLT PUSH2 0x21A JUMPI PUSH2 0x128D PUSH2 0x1DB0 JUMP JUMPDEST PUSH2 0x1295 PUSH2 0x2041 JUMP JUMPDEST PUSH1 0xA DUP1 SLOAD PUSH1 0x1 PUSH1 0x1 PUSH1 0xA0 SHL SUB NOT AND PUSH1 0x1 PUSH1 0x1 PUSH1 0xA0 SHL SUB SWAP3 SWAP1 SWAP3 AND SWAP2 SWAP1 SWAP2 OR SWAP1 SSTORE STOP JUMPDEST CALLVALUE PUSH2 0x21A JUMPI PUSH1 0x0 CALLDATASIZE PUSH1 0x3 NOT ADD SLT PUSH2 0x21A JUMPI PUSH1 0x1 SLOAD PUSH1 0x40 MLOAD PUSH1 0x8 SWAP2 SWAP1 SWAP2 SHR PUSH1 0x1 PUSH1 0x1 PUSH1 0xA0 SHL SUB AND DUP2 MSTORE PUSH1 0x20 SWAP1 RETURN JUMPDEST CALLVALUE PUSH2 0x21A JUMPI PUSH1 0x20 DUP1 PUSH1 0x3 NOT CALLDATASIZE ADD SLT PUSH2 0x21A JUMPI PUSH1 0x4 CALLDATALOAD PUSH2 0x1301 PUSH2 0x2070 JUMP JUMPDEST PUSH1 0x0 DUP2 DUP2 MSTORE PUSH1 0x5 DUP4 MSTORE PUSH1 0x40 DUP1 DUP3 KECCAK256 DUP1 SLOAD DUP4 MSTORE PUSH1 0x4 DUP6 MSTORE SWAP2 KECCAK256 PUSH1 0x1 DUP1 DUP4 ADD SLOAD SWAP1 SWAP5 SWAP3 SWAP4 SWAP3 SWAP2 PUSH1 0x1 PUSH1 0x1 PUSH1 0xA0 SHL SUB SWAP2 PUSH2 0x133B DUP4 DUP3 AND CALLER EQ PUSH2 0x1F3B JUMP JUMPDEST PUSH1 0x5 DUP7 ADD SWAP6 DUP7 SLOAD SWAP2 PUSH2 0x1350 PUSH1 0xFF DUP5 AND ISZERO PUSH2 0x1F77 JUMP JUMPDEST PUSH1 0x7 DUP5 ADD SLOAD PUSH1 0xFF DUP2 AND PUSH1 0x6 DUP2 LT ISZERO PUSH2 0x4F4 JUMPI PUSH1 0x3 SUB PUSH2 0x15A8 JUMPI PUSH1 0x8 SHR PUSH1 0xFF AND SWAP1 PUSH1 0x3 DUP3 LT ISZERO SWAP1 DUP2 PUSH2 0x4F4 JUMPI DUP3 DUP12 EQ SWAP3 DUP4 SWAP2 DUP3 PUSH2 0x158F JUMPI JUMPDEST DUP3 ISZERO PUSH2 0x155D JUMPI JUMPDEST POP POP ISZERO PUSH2 0x1526 JUMPI PUSH1 0xA DUP6 ADD SLOAD SWAP2 PUSH1 0xB DUP7 ADD SLOAD SWAP3 PUSH2 0x13AB DUP5 DUP3 PUSH2 0x1FB5 JUMP JUMPDEST SWAP3 PUSH2 0x4F4 JUMPI PUSH2 0x13C6 SWAP4 PUSH1 0x2 SWAP3 ISZERO PUSH2 0x151E JUMPI POP SWAP4 JUMPDEST ADD SLOAD PUSH2 0x1FD8 JUMP JUMPDEST DUP2 ISZERO PUSH2 0x1508 JUMPI PUSH2 0x1407 SWAP4 DUP6 SWAP3 DUP11 SWAP3 DIV SWAP4 PUSH2 0x140C PUSH2 0x2710 SWAP6 DUP7 PUSH2 0x13EC PUSH1 0xC DUP7 ADD SLOAD DUP4 PUSH2 0x1FD8 JUMP JUMPDEST DIV SWAP8 DUP9 SWAP8 PUSH2 0x13FE PUSH1 0xD DUP8 ADD SLOAD DUP5 PUSH2 0x1FD8 JUMP JUMPDEST DIV SWAP9 DUP10 SWAP3 PUSH2 0x1FEB JUMP JUMPDEST PUSH2 0x1FEB JUMP JUMPDEST SWAP10 DUP4 PUSH1 0xFF NOT DUP1 SWAP4 AND OR SWAP1 SSTORE CALLER PUSH1 0x0 MSTORE PUSH1 0x10 DUP3 ADD DUP9 MSTORE DUP3 PUSH1 0x40 PUSH1 0x0 KECCAK256 SWAP2 DUP3 SLOAD AND OR SWAP1 SSTORE PUSH1 0x11 DUP2 ADD PUSH2 0x143D DUP11 DUP3 SLOAD PUSH2 0x1FB5 JUMP JUMPDEST SWAP1 SSTORE DUP4 ISZERO SWAP4 DUP5 ISZERO PUSH2 0x14DB JUMPI JUMPDEST POP POP POP POP POP DUP1 ISZERO DUP1 ISZERO PUSH2 0x14AC JUMPI JUMPDEST POP POP POP DUP3 PUSH1 0x0 DUP2 ISZERO PUSH2 0x14A3 JUMPI JUMPDEST PUSH1 0x0 DUP1 DUP1 SWAP4 DUP2 SWAP4 CALLER SWAP1 CALL ISZERO PUSH2 0x4A3 JUMPI PUSH32 0xE97CEE5A4C0549D3FDC81E322B718DDF0AEB3418EC87DCE4F9A7FB28D117C312 SWAP1 PUSH1 0x40 MLOAD SWAP4 DUP5 MSTORE CALLER SWAP4 LOG3 PUSH1 0x0 SSTORE STOP JUMPDEST POP PUSH2 0x8FC PUSH2 0x1464 JUMP JUMPDEST PUSH1 0x0 DUP1 SWAP4 SWAP3 DUP2 SWAP4 SWAP3 DUP3 SWAP4 DUP11 SLOAD PUSH1 0x8 SHR AND SWAP1 DUP4 SWAP1 PUSH2 0x14D2 JUMPI JUMPDEST CALL ISZERO PUSH2 0x4A3 JUMPI DUP5 DUP1 DUP1 PUSH2 0x1457 JUMP JUMPDEST POP PUSH2 0x8FC PUSH2 0x14C4 JUMP JUMPDEST PUSH1 0x0 SWAP5 DUP6 SWAP5 DUP6 SWAP5 DUP6 SWAP5 ADD SLOAD AND SWAP1 DUP4 SWAP1 PUSH2 0x14FF JUMPI JUMPDEST CALL ISZERO PUSH2 0x4A3 JUMPI DUP7 DUP3 DUP8 DUP3 DUP1 PUSH2 0x1449 JUMP JUMPDEST POP PUSH2 0x8FC PUSH2 0x14EF JUMP JUMPDEST PUSH4 0x4E487B71 PUSH1 0xE0 SHL PUSH1 0x0 MSTORE PUSH1 0x12 PUSH1 0x4 MSTORE PUSH1 0x24 PUSH1 0x0 REVERT JUMPDEST SWAP1 POP SWAP4 PUSH2 0x13BF JUMP JUMPDEST PUSH1 0x40 MLOAD PUSH3 0x461BCD PUSH1 0xE5 SHL DUP2 MSTORE PUSH1 0x4 DUP2 ADD DUP9 SWAP1 MSTORE PUSH1 0xF PUSH1 0x24 DUP3 ADD MSTORE PUSH15 0x2132BA103234B2103737BA103BB4B7 PUSH1 0x89 SHL PUSH1 0x44 DUP3 ADD MSTORE PUSH1 0x64 SWAP1 REVERT JUMPDEST SWAP2 POP SWAP2 POP PUSH1 0x2 PUSH1 0x0 SWAP3 EQ SWAP1 DUP2 PUSH2 0x1576 JUMPI JUMPDEST POP DUP12 DUP1 PUSH2 0x138E JUMP JUMPDEST PUSH1 0xFF SWAP2 POP PUSH1 0xA0 SHR AND PUSH1 0x2 DUP2 LT ISZERO PUSH2 0x4F4 JUMPI DUP11 EQ DUP12 PUSH2 0x156E JUMP JUMPDEST SWAP2 POP PUSH1 0xFF DUP3 PUSH1 0xA0 SHR AND PUSH1 0x2 DUP2 LT ISZERO PUSH2 0x4F4 JUMPI ISZERO SWAP2 PUSH2 0x1387 JUMP JUMPDEST PUSH1 0x40 MLOAD PUSH3 0x461BCD PUSH1 0xE5 SHL DUP2 MSTORE PUSH1 0x4 DUP2 ADD DUP9 SWAP1 MSTORE PUSH1 0x13 PUSH1 0x24 DUP3 ADD MSTORE PUSH19 0x13585C9AD95D081B9BDD081C995CDBDB1D9959 PUSH1 0x6A SHL PUSH1 0x44 DUP3 ADD MSTORE PUSH1 0x64 SWAP1 REVERT JUMPDEST CALLVALUE PUSH2 0x21A JUMPI PUSH1 0x0 CALLDATASIZE PUSH1 0x3 NOT ADD SLT PUSH2 0x21A JUMPI PUSH2 0x15FC PUSH2 0x2041 JUMP JUMPDEST PUSH2 0x1604 PUSH2 0x2093 JUMP JUMPDEST PUSH1 0x1 PUSH1 0xFF NOT DUP2 SLOAD AND OR PUSH1 0x1 SSTORE PUSH32 0x62E78CEA01BEE320CD4E420270B5EA74000D11B0C9F74754EBDBFC544B05A258 PUSH1 0x20 PUSH1 0x40 MLOAD CALLER DUP2 MSTORE LOG1 STOP JUMPDEST CALLVALUE PUSH2 0x21A JUMPI PUSH1 0x40 CALLDATASIZE PUSH1 0x3 NOT ADD SLT PUSH2 0x21A JUMPI PUSH2 0x1655 PUSH2 0x1DB0 JUMP JUMPDEST PUSH1 0x1 PUSH1 0x1 PUSH1 0xA0 SHL SUB AND PUSH1 0x0 SWAP1 DUP2 MSTORE PUSH1 0x7 PUSH1 0x20 MSTORE PUSH1 0x40 SWAP1 KECCAK256 DUP1 SLOAD PUSH1 0x24 CALLDATALOAD SWAP2 SWAP1 DUP3 LT ISZERO PUSH2 0x21A JUMPI PUSH1 0x20 SWAP2 PUSH2 0x250 SWAP2 PUSH2 0x1E02 JUMP JUMPDEST CALLVALUE PUSH2 0x21A JUMPI PUSH1 0x20 CALLDATASIZE PUSH1 0x3 NOT ADD SLT PUSH2 0x21A JUMPI PUSH1 0x4 CALLDATALOAD DUP1 ISZERO ISZERO DUP1 PUSH2 0x17C2 JUMPI JUMPDEST PUSH2 0x16AC SWAP1 PUSH2 0x1EB7 JUMP JUMPDEST PUSH1 0x0 DUP2 DUP2 MSTORE PUSH1 0x4 PUSH1 0x20 MSTORE PUSH1 0x40 SWAP1 KECCAK256 PUSH1 0x1 DUP2 ADD SLOAD CALLER PUSH1 0x1 PUSH1 0x1 PUSH1 0xA0 SHL SUB SWAP2 DUP3 AND EQ SWAP1 DUP2 ISZERO PUSH2 0x17B1 JUMPI JUMPDEST POP ISZERO PUSH2 0x1774 JUMPI PUSH1 0x7 ADD DUP1 SLOAD PUSH1 0xFF DUP2 AND PUSH1 0x6 DUP2 LT ISZERO PUSH2 0x4F4 JUMPI PUSH1 0x1 DUP2 EQ SWAP1 DUP2 ISZERO PUSH2 0x1769 JUMPI JUMPDEST POP ISZERO PUSH2 0x1734 JUMPI PUSH1 0x4 SWAP1 PUSH1 0xFF NOT AND OR SWAP1 SSTORE PUSH32 0xE3285420E15D5E840B024ECA291C363BAC53E810FC7F58B4C655C95CE40ACD3B PUSH1 0x20 PUSH1 0x40 MLOAD TIMESTAMP DUP2 MSTORE LOG2 STOP JUMPDEST PUSH1 0x40 MLOAD PUSH3 0x461BCD PUSH1 0xE5 SHL DUP2 MSTORE PUSH1 0x20 PUSH1 0x4 DUP3 ADD MSTORE PUSH1 0xD PUSH1 0x24 DUP3 ADD MSTORE PUSH13 0x10D85B9B9BDD0818D85B98D95B PUSH1 0x9A SHL PUSH1 0x44 DUP3 ADD MSTORE PUSH1 0x64 SWAP1 REVERT JUMPDEST PUSH1 0x2 SWAP2 POP EQ DUP5 PUSH2 0x16F8 JUMP JUMPDEST PUSH1 0x40 MLOAD PUSH3 0x461BCD PUSH1 0xE5 SHL DUP2 MSTORE PUSH1 0x20 PUSH1 0x4 DUP3 ADD MSTORE PUSH1 0x15 PUSH1 0x24 DUP3 ADD MSTORE PUSH21 0x27B7363C9031B932B0BA37B91037B91037BBB732B9 PUSH1 0x59 SHL PUSH1 0x44 DUP3 ADD MSTORE PUSH1 0x64 SWAP1 REVERT JUMPDEST SWAP1 POP PUSH1 0x1 SLOAD PUSH1 0x8 SHR AND CALLER EQ DUP4 PUSH2 0x16D4 JUMP JUMPDEST POP PUSH1 0x2 SLOAD DUP2 LT PUSH2 0x16A3 JUMP JUMPDEST CALLVALUE PUSH2 0x21A JUMPI PUSH1 0x0 CALLDATASIZE PUSH1 0x3 NOT ADD SLT PUSH2 0x21A JUMPI PUSH2 0x17E6 PUSH2 0x2041 JUMP JUMPDEST PUSH1 0x1 DUP1 SLOAD PUSH2 0x100 PUSH1 0x1 PUSH1 0xA8 SHL SUB NOT DUP2 AND SWAP1 SWAP2 SSTORE PUSH1 0x0 SWAP1 PUSH1 0x8 SHR PUSH1 0x1 PUSH1 0x1 PUSH1 0xA0 SHL SUB AND PUSH32 0x8BE0079C531659141344CD1FD0A4F28419497F9722A3DAAFE3B4186F6B6457E0 DUP3 DUP1 LOG3 STOP JUMPDEST CALLVALUE PUSH2 0x21A JUMPI PUSH1 0x20 CALLDATASIZE PUSH1 0x3 NOT ADD SLT PUSH2 0x21A JUMPI PUSH1 0x4 CALLDATALOAD PUSH2 0x184A PUSH2 0x2041 JUMP JUMPDEST DUP1 ISZERO ISZERO DUP1 PUSH2 0x187A JUMPI JUMPDEST PUSH2 0x185C SWAP1 PUSH2 0x1EB7 JUMP JUMPDEST PUSH1 0x0 SWAP1 DUP2 MSTORE PUSH1 0x4 PUSH1 0x20 MSTORE PUSH1 0x40 SWAP1 KECCAK256 PUSH1 0x7 ADD DUP1 SLOAD PUSH1 0xFF NOT AND PUSH1 0x5 OR SWAP1 SSTORE STOP JUMPDEST POP PUSH1 0x2 SLOAD DUP2 LT PUSH2 0x1853 JUMP JUMPDEST CALLVALUE PUSH2 0x21A JUMPI PUSH1 0x0 CALLDATASIZE PUSH1 0x3 NOT ADD SLT PUSH2 0x21A JUMPI PUSH1 0x20 PUSH1 0xFF PUSH1 0x1 SLOAD AND PUSH1 0x40 MLOAD SWAP1 ISZERO ISZERO DUP2 MSTORE RETURN JUMPDEST CALLVALUE PUSH2 0x21A JUMPI PUSH1 0x0 CALLDATASIZE PUSH1 0x3 NOT ADD SLT PUSH2 0x21A JUMPI PUSH1 0x20 PUSH1 0x2 SLOAD PUSH1 0x40 MLOAD SWAP1 DUP2 MSTORE RETURN JUMPDEST CALLVALUE PUSH2 0x21A JUMPI PUSH1 0x0 CALLDATASIZE PUSH1 0x3 NOT ADD SLT PUSH2 0x21A JUMPI PUSH2 0x18DF PUSH2 0x2041 JUMP JUMPDEST PUSH1 0x1 SLOAD PUSH1 0xFF DUP2 AND ISZERO PUSH2 0x191E JUMPI PUSH1 0xFF NOT AND PUSH1 0x1 SSTORE PUSH32 0x5DB9EE0A495BF2E6FF9C91A7834C1BA4FDD244A5E8AA4E537BD38AEAE4B073AA PUSH1 0x20 PUSH1 0x40 MLOAD CALLER DUP2 MSTORE LOG1 STOP JUMPDEST PUSH1 0x40 MLOAD PUSH4 0x8DFC202B PUSH1 0xE0 SHL DUP2 MSTORE PUSH1 0x4 SWAP1 REVERT JUMPDEST CALLVALUE PUSH2 0x21A JUMPI PUSH1 0x20 DUP1 PUSH1 0x3 NOT CALLDATASIZE ADD SLT PUSH2 0x21A JUMPI PUSH1 0x4 CALLDATALOAD DUP1 ISZERO ISZERO DUP1 PUSH2 0x19BF JUMPI JUMPDEST PUSH2 0x1957 SWAP1 PUSH2 0x1EB7 JUMP JUMPDEST PUSH1 0x0 MSTORE PUSH1 0x6 PUSH1 0x20 MSTORE PUSH1 0x40 PUSH1 0x0 KECCAK256 SWAP1 PUSH1 0x40 MLOAD SWAP1 DUP2 PUSH1 0x20 DUP5 SLOAD SWAP2 DUP3 DUP2 MSTORE ADD SWAP4 PUSH1 0x0 MSTORE PUSH1 0x20 PUSH1 0x0 KECCAK256 SWAP2 PUSH1 0x0 SWAP1 JUMPDEST DUP3 DUP3 LT PUSH2 0x19A8 JUMPI PUSH2 0x19A4 DUP6 PUSH2 0x1998 DUP2 DUP10 SUB DUP3 PUSH2 0x1CE9 JUMP JUMPDEST PUSH1 0x40 MLOAD SWAP2 DUP3 SWAP2 DUP3 PUSH2 0x1DC6 JUMP JUMPDEST SUB SWAP1 RETURN JUMPDEST DUP4 SLOAD DUP7 MSTORE SWAP5 DUP6 ADD SWAP5 PUSH1 0x1 SWAP4 DUP5 ADD SWAP4 SWAP1 SWAP2 ADD SWAP1 PUSH2 0x1981 JUMP JUMPDEST POP PUSH1 0x2 SLOAD DUP2 LT PUSH2 0x194E JUMP JUMPDEST CALLVALUE PUSH2 0x21A JUMPI PUSH1 0x20 DUP1 PUSH1 0x3 NOT CALLDATASIZE ADD SLT PUSH2 0x21A JUMPI PUSH1 0x1 PUSH1 0x1 PUSH1 0xA0 SHL SUB PUSH2 0x19EC PUSH2 0x1DB0 JUMP JUMPDEST AND PUSH1 0x0 MSTORE PUSH1 0x7 PUSH1 0x20 MSTORE PUSH1 0x40 PUSH1 0x0 KECCAK256 SWAP1 PUSH1 0x40 MLOAD SWAP1 DUP2 PUSH1 0x20 DUP5 SLOAD SWAP2 DUP3 DUP2 MSTORE ADD SWAP4 PUSH1 0x0 MSTORE PUSH1 0x20 PUSH1 0x0 KECCAK256 SWAP2 PUSH1 0x0 SWAP1 JUMPDEST DUP3 DUP3 LT PUSH2 0x1A2E JUMPI PUSH2 0x19A4 DUP6 PUSH2 0x1998 DUP2 DUP10 SUB DUP3 PUSH2 0x1CE9 JUMP JUMPDEST DUP4 SLOAD DUP7 MSTORE SWAP5 DUP6 ADD SWAP5 PUSH1 0x1 SWAP4 DUP5 ADD SWAP4 SWAP1 SWAP2 ADD SWAP1 PUSH2 0x1A17 JUMP JUMPDEST CALLVALUE PUSH2 0x21A JUMPI PUSH1 0x20 CALLDATASIZE PUSH1 0x3 NOT ADD SLT PUSH2 0x21A JUMPI PUSH1 0x4 CALLDATALOAD PUSH1 0x0 MSTORE PUSH1 0x5 PUSH1 0x20 MSTORE PUSH1 0x40 PUSH1 0x0 KECCAK256 DUP1 SLOAD PUSH2 0x19A4 PUSH1 0x1 DUP4 ADD SLOAD SWAP3 PUSH1 0x2 DUP2 ADD SLOAD SWAP1 PUSH1 0x3 DUP2 ADD SLOAD PUSH1 0xFF PUSH1 0x5 PUSH2 0x1A8C PUSH1 0x4 DUP6 ADD PUSH2 0x1D0B JUMP JUMPDEST SWAP4 ADD SLOAD AND SWAP3 PUSH1 0x40 MLOAD SWAP7 DUP8 SWAP7 PUSH1 0xFF DUP3 PUSH1 0xA0 SHR AND SWAP2 PUSH1 0x1 DUP1 PUSH1 0xA0 SHL SUB AND SWAP1 DUP9 PUSH2 0x1C61 JUMP JUMPDEST CALLVALUE PUSH2 0x21A JUMPI PUSH1 0x0 CALLDATASIZE PUSH1 0x3 NOT ADD SLT PUSH2 0x21A JUMPI PUSH1 0x20 PUSH1 0x8 SLOAD PUSH1 0x40 MLOAD SWAP1 DUP2 MSTORE RETURN JUMPDEST CALLVALUE PUSH2 0x21A JUMPI PUSH1 0x20 CALLDATASIZE PUSH1 0x3 NOT ADD SLT PUSH2 0x21A JUMPI PUSH1 0x4 CALLDATALOAD DUP1 ISZERO ISZERO DUP1 PUSH2 0x1B9D JUMPI JUMPDEST PUSH2 0x1AF2 SWAP1 PUSH2 0x1EB7 JUMP JUMPDEST DUP1 PUSH1 0x0 MSTORE PUSH1 0x4 PUSH1 0x20 MSTORE PUSH1 0x40 PUSH1 0x0 KECCAK256 PUSH1 0x7 DUP2 ADD SWAP1 DUP2 SLOAD SWAP1 PUSH1 0xFF DUP3 AND SWAP1 PUSH1 0x6 DUP3 LT ISZERO PUSH2 0x4F4 JUMPI PUSH2 0x1B24 PUSH1 0x1 PUSH1 0x5 SWAP4 EQ PUSH2 0x1EFB JUMP JUMPDEST ADD SLOAD TIMESTAMP LT PUSH2 0x1B61 JUMPI PUSH1 0x2 SWAP1 PUSH1 0xFF NOT AND OR SWAP1 SSTORE PUSH31 0xB6FEAE4BEC70344A7D0E99F4C0237ADAAEEE2FBB258266BE400BD8612A332 PUSH1 0x20 PUSH1 0x40 MLOAD TIMESTAMP DUP2 MSTORE LOG2 STOP JUMPDEST PUSH1 0x40 MLOAD PUSH3 0x461BCD PUSH1 0xE5 SHL DUP2 MSTORE PUSH1 0x20 PUSH1 0x4 DUP3 ADD MSTORE PUSH1 0x14 PUSH1 0x24 DUP3 ADD MSTORE PUSH20 0x13585C9AD95D081B9BDD081E595D08195B991959 PUSH1 0x62 SHL PUSH1 0x44 DUP3 ADD MSTORE PUSH1 0x64 SWAP1 REVERT JUMPDEST POP PUSH1 0x2 SLOAD DUP2 LT PUSH2 0x1AE9 JUMP JUMPDEST CALLVALUE PUSH2 0x21A JUMPI PUSH1 0x20 CALLDATASIZE PUSH1 0x3 NOT ADD SLT PUSH2 0x21A JUMPI PUSH1 0x4 CALLDATALOAD PUSH1 0x0 MSTORE PUSH1 0x5 PUSH1 0x20 MSTORE PUSH1 0x40 PUSH1 0x0 KECCAK256 DUP1 SLOAD PUSH2 0x19A4 PUSH1 0x1 DUP4 ADD SLOAD SWAP3 PUSH1 0x2 DUP2 ADD SLOAD PUSH1 0x3 DUP3 ADD SLOAD PUSH2 0x1BF2 PUSH1 0x4 PUSH1 0xFF PUSH1 0x5 DUP7 ADD SLOAD AND SWAP5 ADD PUSH2 0x1D0B JUMP JUMPDEST PUSH1 0x40 MLOAD SWAP7 DUP8 SWAP7 SWAP2 SWAP4 SWAP2 PUSH1 0xA0 DUP3 SWAP1 SHR PUSH1 0xFF AND SWAP2 PUSH1 0x1 PUSH1 0x1 PUSH1 0xA0 SHL SUB AND SWAP1 DUP9 PUSH2 0x1C61 JUMP JUMPDEST SWAP1 PUSH1 0x2 DUP3 LT ISZERO PUSH2 0x4F4 JUMPI MSTORE JUMP JUMPDEST SWAP2 SWAP1 DUP3 MLOAD SWAP3 DUP4 DUP3 MSTORE PUSH1 0x0 JUMPDEST DUP5 DUP2 LT PUSH2 0x1C4D JUMPI POP POP DUP3 PUSH1 0x0 PUSH1 0x20 DUP1 SWAP5 SWAP6 DUP5 ADD ADD MSTORE PUSH1 0x1F DUP1 NOT SWAP2 ADD AND ADD ADD SWAP1 JUMP JUMPDEST PUSH1 0x20 DUP2 DUP4 ADD DUP2 ADD MLOAD DUP5 DUP4 ADD DUP3 ADD MSTORE ADD PUSH2 0x1C2C JUMP JUMPDEST SWAP6 SWAP3 PUSH2 0x1C8C SWAP1 PUSH1 0xC0 SWAP7 SWAP4 PUSH2 0x1CA7 SWAP7 SWAP4 SWAP11 SWAP10 SWAP11 DUP10 MSTORE PUSH1 0x1 DUP1 PUSH1 0xA0 SHL SUB AND PUSH1 0x20 DUP10 ADD MSTORE PUSH1 0x40 DUP9 ADD SWAP1 PUSH2 0x1C14 JUMP JUMPDEST PUSH1 0x60 DUP7 ADD MSTORE PUSH1 0x80 DUP6 ADD MSTORE PUSH1 0xE0 PUSH1 0xA0 DUP6 ADD MSTORE PUSH1 0xE0 DUP5 ADD SWAP1 PUSH2 0x1C21 JUMP JUMPDEST SWAP4 ISZERO ISZERO SWAP2 ADD MSTORE JUMP JUMPDEST SWAP1 PUSH1 0x1 DUP3 DUP2 SHR SWAP3 AND DUP1 ISZERO PUSH2 0x1CDF JUMPI JUMPDEST PUSH1 0x20 DUP4 LT EQ PUSH2 0x1CC9 JUMPI JUMP JUMPDEST PUSH4 0x4E487B71 PUSH1 0xE0 SHL PUSH1 0x0 MSTORE PUSH1 0x22 PUSH1 0x4 MSTORE PUSH1 0x24 PUSH1 0x0 REVERT JUMPDEST SWAP2 PUSH1 0x7F AND SWAP2 PUSH2 0x1CBE JUMP JUMPDEST SWAP1 PUSH1 0x1F DUP1 NOT SWAP2 ADD AND DUP2 ADD SWAP1 DUP2 LT PUSH8 0xFFFFFFFFFFFFFFFF DUP3 GT OR PUSH2 0x99F JUMPI PUSH1 0x40 MSTORE JUMP JUMPDEST SWAP1 PUSH1 0x40 MLOAD SWAP2 DUP3 PUSH1 0x0 DUP3 SLOAD PUSH2 0x1D1E DUP2 PUSH2 0x1CAF JUMP JUMPDEST SWAP1 DUP2 DUP5 MSTORE PUSH1 0x20 SWAP5 PUSH1 0x1 SWAP2 PUSH1 0x1 DUP2 AND SWAP1 DUP2 PUSH1 0x0 EQ PUSH2 0x1D8E JUMPI POP PUSH1 0x1 EQ PUSH2 0x1D4F JUMPI JUMPDEST POP POP POP PUSH2 0x1D4D SWAP3 POP SUB DUP4 PUSH2 0x1CE9 JUMP JUMPDEST JUMP JUMPDEST PUSH1 0x0 SWAP1 DUP2 MSTORE DUP6 DUP2 KECCAK256 SWAP6 SWAP4 POP SWAP2 SWAP1 JUMPDEST DUP2 DUP4 LT PUSH2 0x1D76 JUMPI POP POP PUSH2 0x1D4D SWAP4 POP DUP3 ADD ADD CODESIZE DUP1 DUP1 PUSH2 0x1D3E JUMP JUMPDEST DUP6 SLOAD DUP9 DUP5 ADD DUP6 ADD MSTORE SWAP5 DUP6 ADD SWAP5 DUP8 SWAP5 POP SWAP2 DUP4 ADD SWAP2 PUSH2 0x1D5D JUMP JUMPDEST SWAP3 POP POP POP PUSH2 0x1D4D SWAP5 SWAP3 POP PUSH1 0xFF NOT AND DUP3 DUP5 ADD MSTORE ISZERO ISZERO PUSH1 0x5 SHL DUP3 ADD ADD CODESIZE DUP1 DUP1 PUSH2 0x1D3E JUMP JUMPDEST PUSH1 0x4 CALLDATALOAD SWAP1 PUSH1 0x1 PUSH1 0x1 PUSH1 0xA0 SHL SUB DUP3 AND DUP3 SUB PUSH2 0x21A JUMPI JUMP JUMPDEST PUSH1 0x20 SWAP1 PUSH1 0x20 PUSH1 0x40 DUP2 DUP4 ADD SWAP3 DUP3 DUP2 MSTORE DUP6 MLOAD DUP1 SWAP5 MSTORE ADD SWAP4 ADD SWAP2 PUSH1 0x0 JUMPDEST DUP3 DUP2 LT PUSH2 0x1DEE JUMPI POP POP POP POP SWAP1 JUMP JUMPDEST DUP4 MLOAD DUP6 MSTORE SWAP4 DUP2 ADD SWAP4 SWAP3 DUP2 ADD SWAP3 PUSH1 0x1 ADD PUSH2 0x1DE0 JUMP JUMPDEST DUP1 SLOAD DUP3 LT ISZERO PUSH2 0x1E1A JUMPI PUSH1 0x0 MSTORE PUSH1 0x20 PUSH1 0x0 KECCAK256 ADD SWAP1 PUSH1 0x0 SWAP1 JUMP JUMPDEST PUSH4 0x4E487B71 PUSH1 0xE0 SHL PUSH1 0x0 MSTORE PUSH1 0x32 PUSH1 0x4 MSTORE PUSH1 0x24 PUSH1 0x0 REVERT JUMPDEST DUP2 PUSH1 0x1F DUP3 ADD SLT ISZERO PUSH2 0x21A JUMPI DUP1 CALLDATALOAD SWAP1 PUSH8 0xFFFFFFFFFFFFFFFF DUP3 GT PUSH2 0x99F JUMPI PUSH1 0x40 MLOAD SWAP3 PUSH2 0x1E65 PUSH1 0x1F DUP5 ADD PUSH1 0x1F NOT AND PUSH1 0x20 ADD DUP6 PUSH2 0x1CE9 JUMP JUMPDEST DUP3 DUP5 MSTORE PUSH1 0x20 DUP4 DUP4 ADD ADD GT PUSH2 0x21A JUMPI DUP2 PUSH1 0x0 SWAP3 PUSH1 0x20 DUP1 SWAP4 ADD DUP4 DUP7 ADD CALLDATACOPY DUP4 ADD ADD MSTORE SWAP1 JUMP JUMPDEST SWAP1 PUSH1 0x6 DUP3 LT ISZERO PUSH2 0x4F4 JUMPI MSTORE JUMP JUMPDEST SWAP1 PUSH1 0x3 DUP3 LT ISZERO PUSH2 0x4F4 JUMPI MSTORE JUMP JUMPDEST PUSH1 0x40 SWAP1 PUSH1 0x3 NOT ADD SLT PUSH2 0x21A JUMPI PUSH1 0x4 CALLDATALOAD SWAP1 PUSH1 0x24 CALLDATALOAD SWAP1 JUMP JUMPDEST ISZERO PUSH2 0x1EBE JUMPI JUMP JUMPDEST PUSH1 0x40 MLOAD PUSH3 0x461BCD PUSH1 0xE5 SHL DUP2 MSTORE PUSH1 0x20 PUSH1 0x4 DUP3 ADD MSTORE PUSH1 0x15 PUSH1 0x24 DUP3 ADD MSTORE PUSH21 0x13585C9AD95D08191BD95CC81B9BDD08195E1A5CDD PUSH1 0x5A SHL PUSH1 0x44 DUP3 ADD MSTORE PUSH1 0x64 SWAP1 REVERT JUMPDEST ISZERO PUSH2 0x1F02 JUMPI JUMP JUMPDEST PUSH1 0x40 MLOAD PUSH3 0x461BCD PUSH1 0xE5 SHL DUP2 MSTORE PUSH1 0x20 PUSH1 0x4 DUP3 ADD MSTORE PUSH1 0x11 PUSH1 0x24 DUP3 ADD MSTORE PUSH17 0x4D61726B6574206E6F7420616374697665 PUSH1 0x78 SHL PUSH1 0x44 DUP3 ADD MSTORE PUSH1 0x64 SWAP1 REVERT JUMPDEST ISZERO PUSH2 0x1F42 JUMPI JUMP JUMPDEST PUSH1 0x40 MLOAD PUSH3 0x461BCD PUSH1 0xE5 SHL DUP2 MSTORE PUSH1 0x20 PUSH1 0x4 DUP3 ADD MSTORE PUSH1 0xD PUSH1 0x24 DUP3 ADD MSTORE PUSH13 0x2737BA103132BA1037BBB732B9 PUSH1 0x99 SHL PUSH1 0x44 DUP3 ADD MSTORE PUSH1 0x64 SWAP1 REVERT JUMPDEST ISZERO PUSH2 0x1F7E JUMPI JUMP JUMPDEST PUSH1 0x40 MLOAD PUSH3 0x461BCD PUSH1 0xE5 SHL DUP2 MSTORE PUSH1 0x20 PUSH1 0x4 DUP3 ADD MSTORE PUSH1 0xF PUSH1 0x24 DUP3 ADD MSTORE PUSH15 0x105B1C9958591E4818DB185A5B5959 PUSH1 0x8A SHL PUSH1 0x44 DUP3 ADD MSTORE PUSH1 0x64 SWAP1 REVERT JUMPDEST SWAP2 SWAP1 DUP3 ADD DUP1 SWAP3 GT PUSH2 0x1FC2 JUMPI JUMP JUMPDEST PUSH4 0x4E487B71 PUSH1 0xE0 SHL PUSH1 0x0 MSTORE PUSH1 0x11 PUSH1 0x4 MSTORE PUSH1 0x24 PUSH1 0x0 REVERT JUMPDEST DUP2 DUP2 MUL SWAP3 SWAP2 DUP2 ISZERO SWAP2 DUP5 DIV EQ OR ISZERO PUSH2 0x1FC2 JUMPI JUMP JUMPDEST SWAP2 SWAP1 DUP3 SUB SWAP2 DUP3 GT PUSH2 0x1FC2 JUMPI JUMP JUMPDEST PUSH1 0x0 NOT DUP2 EQ PUSH2 0x1FC2 JUMPI PUSH1 0x1 ADD SWAP1 JUMP JUMPDEST DUP1 SLOAD PUSH9 0x10000000000000000 DUP2 LT ISZERO PUSH2 0x99F JUMPI PUSH2 0x2029 SWAP2 PUSH1 0x1 DUP3 ADD DUP2 SSTORE PUSH2 0x1E02 JUMP JUMPDEST DUP2 SWAP3 SWAP2 SLOAD SWAP1 PUSH1 0x3 SHL SWAP2 DUP3 SHL SWAP2 PUSH1 0x0 NOT SWAP1 SHL NOT AND OR SWAP1 SSTORE JUMP JUMPDEST PUSH1 0x1 SLOAD PUSH1 0x8 SHR PUSH1 0x1 PUSH1 0x1 PUSH1 0xA0 SHL SUB AND CALLER SUB PUSH2 0x2058 JUMPI JUMP JUMPDEST PUSH1 0x40 MLOAD PUSH4 0x118CDAA7 PUSH1 0xE0 SHL DUP2 MSTORE CALLER PUSH1 0x4 DUP3 ADD MSTORE PUSH1 0x24 SWAP1 REVERT JUMPDEST PUSH1 0x2 PUSH1 0x0 SLOAD EQ PUSH2 0x2081 JUMPI PUSH1 0x2 PUSH1 0x0 SSTORE JUMP JUMPDEST PUSH1 0x40 MLOAD PUSH4 0x3EE5AEB5 PUSH1 0xE0 SHL DUP2 MSTORE PUSH1 0x4 SWAP1 REVERT JUMPDEST PUSH1 0xFF PUSH1 0x1 SLOAD AND PUSH2 0x209F JUMPI JUMP JUMPDEST PUSH1 0x40 MLOAD PUSH4 0xD93C0665 PUSH1 0xE0 SHL DUP2 MSTORE PUSH1 0x4 SWAP1 REVERT INVALID LOG2 PUSH5 0x6970667358 0x22 SLT KECCAK256 DUP16 PREVRANDAO 0xEB DUP2 0xD8 0xCA 0xF8 PUSH18 0x76176E52C866FAE7B28485BC7598ABC86C49 0xD8 PUSH27 0xA53C98B964736F6C63430008180033000000000000000000000000 "},"methodIdentifiers":{"BASIS_POINTS()":"e1f1c4a7","MAX_ODDS()":"f014a108","MIN_ODDS()":"ae07d051","bets(uint256)":"22af00fa","cancelMarket(uint256)":"7c16cd9e","claimPayout(uint256)":"8a69614e","createMarket(string,string,string,uint256,uint256,uint256)":"99eb49b9","defaultCreatorFee()":"f0b2cf13","defaultPlatformFee()":"1c34212c","emergencyRefund(uint256)":"70e5deb9","endMarket(uint256)":"157bdcce","getBet(uint256)":"061e494f","getMarket(uint256)":"eb44fdd3","getMarketBets(uint256)":"3adadc0a","getUserBets(address)":"2d56657d","marketBets(uint256,uint256)":"f2e55021","markets(uint256)":"b1283e77","nextBetId()":"9aca2792","nextMarketId()":"406ef2ef","oracleResolver()":"b5acbd43","owner()":"8da5cb5b","pause()":"8456cb59","paused()":"5c975abb","placeBet(uint256,uint8,string)":"c62d359c","refundBet(uint256)":"e1fdb4b4","renounceOwnership()":"715018a6","resolveMarket(uint256,uint8,bytes32)":"d5220b62","setDefaultFees(uint256,uint256)":"b9bdb4ef","setOracleResolver(address)":"94479bbb","transferOwnership(address)":"f2fde38b","unpause()":"3f4ba83a","userBets(address,uint256)":"8068aa68"}}}}}