{
  "_format": "hh-sol-artifact-1",
  "contractName": "NFTBadge",
  "sourceName": "contracts/NFTBadge.sol",
  "abi": [
    {
      "inputs": [],
      "stateMutability": "nonpayable",
      "type": "constructor"
    },
    {
      "inputs": [
        {
          "internalType": "address",
          "name": "sender",
          "type": "address"
        },
        {
          "internalType": "uint256",
          "name": "tokenId",
          "type": "uint256"
        },
        {
          "internalType": "address",
          "name": "owner",
          "type": "address"
        }
      ],
      "name": "ERC721IncorrectOwner",
      "type": "error"
    },
    {
      "inputs": [
        {
          "internalType": "address",
          "name": "operator",
          "type": "address"
        },
        {
          "internalType": "uint256",
          "name": "tokenId",
          "type": "uint256"
        }
      ],
      "name": "ERC721InsufficientApproval",
      "type": "error"
    },
    {
      "inputs": [
        {
          "internalType": "address",
          "name": "approver",
          "type": "address"
        }
      ],
      "name": "ERC721InvalidApprover",
      "type": "error"
    },
    {
      "inputs": [
        {
          "internalType": "address",
          "name": "operator",
          "type": "address"
        }
      ],
      "name": "ERC721InvalidOperator",
      "type": "error"
    },
    {
      "inputs": [
        {
          "internalType": "address",
          "name": "owner",
          "type": "address"
        }
      ],
      "name": "ERC721InvalidOwner",
      "type": "error"
    },
    {
      "inputs": [
        {
          "internalType": "address",
          "name": "receiver",
          "type": "address"
        }
      ],
      "name": "ERC721InvalidReceiver",
      "type": "error"
    },
    {
      "inputs": [
        {
          "internalType": "address",
          "name": "sender",
          "type": "address"
        }
      ],
      "name": "ERC721InvalidSender",
      "type": "error"
    },
    {
      "inputs": [
        {
          "internalType": "uint256",
          "name": "tokenId",
          "type": "uint256"
        }
      ],
      "name": "ERC721NonexistentToken",
      "type": "error"
    },
    {
      "inputs": [
        {
          "internalType": "address",
          "name": "owner",
          "type": "address"
        }
      ],
      "name": "OwnableInvalidOwner",
      "type": "error"
    },
    {
      "inputs": [
        {
          "internalType": "address",
          "name": "account",
          "type": "address"
        }
      ],
      "name": "OwnableUnauthorizedAccount",
      "type": "error"
    },
    {
      "anonymous": false,
      "inputs": [
        {
          "indexed": true,
          "internalType": "address",
          "name": "owner",
          "type": "address"
        },
        {
          "indexed": true,
          "internalType": "address",
          "name": "approved",
          "type": "address"
        },
        {
          "indexed": true,
          "internalType": "uint256",
          "name": "tokenId",
          "type": "uint256"
        }
      ],
      "name": "Approval",
      "type": "event"
    },
    {
      "anonymous": false,
      "inputs": [
        {
          "indexed": true,
          "internalType": "address",
          "name": "owner",
          "type": "address"
        },
        {
          "indexed": true,
          "internalType": "address",
          "name": "operator",
          "type": "address"
        },
        {
          "indexed": false,
          "internalType": "bool",
          "name": "approved",
          "type": "bool"
        }
      ],
      "name": "ApprovalForAll",
      "type": "event"
    },
    {
      "anonymous": false,
      "inputs": [
        {
          "indexed": true,
          "internalType": "uint256",
          "name": "tokenId",
          "type": "uint256"
        },
        {
          "indexed": true,
          "internalType": "address",
          "name": "recipient",
          "type": "address"
        },
        {
          "indexed": false,
          "internalType": "enum NFTBadge.BadgeType",
          "name": "badgeType",
          "type": "uint8"
        },
        {
          "indexed": false,
          "internalType": "uint256",
          "name": "marketId",
          "type": "uint256"
        }
      ],
      "name": "BadgeMinted",
      "type": "event"
    },
    {
      "anonymous": false,
      "inputs": [
        {
          "indexed": false,
          "internalType": "uint256",
          "name": "_fromTokenId",
          "type": "uint256"
        },
        {
          "indexed": false,
          "internalType": "uint256",
          "name": "_toTokenId",
          "type": "uint256"
        }
      ],
      "name": "BatchMetadataUpdate",
      "type": "event"
    },
    {
      "anonymous": false,
      "inputs": [
        {
          "indexed": false,
          "internalType": "uint256",
          "name": "_tokenId",
          "type": "uint256"
        }
      ],
      "name": "MetadataUpdate",
      "type": "event"
    },
    {
      "anonymous": false,
      "inputs": [
        {
          "indexed": true,
          "internalType": "address",
          "name": "previousOwner",
          "type": "address"
        },
        {
          "indexed": true,
          "internalType": "address",
          "name": "newOwner",
          "type": "address"
        }
      ],
      "name": "OwnershipTransferred",
      "type": "event"
    },
    {
      "anonymous": false,
      "inputs": [
        {
          "indexed": true,
          "internalType": "address",
          "name": "from",
          "type": "address"
        },
        {
          "indexed": true,
          "internalType": "address",
          "name": "to",
          "type": "address"
        },
        {
          "indexed": true,
          "internalType": "uint256",
          "name": "tokenId",
          "type": "uint256"
        }
      ],
      "name": "Transfer",
      "type": "event"
    },
    {
      "inputs": [
        {
          "internalType": "address",
          "name": "to",
          "type": "address"
        },
        {
          "internalType": "uint256",
          "name": "tokenId",
          "type": "uint256"
        }
      ],
      "name": "approve",
      "outputs": [],
      "stateMutability": "nonpayable",
      "type": "function"
    },
    {
      "inputs": [
        {
          "internalType": "uint256",
          "name": "",
          "type": "uint256"
        }
      ],
      "name": "badges",
      "outputs": [
        {
          "internalType": "enum NFTBadge.BadgeType",
          "name": "badgeType",
          "type": "uint8"
        },
        {
          "internalType": "uint256",
          "name": "marketId",
          "type": "uint256"
        },
        {
          "internalType": "uint256",
          "name": "awardedAt",
          "type": "uint256"
        },
        {
          "internalType": "string",
          "name": "metadata",
          "type": "string"
        }
      ],
      "stateMutability": "view",
      "type": "function"
    },
    {
      "inputs": [
        {
          "internalType": "address",
          "name": "owner",
          "type": "address"
        }
      ],
      "name": "balanceOf",
      "outputs": [
        {
          "internalType": "uint256",
          "name": "",
          "type": "uint256"
        }
      ],
      "stateMutability": "view",
      "type": "function"
    },
    {
      "inputs": [
        {
          "internalType": "address",
          "name": "",
          "type": "address"
        }
      ],
      "name": "correctPredictions",
      "outputs": [
        {
          "internalType": "uint256",
          "name": "",
          "type": "uint256"
        }
      ],
      "stateMutability": "view",
      "type": "function"
    },
    {
      "inputs": [
        {
          "internalType": "address",
          "name": "",
          "type": "address"
        }
      ],
      "name": "currentStreak",
      "outputs": [
        {
          "internalType": "uint256",
          "name": "",
          "type": "uint256"
        }
      ],
      "stateMutability": "view",
      "type": "function"
    },
    {
      "inputs": [
        {
          "internalType": "uint256",
          "name": "tokenId",
          "type": "uint256"
        }
      ],
      "name": "getApproved",
      "outputs": [
        {
          "internalType": "address",
          "name": "",
          "type": "address"
        }
      ],
      "stateMutability": "view",
      "type": "function"
    },
    {
      "inputs": [
        {
          "internalType": "uint256",
          "name": "tokenId",
          "type": "uint256"
        }
      ],
      "name": "getBadge",
      "outputs": [
        {
          "components": [
            {
              "internalType": "enum NFTBadge.BadgeType",
              "name": "badgeType",
              "type": "uint8"
            },
            {
              "internalType": "uint256",
              "name": "marketId",
              "type": "uint256"
            },
            {
              "internalType": "uint256",
              "name": "awardedAt",
              "type": "uint256"
            },
            {
              "internalType": "string",
              "name": "metadata",
              "type": "string"
            }
          ],
          "internalType": "struct NFTBadge.Badge",
          "name": "",
          "type": "tuple"
        }
      ],
      "stateMutability": "view",
      "type": "function"
    },
    {
      "inputs": [
        {
          "internalType": "address",
          "name": "user",
          "type": "address"
        }
      ],
      "name": "getUserBadges",
      "outputs": [
        {
          "internalType": "uint256[]",
          "name": "",
          "type": "uint256[]"
        }
      ],
      "stateMutability": "view",
      "type": "function"
    },
    {
      "inputs": [
        {
          "internalType": "address",
          "name": "user",
          "type": "address"
        }
      ],
      "name": "getUserStats",
      "outputs": [
        {
          "internalType": "uint256",
          "name": "totalCorrect",
          "type": "uint256"
        },
        {
          "internalType": "uint256",
          "name": "streak",
          "type": "uint256"
        },
        {
          "internalType": "uint256",
          "name": "totalBadges",
          "type": "uint256"
        }
      ],
      "stateMutability": "view",
      "type": "function"
    },
    {
      "inputs": [
        {
          "internalType": "address",
          "name": "owner",
          "type": "address"
        },
        {
          "internalType": "address",
          "name": "operator",
          "type": "address"
        }
      ],
      "name": "isApprovedForAll",
      "outputs": [
        {
          "internalType": "bool",
          "name": "",
          "type": "bool"
        }
      ],
      "stateMutability": "view",
      "type": "function"
    },
    {
      "inputs": [
        {
          "internalType": "address",
          "name": "recipient",
          "type": "address"
        },
        {
          "internalType": "uint256",
          "name": "marketId",
          "type": "uint256"
        },
        {
          "internalType": "string",
          "name": "tokenURI",
          "type": "string"
        }
      ],
      "name": "mintTopPredictorBadge",
      "outputs": [
        {
          "internalType": "uint256",
          "name": "",
          "type": "uint256"
        }
      ],
      "stateMutability": "nonpayable",
      "type": "function"
    },
    {
      "inputs": [],
      "name": "name",
      "outputs": [
        {
          "internalType": "string",
          "name": "",
          "type": "string"
        }
      ],
      "stateMutability": "view",
      "type": "function"
    },
    {
      "inputs": [],
      "name": "owner",
      "outputs": [
        {
          "internalType": "address",
          "name": "",
          "type": "address"
        }
      ],
      "stateMutability": "view",
      "type": "function"
    },
    {
      "inputs": [
        {
          "internalType": "uint256",
          "name": "tokenId",
          "type": "uint256"
        }
      ],
      "name": "ownerOf",
      "outputs": [
        {
          "internalType": "address",
          "name": "",
          "type": "address"
        }
      ],
      "stateMutability": "view",
      "type": "function"
    },
    {
      "inputs": [
        {
          "internalType": "address",
          "name": "user",
          "type": "address"
        }
      ],
      "name": "recordCorrectPrediction",
      "outputs": [],
      "stateMutability": "nonpayable",
      "type": "function"
    },
    {
      "inputs": [
        {
          "internalType": "address",
          "name": "user",
          "type": "address"
        }
      ],
      "name": "recordIncorrectPrediction",
      "outputs": [],
      "stateMutability": "nonpayable",
      "type": "function"
    },
    {
      "inputs": [],
      "name": "renounceOwnership",
      "outputs": [],
      "stateMutability": "nonpayable",
      "type": "function"
    },
    {
      "inputs": [
        {
          "internalType": "address",
          "name": "from",
          "type": "address"
        },
        {
          "internalType": "address",
          "name": "to",
          "type": "address"
        },
        {
          "internalType": "uint256",
          "name": "tokenId",
          "type": "uint256"
        }
      ],
      "name": "safeTransferFrom",
      "outputs": [],
      "stateMutability": "nonpayable",
      "type": "function"
    },
    {
      "inputs": [
        {
          "internalType": "address",
          "name": "from",
          "type": "address"
        },
        {
          "internalType": "address",
          "name": "to",
          "type": "address"
        },
        {
          "internalType": "uint256",
          "name": "tokenId",
          "type": "uint256"
        },
        {
          "internalType": "bytes",
          "name": "data",
          "type": "bytes"
        }
      ],
      "name": "safeTransferFrom",
      "outputs": [],
      "stateMutability": "nonpayable",
      "type": "function"
    },
    {
      "inputs": [
        {
          "internalType": "address",
          "name": "operator",
          "type": "address"
        },
        {
          "internalType": "bool",
          "name": "approved",
          "type": "bool"
        }
      ],
      "name": "setApprovalForAll",
      "outputs": [],
      "stateMutability": "nonpayable",
      "type": "function"
    },
    {
      "inputs": [
        {
          "internalType": "bytes4",
          "name": "interfaceId",
          "type": "bytes4"
        }
      ],
      "name": "supportsInterface",
      "outputs": [
        {
          "internalType": "bool",
          "name": "",
          "type": "bool"
        }
      ],
      "stateMutability": "view",
      "type": "function"
    },
    {
      "inputs": [],
      "name": "symbol",
      "outputs": [
        {
          "internalType": "string",
          "name": "",
          "type": "string"
        }
      ],
      "stateMutability": "view",
      "type": "function"
    },
    {
      "inputs": [
        {
          "internalType": "uint256",
          "name": "tokenId",
          "type": "uint256"
        }
      ],
      "name": "tokenURI",
      "outputs": [
        {
          "internalType": "string",
          "name": "",
          "type": "string"
        }
      ],
      "stateMutability": "view",
      "type": "function"
    },
    {
      "inputs": [
        {
          "internalType": "address",
          "name": "from",
          "type": "address"
        },
        {
          "internalType": "address",
          "name": "to",
          "type": "address"
        },
        {
          "internalType": "uint256",
          "name": "tokenId",
          "type": "uint256"
        }
      ],
      "name": "transferFrom",
      "outputs": [],
      "stateMutability": "nonpayable",
      "type": "function"
    },
    {
      "inputs": [
        {
          "internalType": "address",
          "name": "newOwner",
          "type": "address"
        }
      ],
      "name": "transferOwnership",
      "outputs": [],
      "stateMutability": "nonpayable",
      "type": "function"
    },
    {
      "inputs": [
        {
          "internalType": "address",
          "name": "",
          "type": "address"
        },
        {
          "internalType": "enum NFTBadge.BadgeType",
          "name": "",
          "type": "uint8"
        }
      ],
      "name": "userBadgeCount",
      "outputs": [
        {
          "internalType": "uint256",
          "name": "",
          "type": "uint256"
        }
      ],
      "stateMutability": "view",
      "type": "function"
    },
    {
      "inputs": [
        {
          "internalType": "address",
          "name": "",
          "type": "address"
        },
        {
          "internalType": "uint256",
          "name": "",
          "type": "uint256"
        }
      ],
      "name": "userBadges",
      "outputs": [
        {
          "internalType": "uint256",
          "name": "",
          "type": "uint256"
        }
      ],
      "stateMutability": "view",
      "type": "function"
    }
  ],
  "bytecode": "0x60803462000389576001600160401b039060408181018381118382101762000373578152601382526020917f4f7261636c654d61726b65747320426164676500000000000000000000000000838201528151938285018581108282111762000373578352600385526227a6a160e91b84860152815181811162000373576000948554916001948584811c9416801562000368575b8385101462000354578190601f9485811162000301575b5083908583116001146200029d57899262000291575b5050600019600383901b1c191690851b1786555b86519283116200027d5783548481811c9116801562000272575b828210146200025e5782811162000216575b5080918311600114620001af575084958293949592620001a3575b5050600019600383901b1c191690821b1790555b33156200018b5760078054336001600160a01b03198216811790925591519290916001600160a01b0316907f8be0079c531659141344cd1fd0a4f28419497f9722a3daafe3b4186f6b6457e09080a361232490816200038f8239f35b51631e4fbdf760e01b81526004810191909152602490fd5b0151905038806200011b565b90601f198316968487528287209287905b898210620001fe575050838596979810620001e4575b505050811b0190556200012f565b015160001960f88460031b161c19169055388080620001d6565b808785968294968601518155019501930190620001c0565b8487528187208380860160051c82019284871062000254575b0160051c019085905b8281106200024857505062000100565b88815501859062000238565b925081926200022f565b634e487b7160e01b87526022600452602487fd5b90607f1690620000ee565b634e487b7160e01b86526041600452602486fd5b015190503880620000c0565b898052848a208894509190601f1984168b5b87828210620002ea5750508411620002d0575b505050811b018655620000d4565b015160001960f88460031b161c19169055388080620002c2565b8385015186558b97909501949384019301620002af565b9091508880528389208580850160051c8201928686106200034a575b918991869594930160051c01915b8281106200033b575050620000aa565b8b81558594508991016200032b565b925081926200031d565b634e487b7160e01b88526022600452602488fd5b93607f169362000093565b634e487b7160e01b600052604160045260246000fd5b600080fdfe608080604052600436101561001357600080fd5b60003560e01c90816301ffc9a71461186e5750806306fdde03146117c3578063081812fc14611785578063095ea7b31461169e57806323b872dd1461168757806337c245fe146115d35780633ad20ee01461159857806342842e0e1461156a5780634e43603a1461150f578063578f1f01146114bd5780635c45f739146114835780636352211e146114535780636b15499b146109c357806370a082311461096a578063715018a61461090d57806372c1d239146106855780638d838622146105ab5780638da5cb5b1461058257806395d89b411461049f57806398e36d8b14610433578063a22cb4651461038e578063a6e2a05014610354578063b88d4fde146102e6578063c87b56dd14610289578063df91cc2314610231578063e985e9c5146101db5763f2fde38b1461014857600080fd5b346101d65760203660031901126101d657610161611933565b610169611db0565b6001600160a01b039081169081156101bd57600754826bffffffffffffffffffffffff60a01b821617600755167f8be0079c531659141344cd1fd0a4f28419497f9722a3daafe3b4186f6b6457e0600080a3005b604051631e4fbdf760e01b815260006004820152602490fd5b600080fd5b346101d65760403660031901126101d6576101f4611933565b6101fc611949565b9060018060a01b03809116600052600560205260406000209116600052602052602060ff604060002054166040519015158152f35b346101d65760403660031901126101d65761024a611933565b6001600160a01b03166000908152600a60205260409020805460243591908210156101d65760209161027b91611b49565b90546040519160031b1c8152f35b346101d65760203660031901126101d6576004356102a681611d75565b5060005260066020526102e26102bf6040600020611aa4565b60006040516102cd816119b0565b526040519182916020835260208301906118f3565b0390f35b346101d65760803660031901126101d6576102ff611933565b610307611949565b906044356064359267ffffffffffffffff84116101d657366023850112156101d657610340610352943690602481600401359101611a26565b9261034c838383611b77565b33612180565b005b346101d65760203660031901126101d6576001600160a01b03610375611933565b16600052600c6020526020604060002054604051908152f35b346101d65760403660031901126101d6576103a7611933565b602435908115158092036101d6576001600160a01b031690811561041a57336000526005602052604060002082600052602052604060002060ff1981541660ff83161790556040519081527f17307eab39ab6107e8899845ad3d59bd9653f200f220920489ca2b5937696c3160203392a3005b604051630b61174360e31b815260048101839052602490fd5b346101d65760203660031901126101d657600435600052600960205261048460406000206102e260ff82541691600181015490610477600360028301549201611aa4565b9160405195868096611a5d565b602085015260408401526080606084015260808301906118f3565b346101d65760003660031901126101d6576040516000600182600154926104c584611a6a565b9283835260209485600182169182600014610562575050600114610505575b506104f1925003836119e8565b6102e26040519282849384528301906118f3565b84915060016000527fb10e2d527612073b26eecdfd717e6a320cf44b4afac2b0732d9fcbe2b7fa0cf6906000915b85831061054a5750506104f19350820101856104e4565b80548389018501528794508693909201918101610533565b60ff1916858201526104f195151560051b85010192508791506104e49050565b346101d65760003660031901126101d6576007546040516001600160a01b039091168152602090f35b346101d6576020806003193601126101d6576060806040516105cc81611994565b6000815260008482015260006040820152015260043560005260098152604060002090604051916105fc83611994565b60ff81541690600582101561066f576102e291845260018101549083850191825261063560036002830154926040880193845201611aa4565b916060860192835261065260405196868897885287019051611a5d565b5160408501525160608401525160808084015260a08301906118f3565b634e487b7160e01b600052602160045260246000fd5b346101d65760603660031901126101d65761069e611933565b67ffffffffffffffff906024356044358381116101d657366023820112156101d6576106d4903690602481600401359101611a26565b6106dc611db0565b600854926106e984611d16565b6008556106f68482611ddc565b610700828561200a565b6040519161070d83611994565b600083526020958684019385855260408101904282526060810193845287600052600989526040600020905191600583101561066f5760039260ff8019845416911617825560019651878301555160028201550191519384519182116108f75786946107798454611a6a565b601f811161089f575b508890601f84116001146108225792806040959381936000805160206122cf8339815191529896600094610817575b50501b916000199060031b1c19161790555b60018060a01b03169384600052600a87526107e18483600020611d3b565b84600052600b875281600020600080528752816000206108018154611d16565b90558151906000825287820152a3604051908152f35b015192508c806107b1565b90601f93929319831691856000528a6000209260005b8c828210610888575050916000805160206122cf833981519152979593918560409896941061086f575b505050811b0190556107c3565b015160001960f88460031b161c191690558a8080610862565b8484015186558c9a50948701949384019301610838565b909192938095965060005288600020601f850160051c8101918a86106108ed575b90601f8a989796959493920160051c01905b8181106108df5750610782565b6000815589975083016108d2565b90915081906108c0565b634e487b7160e01b600052604160045260246000fd5b346101d65760003660031901126101d657610926611db0565b600780546001600160a01b031981169091556000906001600160a01b03167f8be0079c531659141344cd1fd0a4f28419497f9722a3daafe3b4186f6b6457e08280a3005b346101d65760203660031901126101d6576001600160a01b0361098b611933565b1680156109aa5760005260036020526020604060002054604051908152f35b6040516322718ad960e21b815260006004820152602490fd5b346101d65760203660031901126101d6576109dc611933565b6109e4611db0565b6001600160a01b0381166000908152600c602052604090208054610a0790611d16565b90556001600160a01b0381166000908152600d602052604090208054610a2c90611d16565b90556001600160a01b0381166000908152600d602052604090205460051480611434575b6111ed575b6001600160a01b0381166000908152600c6020526040902054600a14806111ce575b610f8e575b6001600160a01b0381166000908152600c602052604090205460191480610f6f575b610d29575b6001600160a01b0381166000908152600c602052604090205460321480610d0a575b610acb57005b600854610ad781611d16565b600855610ae48183611ddc565b604051610af0816119cc565b60168152751a5c199cce8bcbd45b541c9bdc1a195d131959d95b9960521b6020820152610b1d818361200a565b604051610b2981611994565b600481526020810190600082526040810190428252606081019384528460005260096020526040600020905191600583101561066f5760039260ff80198454169116178255600193518483015551600282015501915180519067ffffffffffffffff82116108f757610b9b8454611a6a565b601f8111610cbf575b50602090601f8311600114610c5b57928293918392600094610c50575b50501b916000199060031b1c19161790555b60018060a01b038216600052600a602052610bf2816040600020611d3b565b60018060a01b038216600052600b602052604060002060046000526020526040600020610c1f8154611d16565b90556040805160048152600060208201526001600160a01b03909316926000805160206122cf8339815191529190a3005b015192508780610bc1565b90601f19831691856000528360206000209360005b87828210610ca657505010610c8d575b505050811b019055610bd3565b015160001960f88460031b161c19169055858080610c80565b8486015187559095019460209485019487935001610c70565b846000526020600020601f840160051c81019160208510610d00575b601f0160051c019084905b828110610cf4575050610ba4565b60008155018490610ce6565b9091508190610cdb565b50600b6020526040600020600460005260205260406000205415610ac5565b600854610d3581611d16565b600855610d428183611ddc565b604051610d4e816119cc565b6013815272697066733a2f2f516d4f7261636c655361676560681b6020820152610d78818361200a565b60405190610d8582611994565b60038252602082016000815260408301904282526060840192835284600052600960205260406000209351600581101561066f5760ff801986541691161784555160018401555160028301555180519067ffffffffffffffff82116108f757610df16003840154611a6a565b601f8111610f24575b50602090601f8311600114610eb5576003929160009183610eaa575b50508160011b9160001990841b1c1916179101555b60018060a01b038216600052600a602052610e4a816040600020611d3b565b60018060a01b038216600052600b602052604060002060036000526020526040600020610e778154611d16565b90556040805160038152600060208201526001600160a01b03841692916000805160206122cf83398151915291a3610aa3565b015190508680610e16565b906003840160005260206000209160005b601f1985168110610f0c5750918391600193600395601f19811610610ef4575b505050811b01910155610e2b565b015160001983861b60f8161c19169055868080610ee6565b91926020600181928685015181550194019201610ec6565b600384016000526020600020601f840160051c81019160208510610f65575b601f0160051c01905b818110610f595750610dfa565b60008155600101610f4c565b9091508190610f43565b50600b6020526040600020600360005260205260406000205415610a9e565b600854610f9a81611d16565b600855610fa78183611ddc565b604051610fb3816119cc565b601581527434b833399d1797a8b6a6b0b935b2ba26b0b9ba32b960591b6020820152610fdf818361200a565b604051610feb81611994565b600281526020810190600082526040810190428252606081019384528460005260096020526040600020905191600583101561066f5760039260ff80198454169116178255600193518483015551600282015501915180519067ffffffffffffffff82116108f75761105d8454611a6a565b601f8111611183575b50602090601f831160011461111f57928293918392600094611114575b50501b916000199060031b1c19161790555b60018060a01b038216600052600a6020526110b4816040600020611d3b565b60018060a01b038216600052600b6020526040600020600260005260205260406000206110e18154611d16565b90556040805160028152600060208201526001600160a01b03841692916000805160206122cf83398151915291a3610a7c565b015192508780611083565b90601f19831691856000528360206000209360005b8782821061116a57505010611151575b505050811b019055611095565b015160001960f88460031b161c19169055858080611144565b8486015187559095019460209485019487935001611134565b846000526020600020601f840160051c810191602085106111c4575b601f0160051c019084905b8281106111b8575050611066565b600081550184906111aa565b909150819061119f565b50600b6020526040600020600260005260205260406000205415610a77565b6008546111f981611d16565b6008556112068183611ddc565b60405190611213826119cc565b6016825275697066733a2f2f516d57696e6e696e6753747265616b60501b6020830152611240828261200a565b6040519161124d83611994565b60019283815260208101906000825260408101428152606082019384528460005260096020526040600020915192600584101561066f5760039360ff80198554169116178355518683015551600282015501905180519067ffffffffffffffff82116108f75781906112bf8454611a6a565b601f81116113df575b50602090601f831160011461137b57600092611370575b5050600019600383901b1c191690841b1790555b60018060a01b038316600052600a602052611312816040600020611d3b565b60018060a01b038316600052600b602052604060002082600052602052604060002061133e8154611d16565b905560408051928352600060208401526001600160a01b038416926000805160206122cf8339815191529190a3610a55565b0151905086806112df565b90869350601f198316918560005260206000209260005b8181106113c7575084116113ae575b505050811b0190556112f3565b015160001960f88460031b161c191690558680806113a1565b82840151855589969094019360209384019301611392565b909150836000526020600020601f840160051c8101916020851061142a575b84939291601f89920160051c01915b82811061141b5750506112c8565b6000815585945088910161140d565b90915081906113fe565b50600b6020526040600020600160005260205260406000205415610a50565b346101d65760203660031901126101d6576020611471600435611d75565b6040516001600160a01b039091168152f35b346101d65760203660031901126101d6576001600160a01b036114a4611933565b16600052600d6020526020604060002054604051908152f35b346101d65760403660031901126101d6576114d6611933565b6024359060058210156101d65760018060a01b0316600052600b6020526040600020906000526020526020604060002054604051908152f35b346101d65760203660031901126101d6576001600160a01b03611530611933565b16600052600c6020526060604060002054600d602052604060002054600a6020526040600020549060405192835260208301526040820152f35b346101d65761035261157b3661195f565b9060405192611589846119b0565b6000845261034c838383611b77565b346101d65760203660031901126101d6576115b1611933565b6115b9611db0565b6001600160a01b03166000908152600d6020526040812055005b346101d6576020806003193601126101d6576001600160a01b036115f5611933565b16600052600a8152604060002060405190818382549182815201908192600052846000209060005b86828210611673578686611633828803836119e8565b604051928392818401908285525180915260408401929160005b82811061165c57505050500390f35b83518552869550938101939281019260010161164d565b83548552909301926001928301920161161d565b346101d6576103526116983661195f565b91611b77565b346101d65760403660031901126101d6576116b7611933565b6024356116c381611d75565b33151580611772575b80611745575b61172d576001600160a01b039283169282918491167f8c5be1e5ebec7d5bd14f71427d1e84f3dd0314c0f7b2291e5b200ac8c7c3b925600080a4600090815260046020526040902080546001600160a01b0319169091179055005b60405163a9fbf51f60e01b8152336004820152602490fd5b5060018060a01b038116600052600560205260406000203360005260205260ff60406000205416156116d2565b506001600160a01b0381163314156116cc565b346101d65760203660031901126101d6576004356117a281611d75565b506000526004602052602060018060a01b0360406000205416604051908152f35b346101d65760003660031901126101d6576040516000805490826117e683611a6a565b918282526020936001908560018216918260001461056257505060011461181457506104f1925003836119e8565b6000808052859250907f290decd9548b62a8d60345a988386fc84ba6bc95484008f6362f93160ef3e5635b8583106118565750506104f19350820101856104e4565b8054838901850152879450869390920191810161183f565b346101d65760203660031901126101d6576004359063ffffffff60e01b82168092036101d657602091632483248360e11b81149081156118b0575b5015158152f35b6380ac58cd60e01b8114915081156118e2575b81156118d1575b50836118a9565b6301ffc9a760e01b149050836118ca565b635b5e139f60e01b811491506118c3565b919082519283825260005b84811061191f575050826000602080949584010152601f8019910116010190565b6020818301810151848301820152016118fe565b600435906001600160a01b03821682036101d657565b602435906001600160a01b03821682036101d657565b60609060031901126101d6576001600160a01b039060043582811681036101d6579160243590811681036101d6579060443590565b6080810190811067ffffffffffffffff8211176108f757604052565b6020810190811067ffffffffffffffff8211176108f757604052565b6040810190811067ffffffffffffffff8211176108f757604052565b90601f8019910116810190811067ffffffffffffffff8211176108f757604052565b67ffffffffffffffff81116108f757601f01601f191660200190565b929192611a3282611a0a565b91611a4060405193846119e8565b8294818452818301116101d6578281602093846000960137010152565b90600582101561066f5752565b90600182811c92168015611a9a575b6020831014611a8457565b634e487b7160e01b600052602260045260246000fd5b91607f1691611a79565b90604051918260008254611ab781611a6a565b90818452602094600191600181169081600014611b275750600114611ae8575b505050611ae6925003836119e8565b565b600090815285812095935091905b818310611b0f575050611ae69350820101388080611ad7565b85548884018501529485019487945091830191611af6565b92505050611ae694925060ff191682840152151560051b820101388080611ad7565b8054821015611b615760005260206000200190600090565b634e487b7160e01b600052603260045260246000fd5b6001600160a01b039182169290918315611cfd57600092828452826020956002875260409684888820541696879133151580611c67575b509060027fddf252ad1be2c89b69c2b068fc378daa952ba7f163c4a11628f55a4df523b3ef9284611c34575b858352600381528b8320805460010190558683525289812080546001600160a01b0319168517905580a41692838303611c135750505050565b6064945051926364283d7b60e01b8452600484015260248301526044820152fd5b600087815260046020526040902080546001600160a01b0319169055848352600381528b83208054600019019055611bda565b91939450915080611cbc575b15611c8357859291879138611bae565b878688611ca0576024915190637e27328960e01b82526004820152fd5b604491519063177e802f60e01b82523360048301526024820152fd5b503387148015611ce1575b80611c735750858252600481523385898420541614611c73565b5086825260058152878220338352815260ff8883205416611cc7565b604051633250574960e11b815260006004820152602490fd5b6000198114611d255760010190565b634e487b7160e01b600052601160045260246000fd5b8054680100000000000000008110156108f757611d5d91600182018155611b49565b819291549060031b91821b91600019901b1916179055565b6000818152600260205260409020546001600160a01b0316908115611d98575090565b60249060405190637e27328960e01b82526004820152fd5b6007546001600160a01b03163303611dc457565b60405163118cdaa760e01b8152336004820152602490fd5b60408051611de9816119b0565b6000808252936001600160a01b03848116949092908515611ff25782875260209360028552858820541683878215159283611fbf575b818b5260038852888b2080546001019055828b5260028852888b2080546001600160a01b031916831790557fddf252ad1be2c89b69c2b068fc378daa952ba7f163c4a11628f55a4df523b3ef8b80a4611fa7573b611e80575b505050505050565b82611ebe918596979894955180938192630a85bd0160e11b968784523360048501528c602485015260448401526080606484015260848301906118f3565b03818a8a5af1879181611f63575b50611f2c575050503d600014611f23573d611ee681611a0a565b90611ef3845192836119e8565b81528094823d92013e5b83519384611f1d578251633250574960e11b815260048101859052602490fd5b84925001fd5b60609350611efd565b919550915063ffffffff60e01b1603611f4c575050388080808080611e78565b602492505190633250574960e11b82526004820152fd5b9091508481813d8311611fa0575b611f7b81836119e8565b81010312611f9c57516001600160e01b031981168103611f9c579038611ecc565b8780fd5b503d611f71565b84516339e3563760e11b815260048101889052602490fd5b600083815260046020526040902080546001600160a01b0319169055808b5260038852888b208054600019019055611e1f565b8451633250574960e11b815260048101889052602490fd5b91909160009080825260209160068352604081209085519067ffffffffffffffff821161216c5761203b8354611a6a565b601f8111612129575b508490601f83116001146120a557907ff8e1a15aba9398e019f0b49df1a4fde98ee17ae345cb5f6b5e2c27f5033e8ce796978361209a575b50508160011b916000199060031b1c19161790555b604051908152a1565b01519050388061207c565b9196601f198816848452868420935b81811061211257509160019391897ff8e1a15aba9398e019f0b49df1a4fde98ee17ae345cb5f6b5e2c27f5033e8ce7999a94106120f9575b505050811b019055612091565b015160001960f88460031b161c191690553880806120ec565b9293876001819287860151815501950193016120b4565b838252858220601f840160051c810191878510612162575b601f0160051c01905b8181106121575750612044565b82815560010161214a565b9091508190612141565b634e487b7160e01b81526041600452602490fd5b90939192833b612192575b5050505050565b604051630a85bd0160e11b8082526001600160a01b0393841660048301529583166024820152604481019190915260806064820152949216926020929185906121df9060848301906118f3565b039483816000978189895af186918161228a575b50612254575050503d60001461224b573d61220d81611a0a565b9061221b60405192836119e8565b81528093823d92013e5b8251928361224657604051633250574960e11b815260048101849052602490fd5b019050fd5b60609250612225565b919450915063ffffffff60e01b16036122725750388080808061218b565b60249060405190633250574960e11b82526004820152fd5b9091508481813d83116122c7575b6122a281836119e8565b810103126122c357516001600160e01b0319811681036122c35790386121f3565b8680fd5b503d61229856fe96c1af3948d2f212359dcb87cdedd8c7fc36d97bd4fec693d2697ca100797ce4a2646970667358221220c8eff6ed35091a7b256f37db9aa2967e7043b5d71f3482ae92a87a0f1d41854c64736f6c63430008180033",
  "linkReferences": {},
  "deployedLinkReferences": {}
}